{
  "_format": "hh-sol-artifact-1",
  "contractName": "MegaVibeBounties",
  "sourceName": "contracts/MegaVibeBounties.sol",
  "abi": [
    {
      "inputs": [
        {
          "internalType": "address",
          "name": "_feeRecipient",
          "type": "address"
        }
      ],
      "stateMutability": "nonpayable",
      "type": "constructor"
    },
    {
      "inputs": [
        {
          "internalType": "address",
          "name": "owner",
          "type": "address"
        }
      ],
      "name": "OwnableInvalidOwner",
      "type": "error"
    },
    {
      "inputs": [
        {
          "internalType": "address",
          "name": "account",
          "type": "address"
        }
      ],
      "name": "OwnableUnauthorizedAccount",
      "type": "error"
    },
    {
      "inputs": [],
      "name": "ReentrancyGuardReentrantCall",
      "type": "error"
    },
    {
      "anonymous": false,
      "inputs": [
        {
          "indexed": true,
          "internalType": "uint256",
          "name": "bountyId",
          "type": "uint256"
        },
        {
          "indexed": true,
          "internalType": "address",
          "name": "claimant",
          "type": "address"
        },
        {
          "indexed": false,
          "internalType": "string",
          "name": "submissionHash",
          "type": "string"
        },
        {
          "indexed": false,
          "internalType": "uint256",
          "name": "timestamp",
          "type": "uint256"
        }
      ],
      "name": "BountyClaimed",
      "type": "event"
    },
    {
      "anonymous": false,
      "inputs": [
        {
          "indexed": true,
          "internalType": "uint256",
          "name": "bountyId",
          "type": "uint256"
        },
        {
          "indexed": true,
          "internalType": "address",
          "name": "sponsor",
          "type": "address"
        },
        {
          "indexed": false,
          "internalType": "uint256",
          "name": "reward",
          "type": "uint256"
        },
        {
          "indexed": false,
          "internalType": "string",
          "name": "eventId",
          "type": "string"
        },
        {
          "indexed": false,
          "internalType": "string",
          "name": "speakerId",
          "type": "string"
        },
        {
          "indexed": false,
          "internalType": "string",
          "name": "description",
          "type": "string"
        },
        {
          "indexed": false,
          "internalType": "uint256",
          "name": "deadline",
          "type": "uint256"
        }
      ],
      "name": "BountyCreated",
      "type": "event"
    },
    {
      "anonymous": false,
      "inputs": [
        {
          "indexed": true,
          "internalType": "uint256",
          "name": "bountyId",
          "type": "uint256"
        },
        {
          "indexed": false,
          "internalType": "uint256",
          "name": "timestamp",
          "type": "uint256"
        }
      ],
      "name": "BountyExpired",
      "type": "event"
    },
    {
      "anonymous": false,
      "inputs": [
        {
          "indexed": true,
          "internalType": "address",
          "name": "previousOwner",
          "type": "address"
        },
        {
          "indexed": true,
          "internalType": "address",
          "name": "newOwner",
          "type": "address"
        }
      ],
      "name": "OwnershipTransferred",
      "type": "event"
    },
    {
      "anonymous": false,
      "inputs": [
        {
          "indexed": true,
          "internalType": "address",
          "name": "recipient",
          "type": "address"
        },
        {
          "indexed": false,
          "internalType": "uint256",
          "name": "amount",
          "type": "uint256"
        },
        {
          "indexed": false,
          "internalType": "uint256",
          "name": "timestamp",
          "type": "uint256"
        }
      ],
      "name": "PlatformFeeWithdrawn",
      "type": "event"
    },
    {
      "inputs": [],
      "name": "BASIS_POINTS",
      "outputs": [
        {
          "internalType": "uint256",
          "name": "",
          "type": "uint256"
        }
      ],
      "stateMutability": "view",
      "type": "function"
    },
    {
      "inputs": [],
      "name": "MAX_DEADLINE_DURATION",
      "outputs": [
        {
          "internalType": "uint256",
          "name": "",
          "type": "uint256"
        }
      ],
      "stateMutability": "view",
      "type": "function"
    },
    {
      "inputs": [],
      "name": "MIN_BOUNTY_AMOUNT",
      "outputs": [
        {
          "internalType": "uint256",
          "name": "",
          "type": "uint256"
        }
      ],
      "stateMutability": "view",
      "type": "function"
    },
    {
      "inputs": [],
      "name": "PLATFORM_FEE_BPS",
      "outputs": [
        {
          "internalType": "uint256",
          "name": "",
          "type": "uint256"
        }
      ],
      "stateMutability": "view",
      "type": "function"
    },
    {
      "inputs": [
        {
          "internalType": "uint256",
          "name": "",
          "type": "uint256"
        }
      ],
      "name": "bounties",
      "outputs": [
        {
          "internalType": "address",
          "name": "sponsor",
          "type": "address"
        },
        {
          "internalType": "uint256",
          "name": "reward",
          "type": "uint256"
        },
        {
          "internalType": "string",
          "name": "eventId",
          "type": "string"
        },
        {
          "internalType": "string",
          "name": "speakerId",
          "type": "string"
        },
        {
          "internalType": "string",
          "name": "description",
          "type": "string"
        },
        {
          "internalType": "uint256",
          "name": "deadline",
          "type": "uint256"
        },
        {
          "internalType": "bool",
          "name": "claimed",
          "type": "bool"
        },
        {
          "internalType": "address",
          "name": "claimant",
          "type": "address"
        },
        {
          "internalType": "string",
          "name": "submissionHash",
          "type": "string"
        },
        {
          "internalType": "uint256",
          "name": "createdAt",
          "type": "uint256"
        }
      ],
      "stateMutability": "view",
      "type": "function"
    },
    {
      "inputs": [
        {
          "internalType": "uint256",
          "name": "bountyId",
          "type": "uint256"
        },
        {
          "internalType": "string",
          "name": "submissionHash",
          "type": "string"
        }
      ],
      "name": "claimBounty",
      "outputs": [],
      "stateMutability": "nonpayable",
      "type": "function"
    },
    {
      "inputs": [
        {
          "internalType": "address",
          "name": "",
          "type": "address"
        },
        {
          "internalType": "uint256",
          "name": "",
          "type": "uint256"
        }
      ],
      "name": "claimantBounties",
      "outputs": [
        {
          "internalType": "uint256",
          "name": "",
          "type": "uint256"
        }
      ],
      "stateMutability": "view",
      "type": "function"
    },
    {
      "inputs": [
        {
          "internalType": "string",
          "name": "eventId",
          "type": "string"
        },
        {
          "internalType": "string",
          "name": "speakerId",
          "type": "string"
        },
        {
          "internalType": "string",
          "name": "description",
          "type": "string"
        },
        {
          "internalType": "uint256",
          "name": "deadline",
          "type": "uint256"
        }
      ],
      "name": "createBounty",
      "outputs": [],
      "stateMutability": "payable",
      "type": "function"
    },
    {
      "inputs": [
        {
          "internalType": "string",
          "name": "",
          "type": "string"
        },
        {
          "internalType": "uint256",
          "name": "",
          "type": "uint256"
        }
      ],
      "name": "eventBounties",
      "outputs": [
        {
          "internalType": "uint256",
          "name": "",
          "type": "uint256"
        }
      ],
      "stateMutability": "view",
      "type": "function"
    },
    {
      "inputs": [],
      "name": "feeRecipient",
      "outputs": [
        {
          "internalType": "address",
          "name": "",
          "type": "address"
        }
      ],
      "stateMutability": "view",
      "type": "function"
    },
    {
      "inputs": [
        {
          "internalType": "string",
          "name": "eventId",
          "type": "string"
        }
      ],
      "name": "getActiveBountiesForEvent",
      "outputs": [
        {
          "components": [
            {
              "internalType": "address",
              "name": "sponsor",
              "type": "address"
            },
            {
              "internalType": "uint256",
              "name": "reward",
              "type": "uint256"
            },
            {
              "internalType": "string",
              "name": "eventId",
              "type": "string"
            },
            {
              "internalType": "string",
              "name": "speakerId",
              "type": "string"
            },
            {
              "internalType": "string",
              "name": "description",
              "type": "string"
            },
            {
              "internalType": "uint256",
              "name": "deadline",
              "type": "uint256"
            },
            {
              "internalType": "bool",
              "name": "claimed",
              "type": "bool"
            },
            {
              "internalType": "address",
              "name": "claimant",
              "type": "address"
            },
            {
              "internalType": "string",
              "name": "submissionHash",
              "type": "string"
            },
            {
              "internalType": "uint256",
              "name": "createdAt",
              "type": "uint256"
            }
          ],
          "internalType": "struct MegaVibeBounties.Bounty[]",
          "name": "",
          "type": "tuple[]"
        }
      ],
      "stateMutability": "view",
      "type": "function"
    },
    {
      "inputs": [
        {
          "internalType": "uint256",
          "name": "bountyId",
          "type": "uint256"
        }
      ],
      "name": "getBounty",
      "outputs": [
        {
          "components": [
            {
              "internalType": "address",
              "name": "sponsor",
              "type": "address"
            },
            {
              "internalType": "uint256",
              "name": "reward",
              "type": "uint256"
            },
            {
              "internalType": "string",
              "name": "eventId",
              "type": "string"
            },
            {
              "internalType": "string",
              "name": "speakerId",
              "type": "string"
            },
            {
              "internalType": "string",
              "name": "description",
              "type": "string"
            },
            {
              "internalType": "uint256",
              "name": "deadline",
              "type": "uint256"
            },
            {
              "internalType": "bool",
              "name": "claimed",
              "type": "bool"
            },
            {
              "internalType": "address",
              "name": "claimant",
              "type": "address"
            },
            {
              "internalType": "string",
              "name": "submissionHash",
              "type": "string"
            },
            {
              "internalType": "uint256",
              "name": "createdAt",
              "type": "uint256"
            }
          ],
          "internalType": "struct MegaVibeBounties.Bounty",
          "name": "",
          "type": "tuple"
        }
      ],
      "stateMutability": "view",
      "type": "function"
    },
    {
      "inputs": [
        {
          "internalType": "address",
          "name": "claimant",
          "type": "address"
        }
      ],
      "name": "getClaimantBounties",
      "outputs": [
        {
          "internalType": "uint256[]",
          "name": "",
          "type": "uint256[]"
        }
      ],
      "stateMutability": "view",
      "type": "function"
    },
    {
      "inputs": [
        {
          "internalType": "string",
          "name": "eventId",
          "type": "string"
        }
      ],
      "name": "getEventBounties",
      "outputs": [
        {
          "internalType": "uint256[]",
          "name": "",
          "type": "uint256[]"
        }
      ],
      "stateMutability": "view",
      "type": "function"
    },
    {
      "inputs": [],
      "name": "getPlatformStats",
      "outputs": [
        {
          "internalType": "uint256",
          "name": "totalVolume",
          "type": "uint256"
        },
        {
          "internalType": "uint256",
          "name": "totalBounties",
          "type": "uint256"
        },
        {
          "internalType": "uint256",
          "name": "activeBounties",
          "type": "uint256"
        },
        {
          "internalType": "uint256",
          "name": "platformFees",
          "type": "uint256"
        }
      ],
      "stateMutability": "view",
      "type": "function"
    },
    {
      "inputs": [
        {
          "internalType": "string",
          "name": "speakerId",
          "type": "string"
        }
      ],
      "name": "getSpeakerBounties",
      "outputs": [
        {
          "internalType": "uint256[]",
          "name": "",
          "type": "uint256[]"
        }
      ],
      "stateMutability": "view",
      "type": "function"
    },
    {
      "inputs": [
        {
          "internalType": "address",
          "name": "sponsor",
          "type": "address"
        }
      ],
      "name": "getSponsorBounties",
      "outputs": [
        {
          "internalType": "uint256[]",
          "name": "",
          "type": "uint256[]"
        }
      ],
      "stateMutability": "view",
      "type": "function"
    },
    {
      "inputs": [],
      "name": "getTotalBounties",
      "outputs": [
        {
          "internalType": "uint256",
          "name": "",
          "type": "uint256"
        }
      ],
      "stateMutability": "view",
      "type": "function"
    },
    {
      "inputs": [],
      "name": "owner",
      "outputs": [
        {
          "internalType": "address",
          "name": "",
          "type": "address"
        }
      ],
      "stateMutability": "view",
      "type": "function"
    },
    {
      "inputs": [],
      "name": "platformFeeCollected",
      "outputs": [
        {
          "internalType": "uint256",
          "name": "",
          "type": "uint256"
        }
      ],
      "stateMutability": "view",
      "type": "function"
    },
    {
      "inputs": [
        {
          "internalType": "uint256",
          "name": "bountyId",
          "type": "uint256"
        }
      ],
      "name": "reclaimExpiredBounty",
      "outputs": [],
      "stateMutability": "nonpayable",
      "type": "function"
    },
    {
      "inputs": [],
      "name": "renounceOwnership",
      "outputs": [],
      "stateMutability": "nonpayable",
      "type": "function"
    },
    {
      "inputs": [
        {
          "internalType": "string",
          "name": "",
          "type": "string"
        },
        {
          "internalType": "uint256",
          "name": "",
          "type": "uint256"
        }
      ],
      "name": "speakerBounties",
      "outputs": [
        {
          "internalType": "uint256",
          "name": "",
          "type": "uint256"
        }
      ],
      "stateMutability": "view",
      "type": "function"
    },
    {
      "inputs": [
        {
          "internalType": "address",
          "name": "",
          "type": "address"
        },
        {
          "internalType": "uint256",
          "name": "",
          "type": "uint256"
        }
      ],
      "name": "sponsorBounties",
      "outputs": [
        {
          "internalType": "uint256",
          "name": "",
          "type": "uint256"
        }
      ],
      "stateMutability": "view",
      "type": "function"
    },
    {
      "inputs": [
        {
          "internalType": "address",
          "name": "newOwner",
          "type": "address"
        }
      ],
      "name": "transferOwnership",
      "outputs": [],
      "stateMutability": "nonpayable",
      "type": "function"
    },
    {
      "inputs": [
        {
          "internalType": "address",
          "name": "_newRecipient",
          "type": "address"
        }
      ],
      "name": "updateFeeRecipient",
      "outputs": [],
      "stateMutability": "nonpayable",
      "type": "function"
    },
    {
      "inputs": [],
      "name": "withdrawPlatformFees",
      "outputs": [],
      "stateMutability": "nonpayable",
      "type": "function"
    },
    {
      "stateMutability": "payable",
      "type": "receive"
    }
  ],
  "bytecode": "0x60806040523480156200001157600080fd5b5060405162002bbc38038062002bbc83398101604081905262000034916200013d565b600160005533806200006157604051631e4fbdf760e01b8152600060048201526024015b60405180910390fd5b6200006c81620000eb565b506001600160a01b038116620000c55760405162461bcd60e51b815260206004820152601560248201527f496e76616c69642066656520726563697069656e740000000000000000000000604482015260640162000058565b600880546001600160a01b0319166001600160a01b03929092169190911790556200016f565b600180546001600160a01b038381166001600160a01b0319831681179093556040519116919082907f8be0079c531659141344cd1fd0a4f28419497f9722a3daafe3b4186f6b6457e090600090a35050565b6000602082840312156200015057600080fd5b81516001600160a01b03811681146200016857600080fd5b9392505050565b612a3d806200017f6000396000f3fe6080604052600436106101a05760003560e01c806360e63942116100ec578063d56705251161008a578063ee8c4bbf11610064578063ee8c4bbf14610513578063f160d36914610540578063f2fde38b14610560578063fa3bd3d61461058057600080fd5b8063d5670525146104ac578063dc2f8744146104c7578063e1f1c4a7146104fd57600080fd5b80638da5cb5b116100c65780638da5cb5b14610443578063be009a0414610461578063ca5c500714610481578063d0b7830b1461049757600080fd5b806360e6394214610404578063715018a6146104175780637322ae371461042c57600080fd5b80631a42655011610159578063469048401161013357806346904840146103765780634c675a0f146103ae578063539aa77f146103ce5780635840787f146103e457600080fd5b80631a4265501461031657806337c551901461033657806342c4ce951461035657600080fd5b80630bf4dd5d1461021d5780630c12d5a4146102535780630ea09765146102725780630f9a95a414610292578063136d8883146102b45780631607be28146102e957600080fd5b366102185760405162461bcd60e51b815260206004820152603760248201527f446972656374206465706f73697473206e6f7420616c6c6f7765642e2055736560448201527f20637265617465426f756e74792066756e6374696f6e2e00000000000000000060648201526084015b60405180910390fd5b600080fd5b34801561022957600080fd5b5061023d610238366004612305565b6105a0565b60405161024a9190612342565b60405180910390f35b34801561025f57600080fd5b506002545b60405190815260200161024a565b34801561027e57600080fd5b5061026461028d366004612386565b610610565b34801561029e57600080fd5b506102b26102ad3660046123cb565b610650565b005b3480156102c057600080fd5b506102c961087a565b60408051948552602085019390935291830152606082015260800161024a565b3480156102f557600080fd5b50610309610304366004612305565b61094b565b60405161024a9190612507565b34801561032257600080fd5b506102b2610331366004612569565b6110d8565b34801561034257600080fd5b50610264610351366004612386565b6113e2565b34801561036257600080fd5b5061023d6103713660046125cc565b61140d565b34801561038257600080fd5b50600854610396906001600160a01b031681565b6040516001600160a01b03909116815260200161024a565b3480156103ba57600080fd5b5061023d6103c93660046125cc565b611477565b3480156103da57600080fd5b506102646101f481565b3480156103f057600080fd5b506102646103ff3660046125ee565b6114e1565b6102b2610412366004612618565b6114fd565b34801561042357600080fd5b506102b2611956565b34801561043857600080fd5b5061026462278d0081565b34801561044f57600080fd5b506001546001600160a01b0316610396565b34801561046d57600080fd5b5061023d61047c366004612305565b61196a565b34801561048d57600080fd5b5061026460075481565b3480156104a357600080fd5b506102b261197c565b3480156104b857600080fd5b5061026466038d7ea4c6800081565b3480156104d357600080fd5b506104e76104e23660046123cb565b611ac6565b60405161024a9a999897969594939291906126a8565b34801561050957600080fd5b5061026461271081565b34801561051f57600080fd5b5061053361052e3660046123cb565b611d62565b60405161024a9190612742565b34801561054c57600080fd5b506102b261055b3660046125cc565b61207b565b34801561056c57600080fd5b506102b261057b3660046125cc565b6120fb565b34801561058c57600080fd5b5061026461059b3660046125ee565b612136565b60606004826040516105b29190612755565b908152604080519182900360209081018320805480830285018301909352828452919083018282801561060457602002820191906000526020600020905b8154815260200190600101908083116105f0575b50505050509050919050565b8151602081840181018051600482529282019185019190912091905280548290811061063b57600080fd5b90600052602060002001600091509150505481565b610658612152565b60025481106106795760405162461bcd60e51b815260040161020f90612771565b60006002828154811061068e5761068e6127a0565b6000918252602090912060099091020180549091506001600160a01b031633146106fa5760405162461bcd60e51b815260206004820152601860248201527f4f6e6c792073706f6e736f722063616e207265636c61696d0000000000000000604482015260640161020f565b806005015442116107465760405162461bcd60e51b8152602060048201526016602482015275109bdd5b9d1e481b9bdd08195e1c1a5c9959081e595d60521b604482015260640161020f565b600681015460ff16156107945760405162461bcd60e51b8152602060048201526016602482015275109bdd5b9d1e48185b1c9958591e4818db185a5b595960521b604482015260640161020f565b60068101805460ff1916600190811790915581015460405160009133918381818185875af1925050503d80600081146107e9576040519150601f19603f3d011682016040523d82523d6000602084013e6107ee565b606091505b50509050806108315760405162461bcd60e51b815260206004820152600f60248201526e151c985b9cd9995c8819985a5b1959608a1b604482015260640161020f565b827f99ec6622d0d9c8d10ac5cb08550e3aca70115203c0a53d8cd16f5c14ffae206b4260405161086391815260200190565b60405180910390a250506108776001600055565b50565b600254600754600091908290815b60025481101561094457600281815481106108a5576108a56127a0565b906000526020600020906009020160010154856108c291906127cc565b9450600281815481106108d7576108d76127a0565b600091825260209091206006600990920201015460ff1615801561091f575060028181548110610909576109096127a0565b9060005260206000209060090201600501544211155b15610932578261092e816127e5565b9350505b8061093c816127e5565b915050610888565b5090919293565b6060600060038360405161095f9190612755565b90815260408051918290036020908101832080548083028501830190935282845291908301828280156109b157602002820191906000526020600020905b81548152602001906001019080831161099d575b505050505090506000805b8251811015610d0757600060028483815181106109db576109db6127a0565b6020026020010151815481106109f3576109f36127a0565b9060005260206000209060090201604051806101400160405290816000820160009054906101000a90046001600160a01b03166001600160a01b03166001600160a01b0316815260200160018201548152602001600282018054610a56906127fe565b80601f0160208091040260200160405190810160405280929190818152602001828054610a82906127fe565b8015610acf5780601f10610aa457610100808354040283529160200191610acf565b820191906000526020600020905b815481529060010190602001808311610ab257829003601f168201915b50505050508152602001600382018054610ae8906127fe565b80601f0160208091040260200160405190810160405280929190818152602001828054610b14906127fe565b8015610b615780601f10610b3657610100808354040283529160200191610b61565b820191906000526020600020905b815481529060010190602001808311610b4457829003601f168201915b50505050508152602001600482018054610b7a906127fe565b80601f0160208091040260200160405190810160405280929190818152602001828054610ba6906127fe565b8015610bf35780601f10610bc857610100808354040283529160200191610bf3565b820191906000526020600020905b815481529060010190602001808311610bd657829003601f168201915b505050918352505060058201546020820152600682015460ff81161515604083015261010090046001600160a01b03166060820152600782018054608090920191610c3d906127fe565b80601f0160208091040260200160405190810160405280929190818152602001828054610c69906127fe565b8015610cb65780601f10610c8b57610100808354040283529160200191610cb6565b820191906000526020600020905b815481529060010190602001808311610c9957829003601f168201915b5050505050815260200160088201548152505090508060c00151158015610ce157508060a001514211155b15610cf45782610cf0816127e5565b9350505b5080610cff816127e5565b9150506109bc565b5060008167ffffffffffffffff811115610d2357610d23612262565b604051908082528060200260200182016040528015610d5c57816020015b610d496121fb565b815260200190600190039081610d415790505b5090506000805b84518110156110cd5760006002868381518110610d8257610d826127a0565b602002602001015181548110610d9a57610d9a6127a0565b9060005260206000209060090201604051806101400160405290816000820160009054906101000a90046001600160a01b03166001600160a01b03166001600160a01b0316815260200160018201548152602001600282018054610dfd906127fe565b80601f0160208091040260200160405190810160405280929190818152602001828054610e29906127fe565b8015610e765780601f10610e4b57610100808354040283529160200191610e76565b820191906000526020600020905b815481529060010190602001808311610e5957829003601f168201915b50505050508152602001600382018054610e8f906127fe565b80601f0160208091040260200160405190810160405280929190818152602001828054610ebb906127fe565b8015610f085780601f10610edd57610100808354040283529160200191610f08565b820191906000526020600020905b815481529060010190602001808311610eeb57829003601f168201915b50505050508152602001600482018054610f21906127fe565b80601f0160208091040260200160405190810160405280929190818152602001828054610f4d906127fe565b8015610f9a5780601f10610f6f57610100808354040283529160200191610f9a565b820191906000526020600020905b815481529060010190602001808311610f7d57829003601f168201915b505050918352505060058201546020820152600682015460ff81161515604083015261010090046001600160a01b03166060820152600782018054608090920191610fe4906127fe565b80601f0160208091040260200160405190810160405280929190818152602001828054611010906127fe565b801561105d5780601f106110325761010080835404028352916020019161105d565b820191906000526020600020905b81548152906001019060200180831161104057829003601f168201915b5050505050815260200160088201548152505090508060c0015115801561108857508060a001514211155b156110ba57808484815181106110a0576110a06127a0565b602002602001018190525082806110b6906127e5565b9350505b50806110c5816127e5565b915050610d63565b509095945050505050565b6110e0612152565b60025482106111015760405162461bcd60e51b815260040161020f90612771565b60008151116111525760405162461bcd60e51b815260206004820152601860248201527f5375626d697373696f6e20686173682072657175697265640000000000000000604482015260640161020f565b600060028381548110611167576111676127a0565b9060005260206000209060090201905080600501544211156111bc5760405162461bcd60e51b815260206004820152600e60248201526d109bdd5b9d1e48195e1c1a5c995960921b604482015260640161020f565b600681015460ff161561120a5760405162461bcd60e51b8152602060048201526016602482015275109bdd5b9d1e48185b1c9958591e4818db185a5b595960521b604482015260640161020f565b8054336001600160a01b03909116036112655760405162461bcd60e51b815260206004820152601760248201527f43616e6e6f7420636c61696d206f776e20626f756e7479000000000000000000604482015260640161020f565b60006127106101f4836001015461127c9190612838565b611286919061284f565b9050600081836001015461129a9190612871565b60068401805433610100026001600160a81b03199091161760011790559050600783016112c785826128d3565b503360009081526006602090815260408220805460018101825590835290822001869055600780548492906112fd9084906127cc565b9091555050604051600090339083908381818185875af1925050503d8060008114611344576040519150601f19603f3d011682016040523d82523d6000602084013e611349565b606091505b505090508061138c5760405162461bcd60e51b815260206004820152600f60248201526e151c985b9cd9995c8819985a5b1959608a1b604482015260640161020f565b336001600160a01b0316867ff9c2f92096870022cbba2bebdd53acaf0489a4fb1901c3a8e88179510493fa8687426040516113c8929190612993565b60405180910390a3505050506113de6001600055565b5050565b8151602081840181018051600382529282019185019190912091905280548290811061063b57600080fd5b6001600160a01b03811660009081526005602090815260409182902080548351818402810184019094528084526060939283018282801561060457602002820191906000526020600020908154815260200190600101908083116105f05750505050509050919050565b6001600160a01b03811660009081526006602090815260409182902080548351818402810184019094528084526060939283018282801561060457602002820191906000526020600020908154815260200190600101908083116105f05750505050509050919050565b6006602052816000526040600020818154811061063b57600080fd5b611505612152565b66038d7ea4c6800034101561155c5760405162461bcd60e51b815260206004820152601760248201527f426f756e747920616d6f756e7420746f6f20736d616c6c000000000000000000604482015260640161020f565b60008451116115a15760405162461bcd60e51b8152602060048201526011602482015270115d995b9d081251081c995c5d5a5c9959607a1b604482015260640161020f565b60008351116115e85760405162461bcd60e51b815260206004820152601360248201527214dc19585ad95c881251081c995c5d5a5c9959606a1b604482015260640161020f565b60008251116116305760405162461bcd60e51b815260206004820152601460248201527311195cd8dc9a5c1d1a5bdb881c995c5d5a5c995960621b604482015260640161020f565b42811161167f5760405162461bcd60e51b815260206004820152601a60248201527f446561646c696e65206d75737420626520696e20667574757265000000000000604482015260640161020f565b61168c62278d00426127cc565b8111156116db5760405162461bcd60e51b815260206004820152601a60248201527f446561646c696e6520746f6f2066617220696e20667574757265000000000000604482015260640161020f565b6002805460408051610140810182523381523460208083019182528284018a8152606084018a90526080840189905260a08401889052600060c0850181905260e085018190528551928301909552848252610100840191909152426101208401526001850186559490925280517f405787fa12a823e0f2b7631cc41b3ba8828b3321ca811111fa75cd3aa3bb5ace6009850290810180546001600160a01b0319166001600160a01b0390931692909217825592517f405787fa12a823e0f2b7631cc41b3ba8828b3321ca811111fa75cd3aa3bb5acf84015593519293909290917f405787fa12a823e0f2b7631cc41b3ba8828b3321ca811111fa75cd3aa3bb5ad001906117e890826128d3565b50606082015160038201906117fd90826128d3565b506080820151600482019061181290826128d3565b5060a0820151600582015560c082015160068201805460e08501516001600160a81b0319909116921515610100600160a81b031916929092176101006001600160a01b039093168302179055820151600782019061187090826128d3565b506101208201518160080155505060038560405161188e9190612755565b908152604051908190036020908101822080546001810182556000918252919020018290556004906118c1908690612755565b90815260408051918290036020908101832080546001818101835560009283528383209091018690553380835260058452938220805491820181558252919020018390559082907ff91858a9a3a967c4ad42d2d7223ac239eaaffa516a11b24617bf2959983a720e9061193d9034908a908a908a908a906129b5565b60405180910390a3506119506001600055565b50505050565b61195e61217c565b61196860006121a9565b565b60606003826040516105b29190612755565b61198461217c565b61198c612152565b600754806119d25760405162461bcd60e51b81526020600482015260136024820152724e6f206665657320746f20776974686472617760681b604482015260640161020f565b600060078190556008546040516001600160a01b039091169083908381818185875af1925050503d8060008114611a25576040519150601f19603f3d011682016040523d82523d6000602084013e611a2a565b606091505b5050905080611a735760405162461bcd60e51b8152602060048201526015602482015274119959481dda5d1a191c985dd85b0819985a5b1959605a1b604482015260640161020f565b600854604080518481524260208201526001600160a01b03909216917fd34af39c64d5ed6bd12db9a9ba17a8ce5a6f1fa6dfd5036565f0b26696ee4b5f910160405180910390a250506119686001600055565b60028181548110611ad657600080fd5b60009182526020909120600990910201805460018201546002830180546001600160a01b039093169450909291611b0c906127fe565b80601f0160208091040260200160405190810160405280929190818152602001828054611b38906127fe565b8015611b855780601f10611b5a57610100808354040283529160200191611b85565b820191906000526020600020905b815481529060010190602001808311611b6857829003601f168201915b505050505090806003018054611b9a906127fe565b80601f0160208091040260200160405190810160405280929190818152602001828054611bc6906127fe565b8015611c135780601f10611be857610100808354040283529160200191611c13565b820191906000526020600020905b815481529060010190602001808311611bf657829003601f168201915b505050505090806004018054611c28906127fe565b80601f0160208091040260200160405190810160405280929190818152602001828054611c54906127fe565b8015611ca15780601f10611c7657610100808354040283529160200191611ca1565b820191906000526020600020905b815481529060010190602001808311611c8457829003601f168201915b50505050600583015460068401546007850180549495929460ff831694506101009092046001600160a01b03169291611cd9906127fe565b80601f0160208091040260200160405190810160405280929190818152602001828054611d05906127fe565b8015611d525780601f10611d2757610100808354040283529160200191611d52565b820191906000526020600020905b815481529060010190602001808311611d3557829003601f168201915b505050505090806008015490508a565b611d6a6121fb565b6002548210611d8b5760405162461bcd60e51b815260040161020f90612771565b60028281548110611d9e57611d9e6127a0565b9060005260206000209060090201604051806101400160405290816000820160009054906101000a90046001600160a01b03166001600160a01b03166001600160a01b0316815260200160018201548152602001600282018054611e01906127fe565b80601f0160208091040260200160405190810160405280929190818152602001828054611e2d906127fe565b8015611e7a5780601f10611e4f57610100808354040283529160200191611e7a565b820191906000526020600020905b815481529060010190602001808311611e5d57829003601f168201915b50505050508152602001600382018054611e93906127fe565b80601f0160208091040260200160405190810160405280929190818152602001828054611ebf906127fe565b8015611f0c5780601f10611ee157610100808354040283529160200191611f0c565b820191906000526020600020905b815481529060010190602001808311611eef57829003601f168201915b50505050508152602001600482018054611f25906127fe565b80601f0160208091040260200160405190810160405280929190818152602001828054611f51906127fe565b8015611f9e5780601f10611f7357610100808354040283529160200191611f9e565b820191906000526020600020905b815481529060010190602001808311611f8157829003601f168201915b505050918352505060058201546020820152600682015460ff81161515604083015261010090046001600160a01b03166060820152600782018054608090920191611fe8906127fe565b80601f0160208091040260200160405190810160405280929190818152602001828054612014906127fe565b80156120615780601f1061203657610100808354040283529160200191612061565b820191906000526020600020905b81548152906001019060200180831161204457829003601f168201915b505050505081526020016008820154815250509050919050565b61208361217c565b6001600160a01b0381166120d95760405162461bcd60e51b815260206004820152601960248201527f496e76616c696420726563697069656e74206164647265737300000000000000604482015260640161020f565b600880546001600160a01b0319166001600160a01b0392909216919091179055565b61210361217c565b6001600160a01b03811661212d57604051631e4fbdf760e01b81526000600482015260240161020f565b610877816121a9565b6005602052816000526040600020818154811061063b57600080fd5b60026000540361217557604051633ee5aeb560e01b815260040160405180910390fd5b6002600055565b6001546001600160a01b031633146119685760405163118cdaa760e01b815233600482015260240161020f565b600180546001600160a01b038381166001600160a01b0319831681179093556040519116919082907f8be0079c531659141344cd1fd0a4f28419497f9722a3daafe3b4186f6b6457e090600090a35050565b60405180610140016040528060006001600160a01b03168152602001600081526020016060815260200160608152602001606081526020016000815260200160001515815260200160006001600160a01b0316815260200160608152602001600081525090565b634e487b7160e01b600052604160045260246000fd5b600082601f83011261228957600080fd5b813567ffffffffffffffff808211156122a4576122a4612262565b604051601f8301601f19908116603f011681019082821181831017156122cc576122cc612262565b816040528381528660208588010111156122e557600080fd5b836020870160208301376000602085830101528094505050505092915050565b60006020828403121561231757600080fd5b813567ffffffffffffffff81111561232e57600080fd5b61233a84828501612278565b949350505050565b6020808252825182820181905260009190848201906040850190845b8181101561237a5783518352928401929184019160010161235e565b50909695505050505050565b6000806040838503121561239957600080fd5b823567ffffffffffffffff8111156123b057600080fd5b6123bc85828601612278565b95602094909401359450505050565b6000602082840312156123dd57600080fd5b5035919050565b60005b838110156123ff5781810151838201526020016123e7565b50506000910152565b600081518084526124208160208601602086016123e4565b601f01601f19169290920160200192915050565b80516001600160a01b03168252600061014060208301516020850152604083015181604086015261246782860182612408565b915050606083015184820360608601526124818282612408565b9150506080830151848203608086015261249b8282612408565b91505060a083015160a085015260c08301516124bb60c086018215159052565b5060e08301516124d660e08601826001600160a01b03169052565b5061010080840151858303828701526124ef8382612408565b61012095860151969095019590955250919392505050565b6000602080830181845280855180835260408601915060408160051b870101925083870160005b8281101561255c57603f1988860301845261254a858351612434565b9450928501929085019060010161252e565b5092979650505050505050565b6000806040838503121561257c57600080fd5b82359150602083013567ffffffffffffffff81111561259a57600080fd5b6125a685828601612278565b9150509250929050565b80356001600160a01b03811681146125c757600080fd5b919050565b6000602082840312156125de57600080fd5b6125e7826125b0565b9392505050565b6000806040838503121561260157600080fd5b61260a836125b0565b946020939093013593505050565b6000806000806080858703121561262e57600080fd5b843567ffffffffffffffff8082111561264657600080fd5b61265288838901612278565b9550602087013591508082111561266857600080fd5b61267488838901612278565b9450604087013591508082111561268a57600080fd5b5061269787828801612278565b949793965093946060013593505050565b6001600160a01b038b81168252602082018b9052610140604083018190526000916126d58483018d612408565b915083820360608501526126e9828c612408565b915083820360808501526126fd828b612408565b91508860a085015287151560c085015280871660e0850152508281036101008401526127298186612408565b915050826101208301529b9a5050505050505050505050565b6020815260006125e76020830184612434565b600082516127678184602087016123e4565b9190910192915050565b602080825260159082015274109bdd5b9d1e48191bd95cc81b9bdd08195e1a5cdd605a1b604082015260600190565b634e487b7160e01b600052603260045260246000fd5b634e487b7160e01b600052601160045260246000fd5b808201808211156127df576127df6127b6565b92915050565b6000600182016127f7576127f76127b6565b5060010190565b600181811c9082168061281257607f821691505b60208210810361283257634e487b7160e01b600052602260045260246000fd5b50919050565b80820281158282048414176127df576127df6127b6565b60008261286c57634e487b7160e01b600052601260045260246000fd5b500490565b818103818111156127df576127df6127b6565b601f8211156128ce57600081815260208120601f850160051c810160208610156128ab5750805b601f850160051c820191505b818110156128ca578281556001016128b7565b5050505b505050565b815167ffffffffffffffff8111156128ed576128ed612262565b612901816128fb84546127fe565b84612884565b602080601f831160018114612936576000841561291e5750858301515b600019600386901b1c1916600185901b1785556128ca565b600085815260208120601f198616915b8281101561296557888601518255948401946001909101908401612946565b50858210156129835787850151600019600388901b60f8161c191681555b5050505050600190811b01905550565b6040815260006129a66040830185612408565b90508260208301529392505050565b85815260a0602082015260006129ce60a0830187612408565b82810360408401526129e08187612408565b905082810360608401526129f48186612408565b915050826080830152969550505050505056fea264697066735822122008c4bb56d075c814d7e7e53d0e33ff64bc276ae144eff2290fccd802e1c96b4c64736f6c63430008140033",
  "linkReferences": {},
  "deployedLinkReferences": {}
}