{
  "_format": "hh-sol-artifact-1",
  "contractName": "MegaVibeBounties",
  "sourceName": "contracts/MegaVibeBounties.sol",
  "abi": [
    {
      "inputs": [
        {
          "internalType": "address",
          "name": "_feeRecipient",
          "type": "address"
        }
      ],
      "stateMutability": "nonpayable",
      "type": "constructor"
    },
    {
      "inputs": [
        {
          "internalType": "address",
          "name": "owner",
          "type": "address"
        }
      ],
      "name": "OwnableInvalidOwner",
      "type": "error"
    },
    {
      "inputs": [
        {
          "internalType": "address",
          "name": "account",
          "type": "address"
        }
      ],
      "name": "OwnableUnauthorizedAccount",
      "type": "error"
    },
    {
      "inputs": [],
      "name": "ReentrancyGuardReentrantCall",
      "type": "error"
    },
    {
      "anonymous": false,
      "inputs": [
        {
          "indexed": true,
          "internalType": "uint256",
          "name": "bountyId",
          "type": "uint256"
        },
        {
          "indexed": true,
          "internalType": "address",
          "name": "sponsor",
          "type": "address"
        },
        {
          "indexed": false,
          "internalType": "uint256",
          "name": "reward",
          "type": "uint256"
        },
        {
          "indexed": false,
          "internalType": "string",
          "name": "eventId",
          "type": "string"
        },
        {
          "indexed": false,
          "internalType": "string",
          "name": "speakerId",
          "type": "string"
        }
      ],
      "name": "BountyCreated",
      "type": "event"
    },
    {
      "anonymous": false,
      "inputs": [
        {
          "indexed": true,
          "internalType": "address",
          "name": "previousOwner",
          "type": "address"
        },
        {
          "indexed": true,
          "internalType": "address",
          "name": "newOwner",
          "type": "address"
        }
      ],
      "name": "OwnershipTransferred",
      "type": "event"
    },
    {
      "anonymous": false,
      "inputs": [
        {
          "indexed": true,
          "internalType": "uint256",
          "name": "bountyId",
          "type": "uint256"
        },
        {
          "indexed": true,
          "internalType": "uint256",
          "name": "submissionId",
          "type": "uint256"
        },
        {
          "indexed": true,
          "internalType": "address",
          "name": "claimant",
          "type": "address"
        }
      ],
      "name": "SubmissionApproved",
      "type": "event"
    },
    {
      "anonymous": false,
      "inputs": [
        {
          "indexed": true,
          "internalType": "uint256",
          "name": "bountyId",
          "type": "uint256"
        },
        {
          "indexed": true,
          "internalType": "uint256",
          "name": "submissionId",
          "type": "uint256"
        },
        {
          "indexed": true,
          "internalType": "address",
          "name": "claimant",
          "type": "address"
        },
        {
          "indexed": false,
          "internalType": "string",
          "name": "submissionHash",
          "type": "string"
        }
      ],
      "name": "SubmissionReceived",
      "type": "event"
    },
    {
      "anonymous": false,
      "inputs": [
        {
          "indexed": true,
          "internalType": "uint256",
          "name": "bountyId",
          "type": "uint256"
        },
        {
          "indexed": true,
          "internalType": "uint256",
          "name": "submissionId",
          "type": "uint256"
        },
        {
          "indexed": true,
          "internalType": "address",
          "name": "claimant",
          "type": "address"
        }
      ],
      "name": "SubmissionRejected",
      "type": "event"
    },
    {
      "inputs": [],
      "name": "BASIS_POINTS",
      "outputs": [
        {
          "internalType": "uint256",
          "name": "",
          "type": "uint256"
        }
      ],
      "stateMutability": "view",
      "type": "function"
    },
    {
      "inputs": [],
      "name": "MAX_DEADLINE_DURATION",
      "outputs": [
        {
          "internalType": "uint256",
          "name": "",
          "type": "uint256"
        }
      ],
      "stateMutability": "view",
      "type": "function"
    },
    {
      "inputs": [],
      "name": "MIN_BOUNTY_AMOUNT",
      "outputs": [
        {
          "internalType": "uint256",
          "name": "",
          "type": "uint256"
        }
      ],
      "stateMutability": "view",
      "type": "function"
    },
    {
      "inputs": [],
      "name": "PLATFORM_FEE_BPS",
      "outputs": [
        {
          "internalType": "uint256",
          "name": "",
          "type": "uint256"
        }
      ],
      "stateMutability": "view",
      "type": "function"
    },
    {
      "inputs": [
        {
          "internalType": "uint256",
          "name": "bountyId",
          "type": "uint256"
        },
        {
          "internalType": "uint256",
          "name": "submissionId",
          "type": "uint256"
        }
      ],
      "name": "approveSubmission",
      "outputs": [],
      "stateMutability": "nonpayable",
      "type": "function"
    },
    {
      "inputs": [
        {
          "internalType": "uint256",
          "name": "",
          "type": "uint256"
        }
      ],
      "name": "bounties",
      "outputs": [
        {
          "internalType": "address",
          "name": "sponsor",
          "type": "address"
        },
        {
          "internalType": "uint256",
          "name": "reward",
          "type": "uint256"
        },
        {
          "internalType": "string",
          "name": "eventId",
          "type": "string"
        },
        {
          "internalType": "string",
          "name": "speakerId",
          "type": "string"
        },
        {
          "internalType": "string",
          "name": "description",
          "type": "string"
        },
        {
          "internalType": "uint256",
          "name": "deadline",
          "type": "uint256"
        },
        {
          "internalType": "bool",
          "name": "claimed",
          "type": "bool"
        },
        {
          "internalType": "address",
          "name": "claimant",
          "type": "address"
        },
        {
          "internalType": "string",
          "name": "submissionHash",
          "type": "string"
        },
        {
          "internalType": "uint256",
          "name": "createdAt",
          "type": "uint256"
        },
        {
          "internalType": "uint256",
          "name": "submissionCount",
          "type": "uint256"
        }
      ],
      "stateMutability": "view",
      "type": "function"
    },
    {
      "inputs": [
        {
          "internalType": "string",
          "name": "eventId",
          "type": "string"
        },
        {
          "internalType": "string",
          "name": "speakerId",
          "type": "string"
        },
        {
          "internalType": "string",
          "name": "description",
          "type": "string"
        },
        {
          "internalType": "uint256",
          "name": "deadline",
          "type": "uint256"
        }
      ],
      "name": "createBounty",
      "outputs": [],
      "stateMutability": "payable",
      "type": "function"
    },
    {
      "inputs": [
        {
          "internalType": "string",
          "name": "",
          "type": "string"
        },
        {
          "internalType": "uint256",
          "name": "",
          "type": "uint256"
        }
      ],
      "name": "eventBounties",
      "outputs": [
        {
          "internalType": "uint256",
          "name": "",
          "type": "uint256"
        }
      ],
      "stateMutability": "view",
      "type": "function"
    },
    {
      "inputs": [],
      "name": "feeRecipient",
      "outputs": [
        {
          "internalType": "address",
          "name": "",
          "type": "address"
        }
      ],
      "stateMutability": "view",
      "type": "function"
    },
    {
      "inputs": [
        {
          "internalType": "string",
          "name": "eventId",
          "type": "string"
        }
      ],
      "name": "getActiveBountiesForEvent",
      "outputs": [
        {
          "components": [
            {
              "internalType": "address",
              "name": "sponsor",
              "type": "address"
            },
            {
              "internalType": "uint256",
              "name": "reward",
              "type": "uint256"
            },
            {
              "internalType": "string",
              "name": "eventId",
              "type": "string"
            },
            {
              "internalType": "string",
              "name": "speakerId",
              "type": "string"
            },
            {
              "internalType": "string",
              "name": "description",
              "type": "string"
            },
            {
              "internalType": "uint256",
              "name": "deadline",
              "type": "uint256"
            },
            {
              "internalType": "bool",
              "name": "claimed",
              "type": "bool"
            },
            {
              "internalType": "address",
              "name": "claimant",
              "type": "address"
            },
            {
              "internalType": "string",
              "name": "submissionHash",
              "type": "string"
            },
            {
              "internalType": "uint256",
              "name": "createdAt",
              "type": "uint256"
            },
            {
              "internalType": "uint256",
              "name": "submissionCount",
              "type": "uint256"
            }
          ],
          "internalType": "struct MegaVibeBounties.Bounty[]",
          "name": "",
          "type": "tuple[]"
        }
      ],
      "stateMutability": "view",
      "type": "function"
    },
    {
      "inputs": [
        {
          "internalType": "uint256",
          "name": "bountyId",
          "type": "uint256"
        }
      ],
      "name": "getBounty",
      "outputs": [
        {
          "components": [
            {
              "internalType": "address",
              "name": "sponsor",
              "type": "address"
            },
            {
              "internalType": "uint256",
              "name": "reward",
              "type": "uint256"
            },
            {
              "internalType": "string",
              "name": "eventId",
              "type": "string"
            },
            {
              "internalType": "string",
              "name": "speakerId",
              "type": "string"
            },
            {
              "internalType": "string",
              "name": "description",
              "type": "string"
            },
            {
              "internalType": "uint256",
              "name": "deadline",
              "type": "uint256"
            },
            {
              "internalType": "bool",
              "name": "claimed",
              "type": "bool"
            },
            {
              "internalType": "address",
              "name": "claimant",
              "type": "address"
            },
            {
              "internalType": "string",
              "name": "submissionHash",
              "type": "string"
            },
            {
              "internalType": "uint256",
              "name": "createdAt",
              "type": "uint256"
            },
            {
              "internalType": "uint256",
              "name": "submissionCount",
              "type": "uint256"
            }
          ],
          "internalType": "struct MegaVibeBounties.Bounty",
          "name": "",
          "type": "tuple"
        }
      ],
      "stateMutability": "view",
      "type": "function"
    },
    {
      "inputs": [
        {
          "internalType": "uint256",
          "name": "bountyId",
          "type": "uint256"
        }
      ],
      "name": "getSubmissionsForBounty",
      "outputs": [
        {
          "components": [
            {
              "internalType": "address",
              "name": "claimant",
              "type": "address"
            },
            {
              "internalType": "string",
              "name": "submissionHash",
              "type": "string"
            },
            {
              "internalType": "enum MegaVibeBounties.SubmissionStatus",
              "name": "status",
              "type": "uint8"
            },
            {
              "internalType": "uint256",
              "name": "submittedAt",
              "type": "uint256"
            }
          ],
          "internalType": "struct MegaVibeBounties.Submission[]",
          "name": "",
          "type": "tuple[]"
        }
      ],
      "stateMutability": "view",
      "type": "function"
    },
    {
      "inputs": [],
      "name": "owner",
      "outputs": [
        {
          "internalType": "address",
          "name": "",
          "type": "address"
        }
      ],
      "stateMutability": "view",
      "type": "function"
    },
    {
      "inputs": [],
      "name": "platformFeeCollected",
      "outputs": [
        {
          "internalType": "uint256",
          "name": "",
          "type": "uint256"
        }
      ],
      "stateMutability": "view",
      "type": "function"
    },
    {
      "inputs": [
        {
          "internalType": "uint256",
          "name": "bountyId",
          "type": "uint256"
        },
        {
          "internalType": "uint256",
          "name": "submissionId",
          "type": "uint256"
        }
      ],
      "name": "rejectSubmission",
      "outputs": [],
      "stateMutability": "nonpayable",
      "type": "function"
    },
    {
      "inputs": [],
      "name": "renounceOwnership",
      "outputs": [],
      "stateMutability": "nonpayable",
      "type": "function"
    },
    {
      "inputs": [
        {
          "internalType": "address",
          "name": "",
          "type": "address"
        },
        {
          "internalType": "uint256",
          "name": "",
          "type": "uint256"
        }
      ],
      "name": "sponsorBounties",
      "outputs": [
        {
          "internalType": "uint256",
          "name": "",
          "type": "uint256"
        }
      ],
      "stateMutability": "view",
      "type": "function"
    },
    {
      "inputs": [],
      "name": "submissionStakeAmount",
      "outputs": [
        {
          "internalType": "uint256",
          "name": "",
          "type": "uint256"
        }
      ],
      "stateMutability": "view",
      "type": "function"
    },
    {
      "inputs": [
        {
          "internalType": "uint256",
          "name": "",
          "type": "uint256"
        },
        {
          "internalType": "uint256",
          "name": "",
          "type": "uint256"
        }
      ],
      "name": "submissions",
      "outputs": [
        {
          "internalType": "address",
          "name": "claimant",
          "type": "address"
        },
        {
          "internalType": "string",
          "name": "submissionHash",
          "type": "string"
        },
        {
          "internalType": "enum MegaVibeBounties.SubmissionStatus",
          "name": "status",
          "type": "uint8"
        },
        {
          "internalType": "uint256",
          "name": "submittedAt",
          "type": "uint256"
        }
      ],
      "stateMutability": "view",
      "type": "function"
    },
    {
      "inputs": [
        {
          "internalType": "uint256",
          "name": "bountyId",
          "type": "uint256"
        },
        {
          "internalType": "string",
          "name": "submissionHash",
          "type": "string"
        }
      ],
      "name": "submitForBounty",
      "outputs": [],
      "stateMutability": "payable",
      "type": "function"
    },
    {
      "inputs": [
        {
          "internalType": "address",
          "name": "newOwner",
          "type": "address"
        }
      ],
      "name": "transferOwnership",
      "outputs": [],
      "stateMutability": "nonpayable",
      "type": "function"
    }
  ],
  "bytecode": "0x6080604052670de0b6b3a76400006002553480156200001d57600080fd5b506040516200295a3803806200295a833981016040819052620000409162000149565b600160005533806200006d57604051631e4fbdf760e01b8152600060048201526024015b60405180910390fd5b6200007881620000f7565b506001600160a01b038116620000d15760405162461bcd60e51b815260206004820152601560248201527f496e76616c69642066656520726563697069656e740000000000000000000000604482015260640162000064565b600880546001600160a01b0319166001600160a01b03929092169190911790556200017b565b600180546001600160a01b038381166001600160a01b0319831681179093556040519116919082907f8be0079c531659141344cd1fd0a4f28419497f9722a3daafe3b4186f6b6457e090600090a35050565b6000602082840312156200015c57600080fd5b81516001600160a01b03811681146200017457600080fd5b9392505050565b6127cf806200018b6000396000f3fe60806040526004361061012a5760003560e01c8063758051bb116100ab578063d866164d1161006f578063d866164d14610317578063dc2f874414610337578063e1f1c4a71461036e578063ee8c4bbf14610384578063f2fde38b146103b1578063fa3bd3d6146103d157600080fd5b8063758051bb146102855780638da5cb5b146102b2578063ca5c5007146102d0578063ce02c3e4146102e6578063d5670525146102fc57600080fd5b8063539aa77f116100f2578063539aa77f1461020057806360e639421461021657806369c1fc2514610229578063715018a6146102595780637322ae371461026e57600080fd5b80631607be281461012f5780631ee75e13146101655780632d6c30081461017a57806337c551901461019a57806346904840146101c8575b600080fd5b34801561013b57600080fd5b5061014f61014a366004611f10565b6103f1565b60405161015c919061207b565b60405180910390f35b6101786101733660046120dd565b610969565b005b34801561018657600080fd5b50610178610195366004612124565b610be3565b3480156101a657600080fd5b506101ba6101b5366004612146565b610f76565b60405190815260200161015c565b3480156101d457600080fd5b506008546101e8906001600160a01b031681565b6040516001600160a01b03909116815260200161015c565b34801561020c57600080fd5b506101ba6101f481565b61017861022436600461218b565b610fb6565b34801561023557600080fd5b50610249610244366004612124565b6112bb565b60405161015c9493929190612253565b34801561026557600080fd5b5061017861139b565b34801561027a57600080fd5b506101ba62278d0081565b34801561029157600080fd5b506102a56102a0366004612295565b6113af565b60405161015c91906122ae565b3480156102be57600080fd5b506001546001600160a01b03166101e8565b3480156102dc57600080fd5b506101ba60075481565b3480156102f257600080fd5b506101ba60025481565b34801561030857600080fd5b506101ba66038d7ea4c6800081565b34801561032357600080fd5b50610178610332366004612124565b611506565b34801561034357600080fd5b50610357610352366004612295565b61170f565b60405161015c9b9a9998979695949392919061234e565b34801561037a57600080fd5b506101ba61271081565b34801561039057600080fd5b506103a461039f366004612295565b6119b1565b60405161015c91906123ec565b3480156103bd57600080fd5b506101786103cc366004612422565b611cfc565b3480156103dd57600080fd5b506101ba6103ec36600461243d565b611d3a565b606060006005836040516104059190612467565b908152604080519182900360209081018320805480830285018301909352828452919083018282801561045757602002820191906000526020600020905b815481526020019060010190808311610443575b505050505090506000805b825181101561051d57600383828151811061047f5761047f612483565b60200260200101518154811061049757610497612483565b600091825260209091206006600a90920201015460ff161580156104f8575060038382815181106104ca576104ca612483565b6020026020010151815481106104e2576104e2612483565b90600052602060002090600a0201600501544211155b1561050b5781610507816124af565b9250505b80610515816124af565b915050610462565b5060008167ffffffffffffffff81111561053957610539611e6d565b60405190808252806020026020018201604052801561057257816020015b61055f611dff565b8152602001906001900390816105575790505b5090506000805b845181101561095e57600385828151811061059657610596612483565b6020026020010151815481106105ae576105ae612483565b600091825260209091206006600a90920201015460ff1615801561060f575060038582815181106105e1576105e1612483565b6020026020010151815481106105f9576105f9612483565b90600052602060002090600a0201600501544211155b1561094c57600385828151811061062857610628612483565b60200260200101518154811061064057610640612483565b90600052602060002090600a0201604051806101600160405290816000820160009054906101000a90046001600160a01b03166001600160a01b03166001600160a01b03168152602001600182015481526020016002820180546106a3906124c8565b80601f01602080910402602001604051908101604052809291908181526020018280546106cf906124c8565b801561071c5780601f106106f15761010080835404028352916020019161071c565b820191906000526020600020905b8154815290600101906020018083116106ff57829003601f168201915b50505050508152602001600382018054610735906124c8565b80601f0160208091040260200160405190810160405280929190818152602001828054610761906124c8565b80156107ae5780601f10610783576101008083540402835291602001916107ae565b820191906000526020600020905b81548152906001019060200180831161079157829003601f168201915b505050505081526020016004820180546107c7906124c8565b80601f01602080910402602001604051908101604052809291908181526020018280546107f3906124c8565b80156108405780601f1061081557610100808354040283529160200191610840565b820191906000526020600020905b81548152906001019060200180831161082357829003601f168201915b505050918352505060058201546020820152600682015460ff81161515604083015261010090046001600160a01b0316606082015260078201805460809092019161088a906124c8565b80601f01602080910402602001604051908101604052809291908181526020018280546108b6906124c8565b80156109035780601f106108d857610100808354040283529160200191610903565b820191906000526020600020905b8154815290600101906020018083116108e657829003601f168201915b505050505081526020016008820154815260200160098201548152505083838151811061093257610932612483565b60200260200101819052508180610948906124af565b9250505b80610956816124af565b915050610579565b509095945050505050565b610971611d56565b60035482106109bf5760405162461bcd60e51b8152602060048201526015602482015274109bdd5b9d1e48191bd95cc81b9bdd08195e1a5cdd605a1b60448201526064015b60405180910390fd5b6002543414610a095760405162461bcd60e51b8152602060048201526016602482015275125b98dbdc9c9958dd081cdd185ad948185b5bdd5b9d60521b60448201526064016109b6565b600060038381548110610a1e57610a1e612483565b60009182526020909120600a90910201600681015490915060ff1615610a7f5760405162461bcd60e51b8152602060048201526016602482015275109bdd5b9d1e48185b1c9958591e4818db185a5b595960521b60448201526064016109b6565b8060050154421115610ac85760405162461bcd60e51b8152602060048201526012602482015271109bdd5b9d1e481a185cc8195e1c1a5c995960721b60448201526064016109b6565b600083815260046020818152604080842080548251608081018452338152808501898152938101879052426060820152600180830184559287529390952083519486020180546001600160a01b0319166001600160a01b03909516949094178455905191929190820190610b3c9082612551565b5060408201518160020160006101000a81548160ff02191690836002811115610b6757610b6761221b565b021790555060609190910151600390910155600982018054906000610b8b836124af565b9190505550336001600160a01b031681857f85bcf2527a5fdef6845067401b0d8362fa9bb86dddb0701e52ed9d02fd014c6586604051610bcb9190612611565b60405180910390a45050610bdf6001600055565b5050565b610beb611d56565b600060038381548110610c0057610c00612483565b60009182526020909120600a9091020180549091506001600160a01b03163314610c6c5760405162461bcd60e51b815260206004820152601c60248201527f4f6e6c79207468652073706f6e736f722063616e20617070726f76650000000060448201526064016109b6565b600681015460ff1615610cba5760405162461bcd60e51b8152602060048201526016602482015275109bdd5b9d1e48185b1c9958591e4818db185a5b595960521b60448201526064016109b6565b6000838152600460205260408120805484908110610cda57610cda612483565b600091825260208220600490910201915060028083015460ff1690811115610d0457610d0461221b565b14610d4a5760405162461bcd60e51b81526020600482015260166024820152755375626d697373696f6e206e6f742070656e64696e6760501b60448201526064016109b6565b60068201805460ff1981166001908117835583546001600160a01b0316610100026001600160a81b03199092169190911781179091556007830190610d9190830182612624565b5060028101805460ff1916600190811790915582015460009061271090610dbb906101f4906126ff565b610dc5919061271c565b90508060076000828254610dd9919061273e565b90915550506001830154600090610df1908390612751565b83546040519192506000916001600160a01b039091169083908381818185875af1925050503d8060008114610e42576040519150601f19603f3d011682016040523d82523d6000602084013e610e47565b606091505b5050905080610e915760405162461bcd60e51b815260206004820152601660248201527514995dd85c99081d1c985b9cd9995c8819985a5b195960521b60448201526064016109b6565b83546002546040516001600160a01b0390921691600081818185875af1925050503d8060008114610ede576040519150601f19603f3d011682016040523d82523d6000602084013e610ee3565b606091505b50508091505080610f2c5760405162461bcd60e51b815260206004820152601360248201527214dd185ad9481c99599d5b990819985a5b1959606a1b60448201526064016109b6565b83546040516001600160a01b0390911690879089907f79ed1a93ce019803ed4c604b35cec8bbb8be532a8afdc6cf0296ba024362caa690600090a45050505050610bdf6001600055565b81516020818401810180516005825292820191850191909120919052805482908110610fa157600080fd5b90600052602060002001600091509150505481565b610fbe611d56565b66038d7ea4c680003410156110155760405162461bcd60e51b815260206004820152601760248201527f426f756e747920616d6f756e7420746f6f20736d616c6c00000000000000000060448201526064016109b6565b4281116110645760405162461bcd60e51b815260206004820152601e60248201527f446561646c696e65206d75737420626520696e2074686520667574757265000060448201526064016109b6565b6003805460408051610160810182523381523460208083019182528284018a8152606084018a90526080840189905260a08401889052600060c0850181905260e0850181905285519283019095528482526101008401919091524261012084015261014083018490526001850186559490925280517fc2575a0e9e593c00f959f8c92f12db2869c3395a3b0502d05e2516446f71f85b600a850290810180546001600160a01b0319166001600160a01b0390931692909217825592517fc2575a0e9e593c00f959f8c92f12db2869c3395a3b0502d05e2516446f71f85c84015593519293909290917fc2575a0e9e593c00f959f8c92f12db2869c3395a3b0502d05e2516446f71f85d01906111799082612551565b506060820151600382019061118e9082612551565b50608082015160048201906111a39082612551565b5060a0820151600582015560c082015160068201805460e08501516001600160a81b0319909116921515610100600160a81b031916929092176101006001600160a01b03909316830217905582015160078201906112019082612551565b5061012082015181600801556101408201518160090155505060058560405161122a9190612467565b90815260408051918290036020908101832080546001818101835560009283528383209091018690553380835260068452938220805491820181558252919020018390559082907ffc7543486d92b5df2aa4696eb0ba61680a20f9c19149f641a701e690a8c333e0906112a29034908a908a90612764565b60405180910390a3506112b56001600055565b50505050565b600460205281600052604060002081815481106112d757600080fd5b6000918252602090912060049091020180546001820180546001600160a01b039092169450919250611308906124c8565b80601f0160208091040260200160405190810160405280929190818152602001828054611334906124c8565b80156113815780601f1061135657610100808354040283529160200191611381565b820191906000526020600020905b81548152906001019060200180831161136457829003601f168201915b505050506002830154600390930154919260ff1691905084565b6113a3611d80565b6113ad6000611dad565b565b606060046000838152602001908152602001600020805480602002602001604051908101604052809291908181526020016000905b828210156114fb57600084815260209081902060408051608081019091526004850290910180546001600160a01b03168252600181018054929391929184019161142d906124c8565b80601f0160208091040260200160405190810160405280929190818152602001828054611459906124c8565b80156114a65780601f1061147b576101008083540402835291602001916114a6565b820191906000526020600020905b81548152906001019060200180831161148957829003601f168201915b505050918352505060028281015460209092019160ff16908111156114cd576114cd61221b565b60028111156114de576114de61221b565b8152602001600382015481525050815260200190600101906113e4565b505050509050919050565b61150e611d56565b60006003838154811061152357611523612483565b60009182526020909120600a9091020180549091506001600160a01b0316331461158f5760405162461bcd60e51b815260206004820152601b60248201527f4f6e6c79207468652073706f6e736f722063616e2072656a656374000000000060448201526064016109b6565b60008381526004602052604081208054849081106115af576115af612483565b600091825260208220600490910201915060028083015460ff16908111156115d9576115d961221b565b1461161f5760405162461bcd60e51b81526020600482015260166024820152755375626d697373696f6e206e6f742070656e64696e6760501b60448201526064016109b6565b6002818101805460ff191682179055815490546040516000926001600160a01b031691908381818185875af1925050503d806000811461167b576040519150601f19603f3d011682016040523d82523d6000602084013e611680565b606091505b50509050806116c75760405162461bcd60e51b815260206004820152601360248201527214dd185ad9481c99599d5b990819985a5b1959606a1b60448201526064016109b6565b81546040516001600160a01b0390911690859087907f0c85652d2ac95894ed3aa3311d30cef8a307693957451a95f4b7ace387907c2a90600090a4505050610bdf6001600055565b6003818154811061171f57600080fd5b60009182526020909120600a90910201805460018201546002830180546001600160a01b039093169450909291611755906124c8565b80601f0160208091040260200160405190810160405280929190818152602001828054611781906124c8565b80156117ce5780601f106117a3576101008083540402835291602001916117ce565b820191906000526020600020905b8154815290600101906020018083116117b157829003601f168201915b5050505050908060030180546117e3906124c8565b80601f016020809104026020016040519081016040528092919081815260200182805461180f906124c8565b801561185c5780601f106118315761010080835404028352916020019161185c565b820191906000526020600020905b81548152906001019060200180831161183f57829003601f168201915b505050505090806004018054611871906124c8565b80601f016020809104026020016040519081016040528092919081815260200182805461189d906124c8565b80156118ea5780601f106118bf576101008083540402835291602001916118ea565b820191906000526020600020905b8154815290600101906020018083116118cd57829003601f168201915b50505050600583015460068401546007850180549495929460ff831694506101009092046001600160a01b03169291611922906124c8565b80601f016020809104026020016040519081016040528092919081815260200182805461194e906124c8565b801561199b5780601f106119705761010080835404028352916020019161199b565b820191906000526020600020905b81548152906001019060200180831161197e57829003601f168201915b505050505090806008015490806009015490508b565b6119b9611dff565b6003548210611a025760405162461bcd60e51b8152602060048201526015602482015274109bdd5b9d1e48191bd95cc81b9bdd08195e1a5cdd605a1b60448201526064016109b6565b60038281548110611a1557611a15612483565b90600052602060002090600a0201604051806101600160405290816000820160009054906101000a90046001600160a01b03166001600160a01b03166001600160a01b0316815260200160018201548152602001600282018054611a78906124c8565b80601f0160208091040260200160405190810160405280929190818152602001828054611aa4906124c8565b8015611af15780601f10611ac657610100808354040283529160200191611af1565b820191906000526020600020905b815481529060010190602001808311611ad457829003601f168201915b50505050508152602001600382018054611b0a906124c8565b80601f0160208091040260200160405190810160405280929190818152602001828054611b36906124c8565b8015611b835780601f10611b5857610100808354040283529160200191611b83565b820191906000526020600020905b815481529060010190602001808311611b6657829003601f168201915b50505050508152602001600482018054611b9c906124c8565b80601f0160208091040260200160405190810160405280929190818152602001828054611bc8906124c8565b8015611c155780601f10611bea57610100808354040283529160200191611c15565b820191906000526020600020905b815481529060010190602001808311611bf857829003601f168201915b505050918352505060058201546020820152600682015460ff81161515604083015261010090046001600160a01b03166060820152600782018054608090920191611c5f906124c8565b80601f0160208091040260200160405190810160405280929190818152602001828054611c8b906124c8565b8015611cd85780601f10611cad57610100808354040283529160200191611cd8565b820191906000526020600020905b815481529060010190602001808311611cbb57829003601f168201915b50505050508152602001600882015481526020016009820154815250509050919050565b611d04611d80565b6001600160a01b038116611d2e57604051631e4fbdf760e01b8152600060048201526024016109b6565b611d3781611dad565b50565b60066020528160005260406000208181548110610fa157600080fd5b600260005403611d7957604051633ee5aeb560e01b815260040160405180910390fd5b6002600055565b6001546001600160a01b031633146113ad5760405163118cdaa760e01b81523360048201526024016109b6565b600180546001600160a01b038381166001600160a01b0319831681179093556040519116919082907f8be0079c531659141344cd1fd0a4f28419497f9722a3daafe3b4186f6b6457e090600090a35050565b60405180610160016040528060006001600160a01b03168152602001600081526020016060815260200160608152602001606081526020016000815260200160001515815260200160006001600160a01b031681526020016060815260200160008152602001600081525090565b634e487b7160e01b600052604160045260246000fd5b600082601f830112611e9457600080fd5b813567ffffffffffffffff80821115611eaf57611eaf611e6d565b604051601f8301601f19908116603f01168101908282118183101715611ed757611ed7611e6d565b81604052838152866020858801011115611ef057600080fd5b836020870160208301376000602085830101528094505050505092915050565b600060208284031215611f2257600080fd5b813567ffffffffffffffff811115611f3957600080fd5b611f4584828501611e83565b949350505050565b60005b83811015611f68578181015183820152602001611f50565b50506000910152565b60008151808452611f89816020860160208601611f4d565b601f01601f19169290920160200192915050565b80516001600160a01b031682526000610160602083015160208501526040830151816040860152611fd082860182611f71565b91505060608301518482036060860152611fea8282611f71565b915050608083015184820360808601526120048282611f71565b91505060a083015160a085015260c083015161202460c086018215159052565b5060e083015161203f60e08601826001600160a01b03169052565b5061010080840151858303828701526120588382611f71565b610120868101519088015261014095860151959096019490945250929392505050565b6000602080830181845280855180835260408601915060408160051b870101925083870160005b828110156120d057603f198886030184526120be858351611f9d565b945092850192908501906001016120a2565b5092979650505050505050565b600080604083850312156120f057600080fd5b82359150602083013567ffffffffffffffff81111561210e57600080fd5b61211a85828601611e83565b9150509250929050565b6000806040838503121561213757600080fd5b50508035926020909101359150565b6000806040838503121561215957600080fd5b823567ffffffffffffffff81111561217057600080fd5b61217c85828601611e83565b95602094909401359450505050565b600080600080608085870312156121a157600080fd5b843567ffffffffffffffff808211156121b957600080fd5b6121c588838901611e83565b955060208701359150808211156121db57600080fd5b6121e788838901611e83565b945060408701359150808211156121fd57600080fd5b5061220a87828801611e83565b949793965093946060013593505050565b634e487b7160e01b600052602160045260246000fd5b6003811061224f57634e487b7160e01b600052602160045260246000fd5b9052565b6001600160a01b038516815260806020820181905260009061227790830186611f71565b90506122866040830185612231565b82606083015295945050505050565b6000602082840312156122a757600080fd5b5035919050565b60006020808301818452808551808352604092508286019150828160051b87010184880160005b8381101561234057888303603f19018552815180516001600160a01b031684528781015160808986018190529061230e82870182611f71565b9150508782015161232189870182612231565b50606091820151949091019390935293860193908601906001016122d5565b509098975050505050505050565b6001600160a01b038c81168252602082018c90526101606040830181905260009161237b8483018e611f71565b9150838203606085015261238f828d611f71565b915083820360808501526123a3828c611f71565b91508960a085015288151560c085015280881660e0850152508281036101008401526123cf8187611f71565b610120840195909552505061014001529998505050505050505050565b6020815260006123ff6020830184611f9d565b9392505050565b80356001600160a01b038116811461241d57600080fd5b919050565b60006020828403121561243457600080fd5b6123ff82612406565b6000806040838503121561245057600080fd5b61245983612406565b946020939093013593505050565b60008251612479818460208701611f4d565b9190910192915050565b634e487b7160e01b600052603260045260246000fd5b634e487b7160e01b600052601160045260246000fd5b6000600182016124c1576124c1612499565b5060010190565b600181811c908216806124dc57607f821691505b6020821081036124fc57634e487b7160e01b600052602260045260246000fd5b50919050565b601f82111561254c57600081815260208120601f850160051c810160208610156125295750805b601f850160051c820191505b8181101561254857828155600101612535565b5050505b505050565b815167ffffffffffffffff81111561256b5761256b611e6d565b61257f8161257984546124c8565b84612502565b602080601f8311600181146125b4576000841561259c5750858301515b600019600386901b1c1916600185901b178555612548565b600085815260208120601f198616915b828110156125e3578886015182559484019460019091019084016125c4565b50858210156126015787850151600019600388901b60f8161c191681555b5050505050600190811b01905550565b6020815260006123ff6020830184611f71565b81810361262f575050565b61263982546124c8565b67ffffffffffffffff81111561265157612651611e6d565b61265f8161257984546124c8565b6000601f821160018114612693576000831561267b5750848201545b600019600385901b1c1916600184901b1784556126f8565b600085815260209020601f19841690600086815260209020845b838110156126cd57828601548255600195860195909101906020016126ad565b50858310156126eb5781850154600019600388901b60f8161c191681555b50505060018360011b0184555b5050505050565b808202811582820484141761271657612716612499565b92915050565b60008261273957634e487b7160e01b600052601260045260246000fd5b500490565b8082018082111561271657612716612499565b8181038181111561271657612716612499565b83815260606020820152600061277d6060830185611f71565b828103604084015261278f8185611f71565b969550505050505056fea26469706673582212203bfd68898e46efb2595e0445ab466d8fcc9cde01cbc14bc69bbb40e27fd75d4f64736f6c63430008140033",
  "linkReferences": {},
  "deployedLinkReferences": {}
}