{
  "_format": "hh-sol-artifact-1",
  "contractName": "MegaVibeBounties",
  "sourceName": "contracts/MegaVibeBounties.sol",
  "abi": [
    {
      "inputs": [
        {
          "internalType": "address",
          "name": "_feeRecipient",
          "type": "address"
        },
        {
          "internalType": "address",
          "name": "_usdcTokenAddress",
          "type": "address"
        },
        {
          "internalType": "address",
          "name": "_reputationContract",
          "type": "address"
        },
        {
          "internalType": "address",
          "name": "_emergencyRecoveryAddress",
          "type": "address"
        }
      ],
      "stateMutability": "nonpayable",
      "type": "constructor"
    },
    {
      "inputs": [],
      "name": "EnforcedPause",
      "type": "error"
    },
    {
      "inputs": [],
      "name": "ExpectedPause",
      "type": "error"
    },
    {
      "inputs": [
        {
          "internalType": "address",
          "name": "owner",
          "type": "address"
        }
      ],
      "name": "OwnableInvalidOwner",
      "type": "error"
    },
    {
      "inputs": [
        {
          "internalType": "address",
          "name": "account",
          "type": "address"
        }
      ],
      "name": "OwnableUnauthorizedAccount",
      "type": "error"
    },
    {
      "inputs": [],
      "name": "ReentrancyGuardReentrantCall",
      "type": "error"
    },
    {
      "anonymous": false,
      "inputs": [
        {
          "indexed": true,
          "internalType": "uint256",
          "name": "bountyId",
          "type": "uint256"
        },
        {
          "indexed": true,
          "internalType": "address",
          "name": "sponsor",
          "type": "address"
        },
        {
          "indexed": false,
          "internalType": "uint256",
          "name": "reward",
          "type": "uint256"
        },
        {
          "indexed": false,
          "internalType": "string",
          "name": "eventId",
          "type": "string"
        },
        {
          "indexed": false,
          "internalType": "string",
          "name": "speakerId",
          "type": "string"
        }
      ],
      "name": "BountyCreated",
      "type": "event"
    },
    {
      "anonymous": false,
      "inputs": [
        {
          "indexed": true,
          "internalType": "uint256",
          "name": "bountyId",
          "type": "uint256"
        },
        {
          "indexed": true,
          "internalType": "address",
          "name": "sponsor",
          "type": "address"
        },
        {
          "indexed": false,
          "internalType": "uint256",
          "name": "amount",
          "type": "uint256"
        }
      ],
      "name": "BountyStakeRefunded",
      "type": "event"
    },
    {
      "anonymous": false,
      "inputs": [
        {
          "indexed": true,
          "internalType": "address",
          "name": "oldAddress",
          "type": "address"
        },
        {
          "indexed": true,
          "internalType": "address",
          "name": "newAddress",
          "type": "address"
        }
      ],
      "name": "EmergencyRecoveryUpdated",
      "type": "event"
    },
    {
      "anonymous": false,
      "inputs": [
        {
          "indexed": true,
          "internalType": "address",
          "name": "previousOwner",
          "type": "address"
        },
        {
          "indexed": true,
          "internalType": "address",
          "name": "newOwner",
          "type": "address"
        }
      ],
      "name": "OwnershipTransferred",
      "type": "event"
    },
    {
      "anonymous": false,
      "inputs": [
        {
          "indexed": false,
          "internalType": "string",
          "name": "parameter",
          "type": "string"
        },
        {
          "indexed": false,
          "internalType": "uint256",
          "name": "oldValue",
          "type": "uint256"
        },
        {
          "indexed": false,
          "internalType": "uint256",
          "name": "newValue",
          "type": "uint256"
        }
      ],
      "name": "ParameterChangeExecuted",
      "type": "event"
    },
    {
      "anonymous": false,
      "inputs": [
        {
          "indexed": false,
          "internalType": "string",
          "name": "parameter",
          "type": "string"
        },
        {
          "indexed": false,
          "internalType": "uint256",
          "name": "value",
          "type": "uint256"
        },
        {
          "indexed": false,
          "internalType": "uint256",
          "name": "executeAfter",
          "type": "uint256"
        }
      ],
      "name": "ParameterChangeProposed",
      "type": "event"
    },
    {
      "anonymous": false,
      "inputs": [
        {
          "indexed": false,
          "internalType": "address",
          "name": "account",
          "type": "address"
        }
      ],
      "name": "Paused",
      "type": "event"
    },
    {
      "anonymous": false,
      "inputs": [
        {
          "indexed": true,
          "internalType": "uint256",
          "name": "bountyId",
          "type": "uint256"
        },
        {
          "indexed": true,
          "internalType": "uint256",
          "name": "submissionId",
          "type": "uint256"
        },
        {
          "indexed": true,
          "internalType": "address",
          "name": "claimant",
          "type": "address"
        }
      ],
      "name": "SubmissionApproved",
      "type": "event"
    },
    {
      "anonymous": false,
      "inputs": [
        {
          "indexed": true,
          "internalType": "uint256",
          "name": "bountyId",
          "type": "uint256"
        },
        {
          "indexed": true,
          "internalType": "uint256",
          "name": "submissionId",
          "type": "uint256"
        },
        {
          "indexed": true,
          "internalType": "address",
          "name": "claimant",
          "type": "address"
        },
        {
          "indexed": false,
          "internalType": "string",
          "name": "submissionHash",
          "type": "string"
        }
      ],
      "name": "SubmissionReceived",
      "type": "event"
    },
    {
      "anonymous": false,
      "inputs": [
        {
          "indexed": true,
          "internalType": "uint256",
          "name": "bountyId",
          "type": "uint256"
        },
        {
          "indexed": true,
          "internalType": "uint256",
          "name": "submissionId",
          "type": "uint256"
        },
        {
          "indexed": true,
          "internalType": "address",
          "name": "claimant",
          "type": "address"
        }
      ],
      "name": "SubmissionRejected",
      "type": "event"
    },
    {
      "anonymous": false,
      "inputs": [
        {
          "indexed": false,
          "internalType": "address",
          "name": "account",
          "type": "address"
        }
      ],
      "name": "Unpaused",
      "type": "event"
    },
    {
      "inputs": [],
      "name": "BASIS_POINTS",
      "outputs": [
        {
          "internalType": "uint256",
          "name": "",
          "type": "uint256"
        }
      ],
      "stateMutability": "view",
      "type": "function"
    },
    {
      "inputs": [],
      "name": "TIMELOCK_DURATION",
      "outputs": [
        {
          "internalType": "uint256",
          "name": "",
          "type": "uint256"
        }
      ],
      "stateMutability": "view",
      "type": "function"
    },
    {
      "inputs": [
        {
          "internalType": "uint256",
          "name": "bountyId",
          "type": "uint256"
        },
        {
          "internalType": "uint256",
          "name": "submissionId",
          "type": "uint256"
        }
      ],
      "name": "approveSubmission",
      "outputs": [],
      "stateMutability": "nonpayable",
      "type": "function"
    },
    {
      "inputs": [
        {
          "internalType": "uint256",
          "name": "",
          "type": "uint256"
        }
      ],
      "name": "bounties",
      "outputs": [
        {
          "internalType": "address",
          "name": "sponsor",
          "type": "address"
        },
        {
          "internalType": "uint256",
          "name": "reward",
          "type": "uint256"
        },
        {
          "internalType": "string",
          "name": "eventId",
          "type": "string"
        },
        {
          "internalType": "string",
          "name": "speakerId",
          "type": "string"
        },
        {
          "internalType": "string",
          "name": "description",
          "type": "string"
        },
        {
          "internalType": "uint256",
          "name": "deadline",
          "type": "uint256"
        },
        {
          "internalType": "bool",
          "name": "claimed",
          "type": "bool"
        },
        {
          "internalType": "address",
          "name": "claimant",
          "type": "address"
        },
        {
          "internalType": "string",
          "name": "submissionHash",
          "type": "string"
        },
        {
          "internalType": "uint256",
          "name": "createdAt",
          "type": "uint256"
        },
        {
          "internalType": "uint256",
          "name": "submissionCount",
          "type": "uint256"
        }
      ],
      "stateMutability": "view",
      "type": "function"
    },
    {
      "inputs": [
        {
          "internalType": "uint256",
          "name": "bountyId",
          "type": "uint256"
        }
      ],
      "name": "cancelBounty",
      "outputs": [],
      "stateMutability": "nonpayable",
      "type": "function"
    },
    {
      "inputs": [
        {
          "internalType": "address",
          "name": "",
          "type": "address"
        },
        {
          "internalType": "uint256",
          "name": "",
          "type": "uint256"
        }
      ],
      "name": "claimantSubmissions",
      "outputs": [
        {
          "internalType": "uint256",
          "name": "",
          "type": "uint256"
        }
      ],
      "stateMutability": "view",
      "type": "function"
    },
    {
      "inputs": [
        {
          "internalType": "uint256",
          "name": "bountyAmount",
          "type": "uint256"
        },
        {
          "internalType": "string",
          "name": "eventId",
          "type": "string"
        },
        {
          "internalType": "string",
          "name": "speakerId",
          "type": "string"
        },
        {
          "internalType": "string",
          "name": "description",
          "type": "string"
        },
        {
          "internalType": "uint256",
          "name": "deadline",
          "type": "uint256"
        }
      ],
      "name": "createBounty",
      "outputs": [],
      "stateMutability": "nonpayable",
      "type": "function"
    },
    {
      "inputs": [],
      "name": "emergencyRecoveryAddress",
      "outputs": [
        {
          "internalType": "address",
          "name": "",
          "type": "address"
        }
      ],
      "stateMutability": "view",
      "type": "function"
    },
    {
      "inputs": [
        {
          "internalType": "address",
          "name": "token",
          "type": "address"
        },
        {
          "internalType": "uint256",
          "name": "amount",
          "type": "uint256"
        }
      ],
      "name": "emergencyWithdraw",
      "outputs": [],
      "stateMutability": "nonpayable",
      "type": "function"
    },
    {
      "inputs": [
        {
          "internalType": "string",
          "name": "",
          "type": "string"
        },
        {
          "internalType": "uint256",
          "name": "",
          "type": "uint256"
        }
      ],
      "name": "eventBounties",
      "outputs": [
        {
          "internalType": "uint256",
          "name": "",
          "type": "uint256"
        }
      ],
      "stateMutability": "view",
      "type": "function"
    },
    {
      "inputs": [
        {
          "internalType": "string",
          "name": "parameterName",
          "type": "string"
        }
      ],
      "name": "executeParameterChange",
      "outputs": [],
      "stateMutability": "nonpayable",
      "type": "function"
    },
    {
      "inputs": [],
      "name": "feeRecipient",
      "outputs": [
        {
          "internalType": "address",
          "name": "",
          "type": "address"
        }
      ],
      "stateMutability": "view",
      "type": "function"
    },
    {
      "inputs": [
        {
          "internalType": "string",
          "name": "eventId",
          "type": "string"
        }
      ],
      "name": "getActiveBountiesForEvent",
      "outputs": [
        {
          "components": [
            {
              "internalType": "address",
              "name": "sponsor",
              "type": "address"
            },
            {
              "internalType": "uint256",
              "name": "reward",
              "type": "uint256"
            },
            {
              "internalType": "string",
              "name": "eventId",
              "type": "string"
            },
            {
              "internalType": "string",
              "name": "speakerId",
              "type": "string"
            },
            {
              "internalType": "string",
              "name": "description",
              "type": "string"
            },
            {
              "internalType": "uint256",
              "name": "deadline",
              "type": "uint256"
            },
            {
              "internalType": "bool",
              "name": "claimed",
              "type": "bool"
            },
            {
              "internalType": "address",
              "name": "claimant",
              "type": "address"
            },
            {
              "internalType": "string",
              "name": "submissionHash",
              "type": "string"
            },
            {
              "internalType": "uint256",
              "name": "createdAt",
              "type": "uint256"
            },
            {
              "internalType": "uint256",
              "name": "submissionCount",
              "type": "uint256"
            }
          ],
          "internalType": "struct IBounty.Bounty[]",
          "name": "",
          "type": "tuple[]"
        }
      ],
      "stateMutability": "view",
      "type": "function"
    },
    {
      "inputs": [
        {
          "internalType": "address",
          "name": "sponsor",
          "type": "address"
        }
      ],
      "name": "getBountiesBySponsor",
      "outputs": [
        {
          "internalType": "uint256[]",
          "name": "",
          "type": "uint256[]"
        }
      ],
      "stateMutability": "view",
      "type": "function"
    },
    {
      "inputs": [
        {
          "internalType": "uint256",
          "name": "bountyId",
          "type": "uint256"
        }
      ],
      "name": "getBounty",
      "outputs": [
        {
          "components": [
            {
              "internalType": "address",
              "name": "sponsor",
              "type": "address"
            },
            {
              "internalType": "uint256",
              "name": "reward",
              "type": "uint256"
            },
            {
              "internalType": "string",
              "name": "eventId",
              "type": "string"
            },
            {
              "internalType": "string",
              "name": "speakerId",
              "type": "string"
            },
            {
              "internalType": "string",
              "name": "description",
              "type": "string"
            },
            {
              "internalType": "uint256",
              "name": "deadline",
              "type": "uint256"
            },
            {
              "internalType": "bool",
              "name": "claimed",
              "type": "bool"
            },
            {
              "internalType": "address",
              "name": "claimant",
              "type": "address"
            },
            {
              "internalType": "string",
              "name": "submissionHash",
              "type": "string"
            },
            {
              "internalType": "uint256",
              "name": "createdAt",
              "type": "uint256"
            },
            {
              "internalType": "uint256",
              "name": "submissionCount",
              "type": "uint256"
            }
          ],
          "internalType": "struct IBounty.Bounty",
          "name": "",
          "type": "tuple"
        }
      ],
      "stateMutability": "view",
      "type": "function"
    },
    {
      "inputs": [],
      "name": "getContractParameters",
      "outputs": [
        {
          "internalType": "uint256",
          "name": "_platformFeeBps",
          "type": "uint256"
        },
        {
          "internalType": "uint256",
          "name": "_minBountyAmount",
          "type": "uint256"
        },
        {
          "internalType": "uint256",
          "name": "_submissionStakeAmount",
          "type": "uint256"
        },
        {
          "internalType": "uint256",
          "name": "_maxDeadlineDuration",
          "type": "uint256"
        }
      ],
      "stateMutability": "view",
      "type": "function"
    },
    {
      "inputs": [
        {
          "internalType": "string",
          "name": "eventId",
          "type": "string"
        },
        {
          "internalType": "uint256",
          "name": "offset",
          "type": "uint256"
        },
        {
          "internalType": "uint256",
          "name": "limit",
          "type": "uint256"
        }
      ],
      "name": "getPaginatedActiveBounties",
      "outputs": [
        {
          "components": [
            {
              "internalType": "address",
              "name": "sponsor",
              "type": "address"
            },
            {
              "internalType": "uint256",
              "name": "reward",
              "type": "uint256"
            },
            {
              "internalType": "string",
              "name": "eventId",
              "type": "string"
            },
            {
              "internalType": "string",
              "name": "speakerId",
              "type": "string"
            },
            {
              "internalType": "string",
              "name": "description",
              "type": "string"
            },
            {
              "internalType": "uint256",
              "name": "deadline",
              "type": "uint256"
            },
            {
              "internalType": "bool",
              "name": "claimed",
              "type": "bool"
            },
            {
              "internalType": "address",
              "name": "claimant",
              "type": "address"
            },
            {
              "internalType": "string",
              "name": "submissionHash",
              "type": "string"
            },
            {
              "internalType": "uint256",
              "name": "createdAt",
              "type": "uint256"
            },
            {
              "internalType": "uint256",
              "name": "submissionCount",
              "type": "uint256"
            }
          ],
          "internalType": "struct IBounty.Bounty[]",
          "name": "",
          "type": "tuple[]"
        }
      ],
      "stateMutability": "view",
      "type": "function"
    },
    {
      "inputs": [
        {
          "internalType": "uint256",
          "name": "bountyId",
          "type": "uint256"
        },
        {
          "internalType": "uint256",
          "name": "offset",
          "type": "uint256"
        },
        {
          "internalType": "uint256",
          "name": "limit",
          "type": "uint256"
        }
      ],
      "name": "getPaginatedSubmissions",
      "outputs": [
        {
          "components": [
            {
              "internalType": "address",
              "name": "claimant",
              "type": "address"
            },
            {
              "internalType": "string",
              "name": "submissionHash",
              "type": "string"
            },
            {
              "internalType": "enum IBounty.SubmissionStatus",
              "name": "status",
              "type": "uint8"
            },
            {
              "internalType": "uint256",
              "name": "submittedAt",
              "type": "uint256"
            }
          ],
          "internalType": "struct IBounty.Submission[]",
          "name": "",
          "type": "tuple[]"
        }
      ],
      "stateMutability": "view",
      "type": "function"
    },
    {
      "inputs": [
        {
          "internalType": "string",
          "name": "parameterName",
          "type": "string"
        }
      ],
      "name": "getParameterProposalStatus",
      "outputs": [
        {
          "internalType": "uint256",
          "name": "value",
          "type": "uint256"
        },
        {
          "internalType": "uint256",
          "name": "timestamp",
          "type": "uint256"
        },
        {
          "internalType": "bool",
          "name": "executed",
          "type": "bool"
        },
        {
          "internalType": "bool",
          "name": "canExecute",
          "type": "bool"
        }
      ],
      "stateMutability": "view",
      "type": "function"
    },
    {
      "inputs": [
        {
          "internalType": "address",
          "name": "claimant",
          "type": "address"
        }
      ],
      "name": "getSubmissionsByClaimant",
      "outputs": [
        {
          "internalType": "uint256[]",
          "name": "",
          "type": "uint256[]"
        }
      ],
      "stateMutability": "view",
      "type": "function"
    },
    {
      "inputs": [
        {
          "internalType": "uint256",
          "name": "bountyId",
          "type": "uint256"
        }
      ],
      "name": "getSubmissionsForBounty",
      "outputs": [
        {
          "components": [
            {
              "internalType": "address",
              "name": "claimant",
              "type": "address"
            },
            {
              "internalType": "string",
              "name": "submissionHash",
              "type": "string"
            },
            {
              "internalType": "enum IBounty.SubmissionStatus",
              "name": "status",
              "type": "uint8"
            },
            {
              "internalType": "uint256",
              "name": "submittedAt",
              "type": "uint256"
            }
          ],
          "internalType": "struct IBounty.Submission[]",
          "name": "",
          "type": "tuple[]"
        }
      ],
      "stateMutability": "view",
      "type": "function"
    },
    {
      "inputs": [],
      "name": "getTotalBounties",
      "outputs": [
        {
          "internalType": "uint256",
          "name": "",
          "type": "uint256"
        }
      ],
      "stateMutability": "view",
      "type": "function"
    },
    {
      "inputs": [],
      "name": "maxDeadlineDuration",
      "outputs": [
        {
          "internalType": "uint256",
          "name": "",
          "type": "uint256"
        }
      ],
      "stateMutability": "view",
      "type": "function"
    },
    {
      "inputs": [],
      "name": "minBountyAmount",
      "outputs": [
        {
          "internalType": "uint256",
          "name": "",
          "type": "uint256"
        }
      ],
      "stateMutability": "view",
      "type": "function"
    },
    {
      "inputs": [],
      "name": "owner",
      "outputs": [
        {
          "internalType": "address",
          "name": "",
          "type": "address"
        }
      ],
      "stateMutability": "view",
      "type": "function"
    },
    {
      "inputs": [
        {
          "internalType": "string",
          "name": "",
          "type": "string"
        }
      ],
      "name": "parameterProposals",
      "outputs": [
        {
          "internalType": "uint256",
          "name": "value",
          "type": "uint256"
        },
        {
          "internalType": "uint256",
          "name": "timestamp",
          "type": "uint256"
        },
        {
          "internalType": "bool",
          "name": "executed",
          "type": "bool"
        }
      ],
      "stateMutability": "view",
      "type": "function"
    },
    {
      "inputs": [],
      "name": "pause",
      "outputs": [],
      "stateMutability": "nonpayable",
      "type": "function"
    },
    {
      "inputs": [],
      "name": "paused",
      "outputs": [
        {
          "internalType": "bool",
          "name": "",
          "type": "bool"
        }
      ],
      "stateMutability": "view",
      "type": "function"
    },
    {
      "inputs": [],
      "name": "platformFeeBps",
      "outputs": [
        {
          "internalType": "uint256",
          "name": "",
          "type": "uint256"
        }
      ],
      "stateMutability": "view",
      "type": "function"
    },
    {
      "inputs": [],
      "name": "platformFeeCollected",
      "outputs": [
        {
          "internalType": "uint256",
          "name": "",
          "type": "uint256"
        }
      ],
      "stateMutability": "view",
      "type": "function"
    },
    {
      "inputs": [
        {
          "internalType": "uint256",
          "name": "_newMaxDuration",
          "type": "uint256"
        }
      ],
      "name": "proposeMaxDeadlineDurationChange",
      "outputs": [],
      "stateMutability": "nonpayable",
      "type": "function"
    },
    {
      "inputs": [
        {
          "internalType": "uint256",
          "name": "_newMinBountyAmount",
          "type": "uint256"
        }
      ],
      "name": "proposeMinBountyAmountChange",
      "outputs": [],
      "stateMutability": "nonpayable",
      "type": "function"
    },
    {
      "inputs": [
        {
          "internalType": "uint256",
          "name": "_newFeeBps",
          "type": "uint256"
        }
      ],
      "name": "proposePlatformFeeChange",
      "outputs": [],
      "stateMutability": "nonpayable",
      "type": "function"
    },
    {
      "inputs": [
        {
          "internalType": "uint256",
          "name": "_newStakeAmount",
          "type": "uint256"
        }
      ],
      "name": "proposeStakeAmountChange",
      "outputs": [],
      "stateMutability": "nonpayable",
      "type": "function"
    },
    {
      "inputs": [
        {
          "internalType": "uint256",
          "name": "bountyId",
          "type": "uint256"
        },
        {
          "internalType": "uint256",
          "name": "submissionId",
          "type": "uint256"
        }
      ],
      "name": "refundExpiredSubmission",
      "outputs": [],
      "stateMutability": "nonpayable",
      "type": "function"
    },
    {
      "inputs": [
        {
          "internalType": "uint256",
          "name": "bountyId",
          "type": "uint256"
        },
        {
          "internalType": "uint256",
          "name": "submissionId",
          "type": "uint256"
        }
      ],
      "name": "rejectSubmission",
      "outputs": [],
      "stateMutability": "nonpayable",
      "type": "function"
    },
    {
      "inputs": [],
      "name": "renounceOwnership",
      "outputs": [],
      "stateMutability": "nonpayable",
      "type": "function"
    },
    {
      "inputs": [],
      "name": "reputationContract",
      "outputs": [
        {
          "internalType": "address",
          "name": "",
          "type": "address"
        }
      ],
      "stateMutability": "view",
      "type": "function"
    },
    {
      "inputs": [
        {
          "internalType": "address",
          "name": "",
          "type": "address"
        },
        {
          "internalType": "uint256",
          "name": "",
          "type": "uint256"
        }
      ],
      "name": "sponsorBounties",
      "outputs": [
        {
          "internalType": "uint256",
          "name": "",
          "type": "uint256"
        }
      ],
      "stateMutability": "view",
      "type": "function"
    },
    {
      "inputs": [],
      "name": "submissionStakeAmount",
      "outputs": [
        {
          "internalType": "uint256",
          "name": "",
          "type": "uint256"
        }
      ],
      "stateMutability": "view",
      "type": "function"
    },
    {
      "inputs": [
        {
          "internalType": "uint256",
          "name": "",
          "type": "uint256"
        },
        {
          "internalType": "uint256",
          "name": "",
          "type": "uint256"
        }
      ],
      "name": "submissions",
      "outputs": [
        {
          "internalType": "address",
          "name": "claimant",
          "type": "address"
        },
        {
          "internalType": "string",
          "name": "submissionHash",
          "type": "string"
        },
        {
          "internalType": "enum IBounty.SubmissionStatus",
          "name": "status",
          "type": "uint8"
        },
        {
          "internalType": "uint256",
          "name": "submittedAt",
          "type": "uint256"
        }
      ],
      "stateMutability": "view",
      "type": "function"
    },
    {
      "inputs": [
        {
          "internalType": "uint256",
          "name": "bountyId",
          "type": "uint256"
        },
        {
          "internalType": "string",
          "name": "submissionHash",
          "type": "string"
        }
      ],
      "name": "submitForBounty",
      "outputs": [],
      "stateMutability": "nonpayable",
      "type": "function"
    },
    {
      "inputs": [
        {
          "internalType": "address",
          "name": "newOwner",
          "type": "address"
        }
      ],
      "name": "transferOwnership",
      "outputs": [],
      "stateMutability": "nonpayable",
      "type": "function"
    },
    {
      "inputs": [],
      "name": "unpause",
      "outputs": [],
      "stateMutability": "nonpayable",
      "type": "function"
    },
    {
      "inputs": [
        {
          "internalType": "address",
          "name": "_newEmergencyRecoveryAddress",
          "type": "address"
        }
      ],
      "name": "updateEmergencyRecoveryAddress",
      "outputs": [],
      "stateMutability": "nonpayable",
      "type": "function"
    },
    {
      "inputs": [
        {
          "internalType": "address",
          "name": "_newRecipient",
          "type": "address"
        }
      ],
      "name": "updateFeeRecipient",
      "outputs": [],
      "stateMutability": "nonpayable",
      "type": "function"
    },
    {
      "inputs": [],
      "name": "usdcToken",
      "outputs": [
        {
          "internalType": "contract IERC20",
          "name": "",
          "type": "address"
        }
      ],
      "stateMutability": "view",
      "type": "function"
    },
    {
      "inputs": [],
      "name": "withdrawPlatformFees",
      "outputs": [],
      "stateMutability": "nonpayable",
      "type": "function"
    },
    {
      "stateMutability": "payable",
      "type": "receive"
    }
  ],
  "bytecode": "0x60806040526101f46003556103e860045562278d00600555620f42406006553480156200002b57600080fd5b50604051620053dc380380620053dc8339810160408190526200004e91620002c1565b600160005533806200007b57604051631e4fbdf760e01b8152600060048201526024015b60405180910390fd5b620000868162000252565b506001600160a01b038416620000df5760405162461bcd60e51b815260206004820152601560248201527f496e76616c69642066656520726563697069656e740000000000000000000000604482015260640162000072565b6001600160a01b038316620001375760405162461bcd60e51b815260206004820152601a60248201527f496e76616c6964205553444320746f6b656e2061646472657373000000000000604482015260640162000072565b6001600160a01b0382166200019b5760405162461bcd60e51b815260206004820152602360248201527f496e76616c69642072657075746174696f6e20636f6e7472616374206164647260448201526265737360e81b606482015260840162000072565b6001600160a01b038116620001fe5760405162461bcd60e51b815260206004820152602260248201527f496e76616c696420656d657267656e6379207265636f76657279206164647265604482015261737360f01b606482015260840162000072565b600d80546001600160a01b039586166001600160a01b0319918216179091556002805494861694821694909417909355600e805492851692841692909217909155600f80549190931691161790556200031e565b600180546001600160a01b038381166001600160a01b0319831681179093556040519116919082907f8be0079c531659141344cd1fd0a4f28419497f9722a3daafe3b4186f6b6457e090600090a35050565b80516001600160a01b0381168114620002bc57600080fd5b919050565b60008060008060808587031215620002d857600080fd5b620002e385620002a4565b9350620002f360208601620002a4565b92506200030360408601620002a4565b91506200031360608601620002a4565b905092959194509250565b6150ae806200032e6000396000f3fe6080604052600436106102975760003560e01c80637e584b4e1161015a578063ce1b55e0116100c1578063e5e5dff11161007a578063e5e5dff11461086e578063ee8c4bbf1461088e578063f160d369146108bb578063f2fde38b146108db578063f3498535146108fb578063fa3bd3d61461091b57600080fd5b8063ce1b55e014610784578063d0b7830b146107cc578063d4727f81146107e1578063d866164d14610801578063dc2f874414610821578063e1f1c4a71461085857600080fd5b806395ccea671161011357806395ccea67146106bf578063a8d2249c146106df578063b83cc781146106ff578063bfacd9ed1461071f578063ca5c500714610758578063ce02c3e41461076e57600080fd5b80637e584b4e146106165780637f555b031461062c5780638456cb591461064c57806387bc1425146106615780638c67a0c2146106815780638da5cb5b146106a157600080fd5b806345e42bbb116101fe57806365949dc2116101b757806365949dc21461054e57806369c1fc251461056e5780636a14a0491461059e5780636cf06e68146105b4578063715018a6146105d4578063758051bb146105e957600080fd5b806345e42bbb1461048d5780634623c81e146104ad57806346904840146104c45780635c975abb146104e4578063613c689d1461050e57806362886cee1461052e57600080fd5b80632d6c3008116102505780632d6c3008146103845780632dfaff9a146103a457806333e0d968146103d157806337c55190146103f15780633f4ba83a14610411578063407110ae1461042657600080fd5b80630495bfd5146102a35780630c12d5a4146102c557806311eac855146102e95780631607be28146103215780631ee75e131461034e57806322dcd13e1461036e57600080fd5b3661029e57005b600080fd5b3480156102af57600080fd5b506102c36102be36600461454e565b61093b565b005b3480156102d157600080fd5b506007545b6040519081526020015b60405180910390f35b3480156102f557600080fd5b50600254610309906001600160a01b031681565b6040516001600160a01b0390911681526020016102e0565b34801561032d57600080fd5b5061034161033c36600461460a565b610a6f565b6040516102e09190614775565b34801561035a57600080fd5b506102c36103693660046147d7565b610fe7565b34801561037a57600080fd5b506102d660035481565b34801561039057600080fd5b506102c361039f36600461481e565b6113fe565b3480156103b057600080fd5b506103c46103bf36600461485c565b61183c565b6040516102e09190614877565b3480156103dd57600080fd5b506102c36103ec36600461460a565b6118a8565b3480156103fd57600080fd5b506102d661040c3660046148bb565b611bd6565b34801561041d57600080fd5b506102c3611c16565b34801561043257600080fd5b5061047061044136600461460a565b805160208183018101805160108252928201919093012091528054600182015460029092015490919060ff1683565b6040805193845260208401929092521515908201526060016102e0565b34801561049957600080fd5b506102c36104a836600461454e565b611c28565b3480156104b957600080fd5b506102d66201518081565b3480156104d057600080fd5b50600d54610309906001600160a01b031681565b3480156104f057600080fd5b50600154600160a01b900460ff1660405190151581526020016102e0565b34801561051a57600080fd5b506102c361052936600461454e565b611d53565b34801561053a57600080fd5b506102c3610549366004614900565b611eb7565b34801561055a57600080fd5b5061034161056936600461499a565b61245b565b34801561057a57600080fd5b5061058e61058936600461481e565b612a2d565b6040516102e09493929190614a20565b3480156105aa57600080fd5b506102d660055481565b3480156105c057600080fd5b506102c36105cf36600461454e565b612b0d565b3480156105e057600080fd5b506102c3612c21565b3480156105f557600080fd5b5061060961060436600461454e565b612c33565b6040516102e09190614a62565b34801561062257600080fd5b506102d660045481565b34801561063857600080fd5b506102c361064736600461481e565b612da2565b34801561065857600080fd5b506102c361303f565b34801561066d57600080fd5b50600e54610309906001600160a01b031681565b34801561068d57600080fd5b50600f54610309906001600160a01b031681565b3480156106ad57600080fd5b506001546001600160a01b0316610309565b3480156106cb57600080fd5b506102c36106da366004614b02565b61304f565b3480156106eb57600080fd5b506102c36106fa36600461485c565b6131c6565b34801561070b57600080fd5b506103c461071a36600461485c565b613268565b34801561072b57600080fd5b506003546004546006546005546040805194855260208501939093529183015260608201526080016102e0565b34801561076457600080fd5b506102d6600c5481565b34801561077a57600080fd5b506102d660065481565b34801561079057600080fd5b506107a461079f36600461460a565b6132d2565b60408051948552602085019390935290151591830191909152151560608201526080016102e0565b3480156107d857600080fd5b506102c361333d565b3480156107ed57600080fd5b506102d66107fc366004614b02565b613468565b34801561080d57600080fd5b506102c361081c36600461481e565b613484565b34801561082d57600080fd5b5061084161083c36600461454e565b613743565b6040516102e09b9a99989796959493929190614b2c565b34801561086457600080fd5b506102d661271081565b34801561087a57600080fd5b506102c361088936600461454e565b6139e5565b34801561089a57600080fd5b506108ae6108a936600461454e565b613ca7565b6040516102e09190614bca565b3480156108c757600080fd5b506102c36108d636600461485c565b613fca565b3480156108e757600080fd5b506102c36108f636600461485c565b614052565b34801561090757600080fd5b50610609610916366004614bdd565b61408d565b34801561092757600080fd5b506102d6610936366004614b02565b61432e565b61094361434a565b600081116109985760405162461bcd60e51b815260206004820152601d60248201527f5374616b6520616d6f756e74206d75737420626520706f73697469766500000060448201526064015b60405180910390fd5b604080516060810182528281524260208201526000818301529051741cdd589b5a5cdcda5bdb94dd185ad9505b5bdd5b9d605a1b815260109060150190815260408051602092819003830190208351815591830151600183015591909101516002909101805460ff191691151591909117905560008051602061505983398151915281610a286201518042614c1f565b604080516060808252601590820152741cdd589b5a5cdcda5bdb94dd185ad9505b5bdd5b9d605a1b6080820152602081019390935282015260a0015b60405180910390a150565b60606000600983604051610a839190614c38565b9081526040805191829003602090810183208054808302850183019093528284529190830182828015610ad557602002820191906000526020600020905b815481526020019060010190808311610ac1575b505050505090506000805b8251811015610b9b576007838281518110610afd57610afd614c54565b602002602001015181548110610b1557610b15614c54565b600091825260209091206006600a90920201015460ff16158015610b7657506007838281518110610b4857610b48614c54565b602002602001015181548110610b6057610b60614c54565b90600052602060002090600a0201600501544211155b15610b895781610b8581614c6a565b9250505b80610b9381614c6a565b915050610ae0565b5060008167ffffffffffffffff811115610bb757610bb7614567565b604051908082528060200260200182016040528015610bf057816020015b610bdd6144e0565b815260200190600190039081610bd55790505b5090506000805b8451811015610fdc576007858281518110610c1457610c14614c54565b602002602001015181548110610c2c57610c2c614c54565b600091825260209091206006600a90920201015460ff16158015610c8d57506007858281518110610c5f57610c5f614c54565b602002602001015181548110610c7757610c77614c54565b90600052602060002090600a0201600501544211155b15610fca576007858281518110610ca657610ca6614c54565b602002602001015181548110610cbe57610cbe614c54565b90600052602060002090600a0201604051806101600160405290816000820160009054906101000a90046001600160a01b03166001600160a01b03166001600160a01b0316815260200160018201548152602001600282018054610d2190614c83565b80601f0160208091040260200160405190810160405280929190818152602001828054610d4d90614c83565b8015610d9a5780601f10610d6f57610100808354040283529160200191610d9a565b820191906000526020600020905b815481529060010190602001808311610d7d57829003601f168201915b50505050508152602001600382018054610db390614c83565b80601f0160208091040260200160405190810160405280929190818152602001828054610ddf90614c83565b8015610e2c5780601f10610e0157610100808354040283529160200191610e2c565b820191906000526020600020905b815481529060010190602001808311610e0f57829003601f168201915b50505050508152602001600482018054610e4590614c83565b80601f0160208091040260200160405190810160405280929190818152602001828054610e7190614c83565b8015610ebe5780601f10610e9357610100808354040283529160200191610ebe565b820191906000526020600020905b815481529060010190602001808311610ea157829003601f168201915b505050918352505060058201546020820152600682015460ff81161515604083015261010090046001600160a01b03166060820152600782018054608090920191610f0890614c83565b80601f0160208091040260200160405190810160405280929190818152602001828054610f3490614c83565b8015610f815780601f10610f5657610100808354040283529160200191610f81565b820191906000526020600020905b815481529060010190602001808311610f6457829003601f168201915b5050505050815260200160088201548152602001600982015481525050838381518110610fb057610fb0614c54565b60200260200101819052508180610fc690614c6a565b9250505b80610fd481614c6a565b915050610bf7565b509095945050505050565b610fef614377565b610ff76143a1565b60075482106110185760405162461bcd60e51b815260040161098f90614cbd565b60006007838154811061102d5761102d614c54565b60009182526020909120600a90910201600681015490915060ff16156110655760405162461bcd60e51b815260040161098f90614cec565b80600501544211156110ae5760405162461bcd60e51b8152602060048201526012602482015271109bdd5b9d1e481a185cc8195e1c1a5c995960721b604482015260640161098f565b60008251116110ff5760405162461bcd60e51b815260206004820152601860248201527f5375626d697373696f6e20686173682072657175697265640000000000000000604482015260640161098f565b60c8825111156111515760405162461bcd60e51b815260206004820152601860248201527f5375626d697373696f6e206861736820746f6f206c6f6e670000000000000000604482015260640161098f565b600083815260086020526040812054905b818110156111fa57600085815260086020526040902080543391908390811061118d5761118d614c54565b60009182526020909120600490910201546001600160a01b0316036111e85760405162461bcd60e51b8152602060048201526011602482015270105b1c9958591e481cdd589b5a5d1d1959607a1b604482015260640161098f565b806111f281614c6a565b915050611162565b506002546006546040516323b872dd60e01b815233600482015230602482015260448101919091526001600160a01b03909116906323b872dd906064016020604051808303816000875af1158015611256573d6000803e3d6000fd5b505050506040513d601f19601f8201168201806040525081019061127a9190614d1c565b6112c65760405162461bcd60e51b815260206004820152601a60248201527f55534443207374616b65207472616e73666572206661696c6564000000000000604482015260640161098f565b600084815260086020908152604080832080548251608081018452338152808501898152938101869052426060820152600180830184559286529390942083516004860290910180546001600160a01b0319166001600160a01b0390921691909117815591519082019061133a9082614d8c565b5060408201518160020160006101000a81548160ff02191690836002811115611365576113656149e8565b02179055506060919091015160039091015560098301805490600061138983614c6a565b9091555050336000818152600b602090815260408083208054600181018255908452919092200187905551829087907f85bcf2527a5fdef6845067401b0d8362fa9bb86dddb0701e52ed9d02fd014c65906113e5908990614e4c565b60405180910390a45050506113fa6001600055565b5050565b611406614377565b61140e6143a1565b600754821061142f5760405162461bcd60e51b815260040161098f90614cbd565b60006007838154811061144457611444614c54565b60009182526020909120600a9091020180549091506001600160a01b031633146114b05760405162461bcd60e51b815260206004820152601c60248201527f4f6e6c79207468652073706f6e736f722063616e20617070726f766500000000604482015260640161098f565b600681015460ff16156114d55760405162461bcd60e51b815260040161098f90614cec565b60008381526008602052604090205482106115025760405162461bcd60e51b815260040161098f90614e5f565b600083815260086020526040812080548490811061152257611522614c54565b600091825260208220600490910201915060028083015460ff169081111561154c5761154c6149e8565b146115695760405162461bcd60e51b815260040161098f90614e96565b60068201805460ff1981166001908117835583546001600160a01b0316610100026001600160a81b031990921691909117811790915560078301906115b090830182614ec6565b5060028101805460ff1916600190811790915560035490830154600091612710916115db9190614f99565b6115e59190614fb0565b905080600c60008282546115f99190614c1f565b90915550506001830154600090611611908390614fd2565b600254845460405163a9059cbb60e01b81529293506001600160a01b039182169263a9059cbb926116489216908590600401614fe5565b6020604051808303816000875af1158015611667573d6000803e3d6000fd5b505050506040513d601f19601f8201168201806040525081019061168b9190614d1c565b6116d05760405162461bcd60e51b815260206004820152601660248201527514995dd85c99081d1c985b9cd9995c8819985a5b195960521b604482015260640161098f565b600254835460065460405163a9059cbb60e01b81526001600160a01b039384169363a9059cbb9361170693911691600401614fe5565b6020604051808303816000875af1158015611725573d6000803e3d6000fd5b505050506040513d601f19601f820116820180604052508101906117499190614d1c565b61178b5760405162461bcd60e51b815260206004820152601360248201527214dd185ad9481c99599d5b990819985a5b1959606a1b604482015260640161098f565b600e548354604051631bdb0dad60e31b81526001600160a01b039283169263ded86d68926117c192911690601990600401614fe5565b600060405180830381600087803b1580156117db57600080fd5b505af11580156117ef573d6000803e3d6000fd5b505084546040516001600160a01b03909116925087915088907f79ed1a93ce019803ed4c604b35cec8bbb8be532a8afdc6cf0296ba024362caa690600090a4505050506113fa6001600055565b6001600160a01b0381166000908152600a602090815260409182902080548351818402810184019094528084526060939283018282801561189c57602002820191906000526020600020905b815481526020019060010190808311611888575b50505050509050919050565b6118b061434a565b60006010826040516118c29190614c38565b908152604051908190036020019020600281015490915060ff16156119295760405162461bcd60e51b815260206004820152601960248201527f50726f706f73616c20616c726561647920657865637574656400000000000000604482015260640161098f565b62015180816001015461193c9190614c1f565b4210156119825760405162461bcd60e51b8152602060048201526014602482015273151a5b595b1bd8dac81b9bdd08195e1c1a5c995960621b604482015260640161098f565b6040516d706c6174666f726d46656542707360901b6020820152600090602e0160405160208183030381529060405280519060200120836040516020016119c99190614c38565b60405160208183030381529060405280519060200120036119f35750600380548254909155611b86565b6040516e1b5a5b909bdd5b9d1e505b5bdd5b9d608a1b6020820152602f016040516020818303038152906040528051906020012083604051602001611a389190614c38565b6040516020818303038152906040528051906020012003611a625750600480548254909155611b86565b604051741cdd589b5a5cdcda5bdb94dd185ad9505b5bdd5b9d605a1b60208201526035016040516020818303038152906040528051906020012083604051602001611aad9190614c38565b6040516020818303038152906040528051906020012003611ad75750600680548254909155611b86565b6040517236b0bc2232b0b23634b732a23ab930ba34b7b760691b60208201526033016040516020818303038152906040528051906020012083604051602001611b209190614c38565b6040516020818303038152906040528051906020012003611b4a5750600580548254909155611b86565b60405162461bcd60e51b81526020600482015260116024820152702ab735b737bbb7103830b930b6b2ba32b960791b604482015260640161098f565b60028201805460ff1916600117905581546040517f657687839343da868c26c884bebe3735cdbcede472ea217487a6f2c4bedde7dd91611bc99186918591614ffe565b60405180910390a1505050565b81516020818401810180516009825292820191850191909120919052805482908110611c0157600080fd5b90600052602060002001600091509150505481565b611c1e61434a565b611c266143cc565b565b611c3061434a565b60008111611c8f5760405162461bcd60e51b815260206004820152602660248201527f4d696e696d756d20626f756e747920616d6f756e74206d75737420626520706f60448201526573697469766560d01b606482015260840161098f565b6040805160608101825282815242602082015260008183015290516e1b5a5b909bdd5b9d1e505b5bdd5b9d608a1b8152601090600f0190815260408051602092819003830190208351815591830151600183015591909101516002909101805460ff191691151591909117905560008051602061505983398151915281611d196201518042614c1f565b604080516060808252600f908201526e1b5a5b909bdd5b9d1e505b5bdd5b9d608a1b6080820152602081019390935282015260a001610a64565b611d5b61434a565b62015180811015611da35760405162461bcd60e51b8152602060048201526012602482015271111d5c985d1a5bdb881d1bdbc81cda1bdc9d60721b604482015260640161098f565b6301e13380811115611deb5760405162461bcd60e51b81526020600482015260116024820152704475726174696f6e20746f6f206c6f6e6760781b604482015260640161098f565b6040805160608101825282815242602082015260008183015290517236b0bc2232b0b23634b732a23ab930ba34b7b760691b815260109060130190815260408051602092819003830190208351815591830151600183015591909101516002909101805460ff191691151591909117905560008051602061505983398151915281611e796201518042614c1f565b6040805160608082526013908201527236b0bc2232b0b23634b732a23ab930ba34b7b760691b6080820152602081019390935282015260a001610a64565b611ebf614377565b611ec76143a1565b600454851015611f195760405162461bcd60e51b815260206004820152601760248201527f426f756e747920616d6f756e7420746f6f20736d616c6c000000000000000000604482015260640161098f565b428111611f685760405162461bcd60e51b815260206004820152601e60248201527f446561646c696e65206d75737420626520696e20746865206675747572650000604482015260640161098f565b600554611f759042614c1f565b811115611fc45760405162461bcd60e51b815260206004820152601a60248201527f446561646c696e6520746f6f2066617220696e20667574757265000000000000604482015260640161098f565b60008451116120095760405162461bcd60e51b8152602060048201526011602482015270115d995b9d081251081c995c5d5a5c9959607a1b604482015260640161098f565b60008351116120505760405162461bcd60e51b815260206004820152601360248201527214dc19585ad95c881251081c995c5d5a5c9959606a1b604482015260640161098f565b60008251116120985760405162461bcd60e51b815260206004820152601460248201527311195cd8dc9a5c1d1a5bdb881c995c5d5a5c995960621b604482015260640161098f565b6103e8825111156120e25760405162461bcd60e51b81526020600482015260146024820152734465736372697074696f6e20746f6f206c6f6e6760601b604482015260640161098f565b6002546040516323b872dd60e01b8152336004820152306024820152604481018790526001600160a01b03909116906323b872dd906064016020604051808303816000875af1158015612139573d6000803e3d6000fd5b505050506040513d601f19601f8201168201806040525081019061215d9190614d1c565b6121a05760405162461bcd60e51b81526020600482015260146024820152731554d110c81d1c985b9cd9995c8819985a5b195960621b604482015260640161098f565b60078054604080516101608101825233815260208082018a81528284018a8152606084018a90526080840189905260a08401889052600060c0850181905260e0850181905285519384019095528483526101008401929092524261012084015261014083018490526001850186559490925280517fa66cc928b5edb82af9bd49922954155ab7b0942694bea4ce44661d9a8736c688600a850290810180546001600160a01b0319166001600160a01b0390931692909217825594517fa66cc928b5edb82af9bd49922954155ab7b0942694bea4ce44661d9a8736c6898601559151929390927fa66cc928b5edb82af9bd49922954155ab7b0942694bea4ce44661d9a8736c68a909101906122b49082614d8c565b50606082015160038201906122c99082614d8c565b50608082015160048201906122de9082614d8c565b5060a0820151600582015560c082015160068201805460e08501516001600160a81b0319909116921515610100600160a81b031916929092176101006001600160a01b039093168302179055820151600782019061233c9082614d8c565b50610120820151600882015561014090910151600991820155604051612363908790614c38565b9081526040805160209281900383018120805460018082018355600092835285832090910186905533808352600a8087529483208054928301815583529490912001849055600e54631bdb0dad60e31b82526001600160a01b03169263ded86d68926123d192600401614fe5565b600060405180830381600087803b1580156123eb57600080fd5b505af11580156123ff573d6000803e3d6000fd5b50505050336001600160a01b0316817ffc7543486d92b5df2aa4696eb0ba61680a20f9c19149f641a701e690a8c333e088888860405161244193929190615023565b60405180910390a3506124546001600055565b5050505050565b6060600060098560405161246f9190614c38565b90815260408051918290036020908101832080548083028501830190935282845291908301828280156124c157602002820191906000526020600020905b8154815260200190600101908083116124ad575b505050505090506000815167ffffffffffffffff8111156124e4576124e4614567565b60405190808252806020026020018201604052801561250d578160200160208202803683370190505b5090506000805b835181101561260657600784828151811061253157612531614c54565b60200260200101518154811061254957612549614c54565b600091825260209091206006600a90920201015460ff161580156125aa5750600784828151811061257c5761257c614c54565b60200260200101518154811061259457612594614c54565b90600052602060002090600a0201600501544211155b156125f4578381815181106125c1576125c1614c54565b60200260200101518383815181106125db576125db614c54565b6020908102919091010152816125f081614c6a565b9250505b806125fe81614c6a565b915050612514565b508015806126145750808610155b1561265557604080516000808252602082019092529061264a565b6126376144e0565b81526020019060019003908161262f5790505b509350505050612a26565b60006126618783614fd2565b905060008682116126725781612674565b865b905060008167ffffffffffffffff81111561269157612691614567565b6040519080825280602002602001820160405280156126ca57816020015b6126b76144e0565b8152602001906001900390816126af5790505b50905060005b82811015612a1d576007866126e5838d614c1f565b815181106126f5576126f5614c54565b60200260200101518154811061270d5761270d614c54565b90600052602060002090600a0201604051806101600160405290816000820160009054906101000a90046001600160a01b03166001600160a01b03166001600160a01b031681526020016001820154815260200160028201805461277090614c83565b80601f016020809104026020016040519081016040528092919081815260200182805461279c90614c83565b80156127e95780601f106127be576101008083540402835291602001916127e9565b820191906000526020600020905b8154815290600101906020018083116127cc57829003601f168201915b5050505050815260200160038201805461280290614c83565b80601f016020809104026020016040519081016040528092919081815260200182805461282e90614c83565b801561287b5780601f106128505761010080835404028352916020019161287b565b820191906000526020600020905b81548152906001019060200180831161285e57829003601f168201915b5050505050815260200160048201805461289490614c83565b80601f01602080910402602001604051908101604052809291908181526020018280546128c090614c83565b801561290d5780601f106128e25761010080835404028352916020019161290d565b820191906000526020600020905b8154815290600101906020018083116128f057829003601f168201915b505050918352505060058201546020820152600682015460ff81161515604083015261010090046001600160a01b0316606082015260078201805460809092019161295790614c83565b80601f016020809104026020016040519081016040528092919081815260200182805461298390614c83565b80156129d05780601f106129a5576101008083540402835291602001916129d0565b820191906000526020600020905b8154815290600101906020018083116129b357829003601f168201915b50505050508152602001600882015481526020016009820154815250508282815181106129ff576129ff614c54565b60200260200101819052508080612a1590614c6a565b9150506126d0565b50955050505050505b9392505050565b60086020528160005260406000208181548110612a4957600080fd5b6000918252602090912060049091020180546001820180546001600160a01b039092169450919250612a7a90614c83565b80601f0160208091040260200160405190810160405280929190818152602001828054612aa690614c83565b8015612af35780601f10612ac857610100808354040283529160200191612af3565b820191906000526020600020905b815481529060010190602001808311612ad657829003601f168201915b505050506002830154600390930154919260ff1691905084565b612b1561434a565b6103e8811115612b5f5760405162461bcd60e51b81526020600482015260156024820152744665652063616e6e6f74206578636565642031302560581b604482015260640161098f565b6040805160608101825282815242602082015260008183015290516d706c6174666f726d46656542707360901b8152601090600e0190815260408051602092819003830190208351815591830151600183015591909101516002909101805460ff191691151591909117905560008051602061505983398151915281612be86201518042614c1f565b604080516060808252600e908201526d706c6174666f726d46656542707360901b6080820152602081019390935282015260a001610a64565b612c2961434a565b611c266000614421565b6007546060908210612c575760405162461bcd60e51b815260040161098f90614cbd565b600082815260086020908152604080832080548251818502810185019093528083529193909284015b82821015612d9757600084815260209081902060408051608081019091526004850290910180546001600160a01b031682526001810180549293919291840191612cc990614c83565b80601f0160208091040260200160405190810160405280929190818152602001828054612cf590614c83565b8015612d425780601f10612d1757610100808354040283529160200191612d42565b820191906000526020600020905b815481529060010190602001808311612d2557829003601f168201915b505050918352505060028281015460209092019160ff1690811115612d6957612d696149e8565b6002811115612d7a57612d7a6149e8565b815260200160038201548152505081526020019060010190612c80565b505050509050919050565b612daa614377565b612db26143a1565b6007548210612dd35760405162461bcd60e51b815260040161098f90614cbd565b600060078381548110612de857612de8614c54565b90600052602060002090600a02019050806005015462093a80612e0b9190614c1f565b4211612e595760405162461bcd60e51b815260206004820152601860248201527f5761697420372064617973206166746572206578706972790000000000000000604482015260640161098f565b600681015460ff1615612e7e5760405162461bcd60e51b815260040161098f90614cec565b6000838152600860205260409020548210612eab5760405162461bcd60e51b815260040161098f90614e5f565b6000838152600860205260408120805484908110612ecb57612ecb614c54565b600091825260208220600490910201915060028083015460ff1690811115612ef557612ef56149e8565b14612f125760405162461bcd60e51b815260040161098f90614e96565b80546001600160a01b03163314612f6b5760405162461bcd60e51b815260206004820152601860248201527f4f6e6c7920636c61696d616e742063616e20726566756e640000000000000000604482015260640161098f565b6002818101805460ff19168217905554815460065460405163a9059cbb60e01b81526001600160a01b039384169363a9059cbb93612fae93911691600401614fe5565b6020604051808303816000875af1158015612fcd573d6000803e3d6000fd5b505050506040513d601f19601f82011682018060405250810190612ff19190614d1c565b6130335760405162461bcd60e51b815260206004820152601360248201527214dd185ad9481c99599d5b990819985a5b1959606a1b604482015260640161098f565b50506113fa6001600055565b61304761434a565b611c26614473565b61305761434a565b61305f6144b6565b6001600160a01b03821661310b57600f546040516000916001600160a01b03169083908381818185875af1925050503d80600081146130ba576040519150601f19603f3d011682016040523d82523d6000602084013e6130bf565b606091505b50509050806131065760405162461bcd60e51b8152602060048201526013602482015272115512081d1c985b9cd9995c8819985a5b1959606a1b604482015260640161098f565b505050565b600f5460405163a9059cbb60e01b81526001600160a01b038481169263a9059cbb9261313f92909116908590600401614fe5565b6020604051808303816000875af115801561315e573d6000803e3d6000fd5b505050506040513d601f19601f820116820180604052508101906131829190614d1c565b6113fa5760405162461bcd60e51b8152602060048201526015602482015274151bdad95b881d1c985b9cd9995c8819985a5b1959605a1b604482015260640161098f565b6131ce61434a565b6001600160a01b0381166132165760405162461bcd60e51b815260206004820152600f60248201526e496e76616c6964206164647265737360881b604482015260640161098f565b600f80546001600160a01b038381166001600160a01b0319831681179093556040519116919082907f03a756e662066c37039aa5a0b2700e6b84a600e1e4e20f09ca344e225367cd6290600090a35050565b6001600160a01b0381166000908152600b602090815260409182902080548351818402810184019094528084526060939283018282801561189c57602002820191906000526020600020908154815260200190600101908083116118885750505050509050919050565b60008060008060006010866040516132ea9190614c38565b908152604051908190036020019020805460018201546002830154929350909160ff168015801561332d57506201518084600101546133299190614c1f565b4210155b9450945094509450509193509193565b61334561434a565b61334d614377565b6133556143a1565b600c548061339b5760405162461bcd60e51b81526020600482015260136024820152724e6f206665657320746f20776974686472617760681b604482015260640161098f565b6000600c55600254600d5460405163a9059cbb60e01b81526001600160a01b039283169263a9059cbb926133d6929116908590600401614fe5565b6020604051808303816000875af11580156133f5573d6000803e3d6000fd5b505050506040513d601f19601f820116820180604052508101906134199190614d1c565b61345d5760405162461bcd60e51b8152602060048201526015602482015274119959481dda5d1a191c985dd85b0819985a5b1959605a1b604482015260640161098f565b50611c266001600055565b600b6020528160005260406000208181548110611c0157600080fd5b61348c614377565b6134946143a1565b60075482106134b55760405162461bcd60e51b815260040161098f90614cbd565b6000600783815481106134ca576134ca614c54565b60009182526020909120600a9091020180549091506001600160a01b031633146135365760405162461bcd60e51b815260206004820152601b60248201527f4f6e6c79207468652073706f6e736f722063616e2072656a6563740000000000604482015260640161098f565b60008381526008602052604090205482106135635760405162461bcd60e51b815260040161098f90614e5f565b600083815260086020526040812080548490811061358357613583614c54565b600091825260208220600490910201915060028083015460ff16908111156135ad576135ad6149e8565b146135ca5760405162461bcd60e51b815260040161098f90614e96565b6002818101805460ff19168217905554825460065460405163a9059cbb60e01b81526001600160a01b039384169363a9059cbb9361360d93911691600401614fe5565b6020604051808303816000875af115801561362c573d6000803e3d6000fd5b505050506040513d601f19601f820116820180604052508101906136509190614d1c565b6136945760405162461bcd60e51b815260206004820152601560248201527414dd185ad9481d1c985b9cd9995c8819985a5b1959605a1b604482015260640161098f565b600e54825460405163ed9fa61b60e01b81526001600160a01b039283169263ed9fa61b926136ca92911690600590600401614fe5565b600060405180830381600087803b1580156136e457600080fd5b505af11580156136f8573d6000803e3d6000fd5b505082546040516001600160a01b03909116925085915086907f0c85652d2ac95894ed3aa3311d30cef8a307693957451a95f4b7ace387907c2a90600090a450506113fa6001600055565b6007818154811061375357600080fd5b60009182526020909120600a90910201805460018201546002830180546001600160a01b03909316945090929161378990614c83565b80601f01602080910402602001604051908101604052809291908181526020018280546137b590614c83565b80156138025780601f106137d757610100808354040283529160200191613802565b820191906000526020600020905b8154815290600101906020018083116137e557829003601f168201915b50505050509080600301805461381790614c83565b80601f016020809104026020016040519081016040528092919081815260200182805461384390614c83565b80156138905780601f1061386557610100808354040283529160200191613890565b820191906000526020600020905b81548152906001019060200180831161387357829003601f168201915b5050505050908060040180546138a590614c83565b80601f01602080910402602001604051908101604052809291908181526020018280546138d190614c83565b801561391e5780601f106138f35761010080835404028352916020019161391e565b820191906000526020600020905b81548152906001019060200180831161390157829003601f168201915b50505050600583015460068401546007850180549495929460ff831694506101009092046001600160a01b0316929161395690614c83565b80601f016020809104026020016040519081016040528092919081815260200182805461398290614c83565b80156139cf5780601f106139a4576101008083540402835291602001916139cf565b820191906000526020600020905b8154815290600101906020018083116139b257829003601f168201915b505050505090806008015490806009015490508b565b6139ed614377565b6139f56143a1565b6007548110613a165760405162461bcd60e51b815260040161098f90614cbd565b600060078281548110613a2b57613a2b614c54565b60009182526020909120600a9091020180549091506001600160a01b03163314613a975760405162461bcd60e51b815260206004820152601b60248201527f4f6e6c79207468652073706f6e736f722063616e2063616e63656c0000000000604482015260640161098f565b600681015460ff1615613abc5760405162461bcd60e51b815260040161098f90614cec565b600981015415613b0e5760405162461bcd60e51b815260206004820152601e60248201527f43616e6e6f742063616e63656c2077697468207375626d697373696f6e730000604482015260640161098f565b600681018054825460016001600160a81b03199092166101006001600160a01b039283169081029190911783179093556002549184015460405163a9059cbb60e01b8152929091169263a9059cbb92613b6a9290600401614fe5565b6020604051808303816000875af1158015613b89573d6000803e3d6000fd5b505050506040513d601f19601f82011682018060405250810190613bad9190614d1c565b613be95760405162461bcd60e51b815260206004820152600d60248201526c1499599d5b990819985a5b1959609a1b604482015260640161098f565b600e54815460405163ed9fa61b60e01b81526001600160a01b039283169263ed9fa61b92613c1f92911690600290600401614fe5565b600060405180830381600087803b158015613c3957600080fd5b505af1158015613c4d573d6000803e3d6000fd5b5050825460018401546040519081526001600160a01b0390911692508491507ffceb091a9b4972c4891f0f46b0a36533c423d96b331b6392f4873f9421c2d4619060200160405180910390a350613ca46001600055565b50565b613caf6144e0565b6007548210613cd05760405162461bcd60e51b815260040161098f90614cbd565b60078281548110613ce357613ce3614c54565b90600052602060002090600a0201604051806101600160405290816000820160009054906101000a90046001600160a01b03166001600160a01b03166001600160a01b0316815260200160018201548152602001600282018054613d4690614c83565b80601f0160208091040260200160405190810160405280929190818152602001828054613d7290614c83565b8015613dbf5780601f10613d9457610100808354040283529160200191613dbf565b820191906000526020600020905b815481529060010190602001808311613da257829003601f168201915b50505050508152602001600382018054613dd890614c83565b80601f0160208091040260200160405190810160405280929190818152602001828054613e0490614c83565b8015613e515780601f10613e2657610100808354040283529160200191613e51565b820191906000526020600020905b815481529060010190602001808311613e3457829003601f168201915b50505050508152602001600482018054613e6a90614c83565b80601f0160208091040260200160405190810160405280929190818152602001828054613e9690614c83565b8015613ee35780601f10613eb857610100808354040283529160200191613ee3565b820191906000526020600020905b815481529060010190602001808311613ec657829003601f168201915b505050918352505060058201546020820152600682015460ff81161515604083015261010090046001600160a01b03166060820152600782018054608090920191613f2d90614c83565b80601f0160208091040260200160405190810160405280929190818152602001828054613f5990614c83565b8015613fa65780601f10613f7b57610100808354040283529160200191613fa6565b820191906000526020600020905b815481529060010190602001808311613f8957829003601f168201915b50505050508152602001600882015481526020016009820154815250509050919050565b613fd261434a565b613fda6143a1565b6001600160a01b0381166140305760405162461bcd60e51b815260206004820152601960248201527f496e76616c696420726563697069656e74206164647265737300000000000000604482015260640161098f565b600d80546001600160a01b0319166001600160a01b0392909216919091179055565b61405a61434a565b6001600160a01b03811661408457604051631e4fbdf760e01b81526000600482015260240161098f565b613ca481614421565b60075460609084106140b15760405162461bcd60e51b815260040161098f90614cbd565b600084815260086020526040902080548015806140ce5750808510155b15614131576040805160008082526020820190925290614127565b6141146040805160808101825260008082526060602083015290918201908152602001600081525090565b8152602001906001900390816140e95790505b5092505050612a26565b600061413d8683614fd2565b9050600085821161414e5781614150565b855b905060008167ffffffffffffffff81111561416d5761416d614567565b6040519080825280602002602001820160405280156141c957816020015b6141b66040805160808101825260008082526060602083015290918201908152602001600081525090565b81526020019060019003908161418b5790505b50905060005b8281101561432157856141e2828b614c1f565b815481106141f2576141f2614c54565b6000918252602091829020604080516080810190915260049092020180546001600160a01b03168252600181018054929391929184019161423290614c83565b80601f016020809104026020016040519081016040528092919081815260200182805461425e90614c83565b80156142ab5780601f10614280576101008083540402835291602001916142ab565b820191906000526020600020905b81548152906001019060200180831161428e57829003601f168201915b505050918352505060028281015460209092019160ff16908111156142d2576142d26149e8565b60028111156142e3576142e36149e8565b815260200160038201548152505082828151811061430357614303614c54565b6020026020010181905250808061431990614c6a565b9150506141cf565b5098975050505050505050565b600a6020528160005260406000208181548110611c0157600080fd5b6001546001600160a01b03163314611c265760405163118cdaa760e01b815233600482015260240161098f565b60026000540361439a57604051633ee5aeb560e01b815260040160405180910390fd5b6002600055565b600154600160a01b900460ff1615611c265760405163d93c066560e01b815260040160405180910390fd5b6143d46144b6565b6001805460ff60a01b191690557f5db9ee0a495bf2e6ff9c91a7834c1ba4fdd244a5e8aa4e537bd38aeae4b073aa335b6040516001600160a01b03909116815260200160405180910390a1565b600180546001600160a01b038381166001600160a01b0319831681179093556040519116919082907f8be0079c531659141344cd1fd0a4f28419497f9722a3daafe3b4186f6b6457e090600090a35050565b61447b6143a1565b6001805460ff60a01b1916600160a01b1790557f62e78cea01bee320cd4e420270b5ea74000d11b0c9f74754ebdbfc544b05a2586144043390565b600154600160a01b900460ff16611c2657604051638dfc202b60e01b815260040160405180910390fd5b60405180610160016040528060006001600160a01b03168152602001600081526020016060815260200160608152602001606081526020016000815260200160001515815260200160006001600160a01b031681526020016060815260200160008152602001600081525090565b60006020828403121561456057600080fd5b5035919050565b634e487b7160e01b600052604160045260246000fd5b600082601f83011261458e57600080fd5b813567ffffffffffffffff808211156145a9576145a9614567565b604051601f8301601f19908116603f011681019082821181831017156145d1576145d1614567565b816040528381528660208588010111156145ea57600080fd5b836020870160208301376000602085830101528094505050505092915050565b60006020828403121561461c57600080fd5b813567ffffffffffffffff81111561463357600080fd5b61463f8482850161457d565b949350505050565b60005b8381101561466257818101518382015260200161464a565b50506000910152565b60008151808452614683816020860160208601614647565b601f01601f19169290920160200192915050565b80516001600160a01b0316825260006101606020830151602085015260408301518160408601526146ca8286018261466b565b915050606083015184820360608601526146e4828261466b565b915050608083015184820360808601526146fe828261466b565b91505060a083015160a085015260c083015161471e60c086018215159052565b5060e083015161473960e08601826001600160a01b03169052565b506101008084015185830382870152614752838261466b565b610120868101519088015261014095860151959096019490945250929392505050565b6000602080830181845280855180835260408601915060408160051b870101925083870160005b828110156147ca57603f198886030184526147b8858351614697565b9450928501929085019060010161479c565b5092979650505050505050565b600080604083850312156147ea57600080fd5b82359150602083013567ffffffffffffffff81111561480857600080fd5b6148148582860161457d565b9150509250929050565b6000806040838503121561483157600080fd5b50508035926020909101359150565b80356001600160a01b038116811461485757600080fd5b919050565b60006020828403121561486e57600080fd5b612a2682614840565b6020808252825182820181905260009190848201906040850190845b818110156148af57835183529284019291840191600101614893565b50909695505050505050565b600080604083850312156148ce57600080fd5b823567ffffffffffffffff8111156148e557600080fd5b6148f18582860161457d565b95602094909401359450505050565b600080600080600060a0868803121561491857600080fd5b85359450602086013567ffffffffffffffff8082111561493757600080fd5b61494389838a0161457d565b9550604088013591508082111561495957600080fd5b61496589838a0161457d565b9450606088013591508082111561497b57600080fd5b506149888882890161457d565b95989497509295608001359392505050565b6000806000606084860312156149af57600080fd5b833567ffffffffffffffff8111156149c657600080fd5b6149d28682870161457d565b9660208601359650604090950135949350505050565b634e487b7160e01b600052602160045260246000fd5b60038110614a1c57634e487b7160e01b600052602160045260246000fd5b9052565b6001600160a01b0385168152608060208201819052600090614a449083018661466b565b9050614a5360408301856149fe565b82606083015295945050505050565b60006020808301818452808551808352604092508286019150828160051b87010184880160005b83811015614af457888303603f19018552815180516001600160a01b0316845287810151608089860181905290614ac28287018261466b565b91505087820151614ad5898701826149fe565b5060609182015194909101939093529386019390860190600101614a89565b509098975050505050505050565b60008060408385031215614b1557600080fd5b614b1e83614840565b946020939093013593505050565b6001600160a01b038c81168252602082018c905261016060408301819052600091614b598483018e61466b565b91508382036060850152614b6d828d61466b565b91508382036080850152614b81828c61466b565b91508960a085015288151560c085015280881660e085015250828103610100840152614bad818761466b565b610120840195909552505061014001529998505050505050505050565b602081526000612a266020830184614697565b600080600060608486031215614bf257600080fd5b505081359360208301359350604090920135919050565b634e487b7160e01b600052601160045260246000fd5b80820180821115614c3257614c32614c09565b92915050565b60008251614c4a818460208701614647565b9190910192915050565b634e487b7160e01b600052603260045260246000fd5b600060018201614c7c57614c7c614c09565b5060010190565b600181811c90821680614c9757607f821691505b602082108103614cb757634e487b7160e01b600052602260045260246000fd5b50919050565b602080825260159082015274109bdd5b9d1e48191bd95cc81b9bdd08195e1a5cdd605a1b604082015260600190565b602080825260169082015275109bdd5b9d1e48185b1c9958591e4818db185a5b595960521b604082015260600190565b600060208284031215614d2e57600080fd5b81518015158114612a2657600080fd5b601f82111561310657600081815260208120601f850160051c81016020861015614d655750805b601f850160051c820191505b81811015614d8457828155600101614d71565b505050505050565b815167ffffffffffffffff811115614da657614da6614567565b614dba81614db48454614c83565b84614d3e565b602080601f831160018114614def5760008415614dd75750858301515b600019600386901b1c1916600185901b178555614d84565b600085815260208120601f198616915b82811015614e1e57888601518255948401946001909101908401614dff565b5085821015614e3c5787850151600019600388901b60f8161c191681555b5050505050600190811b01905550565b602081526000612a26602083018461466b565b60208082526019908201527f5375626d697373696f6e20646f6573206e6f7420657869737400000000000000604082015260600190565b6020808252601690820152755375626d697373696f6e206e6f742070656e64696e6760501b604082015260600190565b818103614ed1575050565b614edb8254614c83565b67ffffffffffffffff811115614ef357614ef3614567565b614f0181614db48454614c83565b6000601f821160018114614f355760008315614f1d5750848201545b600019600385901b1c1916600184901b178455612454565b600085815260209020601f19841690600086815260209020845b83811015614f6f5782860154825560019586019590910190602001614f4f565b5085831015614e3c5793015460001960f8600387901b161c19169092555050600190811b01905550565b8082028115828204841417614c3257614c32614c09565b600082614fcd57634e487b7160e01b600052601260045260246000fd5b500490565b81810381811115614c3257614c32614c09565b6001600160a01b03929092168252602082015260400190565b606081526000615011606083018661466b565b60208301949094525060400152919050565b83815260606020820152600061503c606083018561466b565b828103604084015261504e818561466b565b969550505050505056feb38c183b75d6b10f398dce1b4746217abd6ddc4f11d3e43a91a4847333847db9a2646970667358221220dc494422eb5fdf8350e47afa4929d7041071c6c49c2677732678489d7f45116364736f6c63430008140033",
  "linkReferences": {},
  "deployedLinkReferences": {}
}