{
  "_format": "hh-sol-artifact-1",
  "contractName": "MegaVibeTipping",
  "sourceName": "contracts/MegaVibeTipping.sol",
  "abi": [
    {
      "inputs": [
        {
          "internalType": "address",
          "name": "_feeRecipient",
          "type": "address"
        },
        {
          "internalType": "address",
          "name": "_usdcTokenAddress",
          "type": "address"
        },
        {
          "internalType": "address",
          "name": "_reputationContract",
          "type": "address"
        },
        {
          "internalType": "address",
          "name": "_emergencyRecoveryAddress",
          "type": "address"
        }
      ],
      "stateMutability": "nonpayable",
      "type": "constructor"
    },
    {
      "inputs": [],
      "name": "EnforcedPause",
      "type": "error"
    },
    {
      "inputs": [],
      "name": "ExpectedPause",
      "type": "error"
    },
    {
      "inputs": [
        {
          "internalType": "address",
          "name": "owner",
          "type": "address"
        }
      ],
      "name": "OwnableInvalidOwner",
      "type": "error"
    },
    {
      "inputs": [
        {
          "internalType": "address",
          "name": "account",
          "type": "address"
        }
      ],
      "name": "OwnableUnauthorizedAccount",
      "type": "error"
    },
    {
      "inputs": [],
      "name": "ReentrancyGuardReentrantCall",
      "type": "error"
    },
    {
      "anonymous": false,
      "inputs": [
        {
          "indexed": true,
          "internalType": "address",
          "name": "oldAddress",
          "type": "address"
        },
        {
          "indexed": true,
          "internalType": "address",
          "name": "newAddress",
          "type": "address"
        }
      ],
      "name": "EmergencyRecoveryUpdated",
      "type": "event"
    },
    {
      "anonymous": false,
      "inputs": [
        {
          "indexed": true,
          "internalType": "address",
          "name": "oldRecipient",
          "type": "address"
        },
        {
          "indexed": true,
          "internalType": "address",
          "name": "newRecipient",
          "type": "address"
        }
      ],
      "name": "FeeRecipientUpdated",
      "type": "event"
    },
    {
      "anonymous": false,
      "inputs": [
        {
          "indexed": true,
          "internalType": "address",
          "name": "previousOwner",
          "type": "address"
        },
        {
          "indexed": true,
          "internalType": "address",
          "name": "newOwner",
          "type": "address"
        }
      ],
      "name": "OwnershipTransferred",
      "type": "event"
    },
    {
      "anonymous": false,
      "inputs": [
        {
          "indexed": false,
          "internalType": "string",
          "name": "parameter",
          "type": "string"
        },
        {
          "indexed": false,
          "internalType": "uint256",
          "name": "oldValue",
          "type": "uint256"
        },
        {
          "indexed": false,
          "internalType": "uint256",
          "name": "newValue",
          "type": "uint256"
        }
      ],
      "name": "ParameterChangeExecuted",
      "type": "event"
    },
    {
      "anonymous": false,
      "inputs": [
        {
          "indexed": false,
          "internalType": "string",
          "name": "parameter",
          "type": "string"
        },
        {
          "indexed": false,
          "internalType": "uint256",
          "name": "value",
          "type": "uint256"
        },
        {
          "indexed": false,
          "internalType": "uint256",
          "name": "executeAfter",
          "type": "uint256"
        }
      ],
      "name": "ParameterChangeProposed",
      "type": "event"
    },
    {
      "anonymous": false,
      "inputs": [
        {
          "indexed": false,
          "internalType": "address",
          "name": "account",
          "type": "address"
        }
      ],
      "name": "Paused",
      "type": "event"
    },
    {
      "anonymous": false,
      "inputs": [
        {
          "indexed": true,
          "internalType": "address",
          "name": "recipient",
          "type": "address"
        },
        {
          "indexed": false,
          "internalType": "uint256",
          "name": "amount",
          "type": "uint256"
        },
        {
          "indexed": false,
          "internalType": "uint256",
          "name": "timestamp",
          "type": "uint256"
        }
      ],
      "name": "PlatformFeeWithdrawn",
      "type": "event"
    },
    {
      "anonymous": false,
      "inputs": [
        {
          "indexed": true,
          "internalType": "uint256",
          "name": "tipId",
          "type": "uint256"
        },
        {
          "indexed": true,
          "internalType": "address",
          "name": "tipper",
          "type": "address"
        },
        {
          "indexed": true,
          "internalType": "address",
          "name": "recipient",
          "type": "address"
        },
        {
          "indexed": false,
          "internalType": "uint256",
          "name": "amount",
          "type": "uint256"
        },
        {
          "indexed": false,
          "internalType": "string",
          "name": "message",
          "type": "string"
        },
        {
          "indexed": false,
          "internalType": "string",
          "name": "eventId",
          "type": "string"
        },
        {
          "indexed": false,
          "internalType": "string",
          "name": "speakerId",
          "type": "string"
        },
        {
          "indexed": false,
          "internalType": "uint256",
          "name": "timestamp",
          "type": "uint256"
        }
      ],
      "name": "TipSent",
      "type": "event"
    },
    {
      "anonymous": false,
      "inputs": [
        {
          "indexed": true,
          "internalType": "address",
          "name": "speaker",
          "type": "address"
        },
        {
          "indexed": false,
          "internalType": "uint256",
          "name": "amount",
          "type": "uint256"
        },
        {
          "indexed": false,
          "internalType": "uint256",
          "name": "timestamp",
          "type": "uint256"
        }
      ],
      "name": "TipWithdrawn",
      "type": "event"
    },
    {
      "anonymous": false,
      "inputs": [
        {
          "indexed": false,
          "internalType": "address",
          "name": "account",
          "type": "address"
        }
      ],
      "name": "Unpaused",
      "type": "event"
    },
    {
      "inputs": [],
      "name": "BASIS_POINTS",
      "outputs": [
        {
          "internalType": "uint256",
          "name": "",
          "type": "uint256"
        }
      ],
      "stateMutability": "view",
      "type": "function"
    },
    {
      "inputs": [],
      "name": "TIMELOCK_DURATION",
      "outputs": [
        {
          "internalType": "uint256",
          "name": "",
          "type": "uint256"
        }
      ],
      "stateMutability": "view",
      "type": "function"
    },
    {
      "inputs": [],
      "name": "emergencyRecoveryAddress",
      "outputs": [
        {
          "internalType": "address",
          "name": "",
          "type": "address"
        }
      ],
      "stateMutability": "view",
      "type": "function"
    },
    {
      "inputs": [
        {
          "internalType": "address",
          "name": "token",
          "type": "address"
        },
        {
          "internalType": "uint256",
          "name": "amount",
          "type": "uint256"
        }
      ],
      "name": "emergencyWithdraw",
      "outputs": [],
      "stateMutability": "nonpayable",
      "type": "function"
    },
    {
      "inputs": [
        {
          "internalType": "string",
          "name": "",
          "type": "string"
        },
        {
          "internalType": "uint256",
          "name": "",
          "type": "uint256"
        }
      ],
      "name": "eventTipIds",
      "outputs": [
        {
          "internalType": "uint256",
          "name": "",
          "type": "uint256"
        }
      ],
      "stateMutability": "view",
      "type": "function"
    },
    {
      "inputs": [
        {
          "internalType": "string",
          "name": "",
          "type": "string"
        }
      ],
      "name": "eventTotals",
      "outputs": [
        {
          "internalType": "uint256",
          "name": "",
          "type": "uint256"
        }
      ],
      "stateMutability": "view",
      "type": "function"
    },
    {
      "inputs": [],
      "name": "executeMaxMessageLengthChange",
      "outputs": [],
      "stateMutability": "nonpayable",
      "type": "function"
    },
    {
      "inputs": [],
      "name": "executeMinTipAmountChange",
      "outputs": [],
      "stateMutability": "nonpayable",
      "type": "function"
    },
    {
      "inputs": [],
      "name": "executePlatformFeeChange",
      "outputs": [],
      "stateMutability": "nonpayable",
      "type": "function"
    },
    {
      "inputs": [],
      "name": "feeRecipient",
      "outputs": [
        {
          "internalType": "address",
          "name": "",
          "type": "address"
        }
      ],
      "stateMutability": "view",
      "type": "function"
    },
    {
      "inputs": [],
      "name": "getContractParameters",
      "outputs": [
        {
          "internalType": "uint256",
          "name": "_platformFeeBps",
          "type": "uint256"
        },
        {
          "internalType": "uint256",
          "name": "_minTipAmount",
          "type": "uint256"
        },
        {
          "internalType": "uint256",
          "name": "_maxMessageLength",
          "type": "uint256"
        }
      ],
      "stateMutability": "view",
      "type": "function"
    },
    {
      "inputs": [
        {
          "internalType": "string",
          "name": "eventId",
          "type": "string"
        }
      ],
      "name": "getEventTips",
      "outputs": [
        {
          "internalType": "uint256[]",
          "name": "",
          "type": "uint256[]"
        }
      ],
      "stateMutability": "view",
      "type": "function"
    },
    {
      "inputs": [
        {
          "internalType": "string",
          "name": "eventId",
          "type": "string"
        },
        {
          "internalType": "uint256",
          "name": "offset",
          "type": "uint256"
        },
        {
          "internalType": "uint256",
          "name": "limit",
          "type": "uint256"
        }
      ],
      "name": "getPaginatedEventTips",
      "outputs": [
        {
          "components": [
            {
              "internalType": "address",
              "name": "tipper",
              "type": "address"
            },
            {
              "internalType": "address",
              "name": "recipient",
              "type": "address"
            },
            {
              "internalType": "uint256",
              "name": "amount",
              "type": "uint256"
            },
            {
              "internalType": "string",
              "name": "message",
              "type": "string"
            },
            {
              "internalType": "uint256",
              "name": "timestamp",
              "type": "uint256"
            },
            {
              "internalType": "string",
              "name": "eventId",
              "type": "string"
            },
            {
              "internalType": "string",
              "name": "speakerId",
              "type": "string"
            },
            {
              "internalType": "bool",
              "name": "isWithdrawn",
              "type": "bool"
            }
          ],
          "internalType": "struct ITipping.Tip[]",
          "name": "",
          "type": "tuple[]"
        }
      ],
      "stateMutability": "view",
      "type": "function"
    },
    {
      "inputs": [
        {
          "internalType": "string",
          "name": "parameterName",
          "type": "string"
        }
      ],
      "name": "getParameterProposalStatus",
      "outputs": [
        {
          "internalType": "uint256",
          "name": "value",
          "type": "uint256"
        },
        {
          "internalType": "uint256",
          "name": "timestamp",
          "type": "uint256"
        },
        {
          "internalType": "bool",
          "name": "executed",
          "type": "bool"
        },
        {
          "internalType": "bool",
          "name": "canExecute",
          "type": "bool"
        }
      ],
      "stateMutability": "view",
      "type": "function"
    },
    {
      "inputs": [
        {
          "internalType": "string",
          "name": "eventId",
          "type": "string"
        },
        {
          "internalType": "uint256",
          "name": "limit",
          "type": "uint256"
        }
      ],
      "name": "getRecentEventTips",
      "outputs": [
        {
          "components": [
            {
              "internalType": "address",
              "name": "tipper",
              "type": "address"
            },
            {
              "internalType": "address",
              "name": "recipient",
              "type": "address"
            },
            {
              "internalType": "uint256",
              "name": "amount",
              "type": "uint256"
            },
            {
              "internalType": "string",
              "name": "message",
              "type": "string"
            },
            {
              "internalType": "uint256",
              "name": "timestamp",
              "type": "uint256"
            },
            {
              "internalType": "string",
              "name": "eventId",
              "type": "string"
            },
            {
              "internalType": "string",
              "name": "speakerId",
              "type": "string"
            },
            {
              "internalType": "bool",
              "name": "isWithdrawn",
              "type": "bool"
            }
          ],
          "internalType": "struct ITipping.Tip[]",
          "name": "",
          "type": "tuple[]"
        }
      ],
      "stateMutability": "view",
      "type": "function"
    },
    {
      "inputs": [
        {
          "internalType": "address",
          "name": "speaker",
          "type": "address"
        }
      ],
      "name": "getSpeakerBalance",
      "outputs": [
        {
          "internalType": "uint256",
          "name": "",
          "type": "uint256"
        }
      ],
      "stateMutability": "view",
      "type": "function"
    },
    {
      "inputs": [
        {
          "internalType": "string",
          "name": "speakerId",
          "type": "string"
        }
      ],
      "name": "getSpeakerTips",
      "outputs": [
        {
          "internalType": "uint256[]",
          "name": "",
          "type": "uint256[]"
        }
      ],
      "stateMutability": "view",
      "type": "function"
    },
    {
      "inputs": [
        {
          "internalType": "uint256",
          "name": "tipId",
          "type": "uint256"
        }
      ],
      "name": "getTip",
      "outputs": [
        {
          "components": [
            {
              "internalType": "address",
              "name": "tipper",
              "type": "address"
            },
            {
              "internalType": "address",
              "name": "recipient",
              "type": "address"
            },
            {
              "internalType": "uint256",
              "name": "amount",
              "type": "uint256"
            },
            {
              "internalType": "string",
              "name": "message",
              "type": "string"
            },
            {
              "internalType": "uint256",
              "name": "timestamp",
              "type": "uint256"
            },
            {
              "internalType": "string",
              "name": "eventId",
              "type": "string"
            },
            {
              "internalType": "string",
              "name": "speakerId",
              "type": "string"
            },
            {
              "internalType": "bool",
              "name": "isWithdrawn",
              "type": "bool"
            }
          ],
          "internalType": "struct ITipping.Tip",
          "name": "",
          "type": "tuple"
        }
      ],
      "stateMutability": "view",
      "type": "function"
    },
    {
      "inputs": [],
      "name": "getTotalTips",
      "outputs": [
        {
          "internalType": "uint256",
          "name": "",
          "type": "uint256"
        }
      ],
      "stateMutability": "view",
      "type": "function"
    },
    {
      "inputs": [],
      "name": "maxMessageLength",
      "outputs": [
        {
          "internalType": "uint256",
          "name": "",
          "type": "uint256"
        }
      ],
      "stateMutability": "view",
      "type": "function"
    },
    {
      "inputs": [],
      "name": "minTipAmount",
      "outputs": [
        {
          "internalType": "uint256",
          "name": "",
          "type": "uint256"
        }
      ],
      "stateMutability": "view",
      "type": "function"
    },
    {
      "inputs": [],
      "name": "owner",
      "outputs": [
        {
          "internalType": "address",
          "name": "",
          "type": "address"
        }
      ],
      "stateMutability": "view",
      "type": "function"
    },
    {
      "inputs": [
        {
          "internalType": "string",
          "name": "",
          "type": "string"
        }
      ],
      "name": "parameterProposals",
      "outputs": [
        {
          "internalType": "uint256",
          "name": "value",
          "type": "uint256"
        },
        {
          "internalType": "uint256",
          "name": "timestamp",
          "type": "uint256"
        },
        {
          "internalType": "bool",
          "name": "executed",
          "type": "bool"
        }
      ],
      "stateMutability": "view",
      "type": "function"
    },
    {
      "inputs": [],
      "name": "pause",
      "outputs": [],
      "stateMutability": "nonpayable",
      "type": "function"
    },
    {
      "inputs": [],
      "name": "paused",
      "outputs": [
        {
          "internalType": "bool",
          "name": "",
          "type": "bool"
        }
      ],
      "stateMutability": "view",
      "type": "function"
    },
    {
      "inputs": [],
      "name": "platformFeeBps",
      "outputs": [
        {
          "internalType": "uint256",
          "name": "",
          "type": "uint256"
        }
      ],
      "stateMutability": "view",
      "type": "function"
    },
    {
      "inputs": [],
      "name": "platformFeeCollected",
      "outputs": [
        {
          "internalType": "uint256",
          "name": "",
          "type": "uint256"
        }
      ],
      "stateMutability": "view",
      "type": "function"
    },
    {
      "inputs": [
        {
          "internalType": "uint256",
          "name": "_newMaxMessageLength",
          "type": "uint256"
        }
      ],
      "name": "proposeMaxMessageLengthChange",
      "outputs": [],
      "stateMutability": "nonpayable",
      "type": "function"
    },
    {
      "inputs": [
        {
          "internalType": "uint256",
          "name": "_newMinTipAmount",
          "type": "uint256"
        }
      ],
      "name": "proposeMinTipAmountChange",
      "outputs": [],
      "stateMutability": "nonpayable",
      "type": "function"
    },
    {
      "inputs": [
        {
          "internalType": "uint256",
          "name": "_newFeeBps",
          "type": "uint256"
        }
      ],
      "name": "proposePlatformFeeChange",
      "outputs": [],
      "stateMutability": "nonpayable",
      "type": "function"
    },
    {
      "inputs": [],
      "name": "renounceOwnership",
      "outputs": [],
      "stateMutability": "nonpayable",
      "type": "function"
    },
    {
      "inputs": [],
      "name": "reputationContract",
      "outputs": [
        {
          "internalType": "address",
          "name": "",
          "type": "address"
        }
      ],
      "stateMutability": "view",
      "type": "function"
    },
    {
      "inputs": [
        {
          "internalType": "address",
          "name": "",
          "type": "address"
        }
      ],
      "name": "speakerBalances",
      "outputs": [
        {
          "internalType": "uint256",
          "name": "",
          "type": "uint256"
        }
      ],
      "stateMutability": "view",
      "type": "function"
    },
    {
      "inputs": [
        {
          "internalType": "string",
          "name": "",
          "type": "string"
        },
        {
          "internalType": "uint256",
          "name": "",
          "type": "uint256"
        }
      ],
      "name": "speakerTipIds",
      "outputs": [
        {
          "internalType": "uint256",
          "name": "",
          "type": "uint256"
        }
      ],
      "stateMutability": "view",
      "type": "function"
    },
    {
      "inputs": [
        {
          "internalType": "string",
          "name": "",
          "type": "string"
        }
      ],
      "name": "speakerTotals",
      "outputs": [
        {
          "internalType": "uint256",
          "name": "",
          "type": "uint256"
        }
      ],
      "stateMutability": "view",
      "type": "function"
    },
    {
      "inputs": [
        {
          "internalType": "address",
          "name": "recipient",
          "type": "address"
        },
        {
          "internalType": "uint256",
          "name": "usdcAmount",
          "type": "uint256"
        },
        {
          "internalType": "string",
          "name": "message",
          "type": "string"
        },
        {
          "internalType": "string",
          "name": "eventId",
          "type": "string"
        },
        {
          "internalType": "string",
          "name": "speakerId",
          "type": "string"
        }
      ],
      "name": "tipSpeaker",
      "outputs": [],
      "stateMutability": "nonpayable",
      "type": "function"
    },
    {
      "inputs": [
        {
          "internalType": "uint256",
          "name": "",
          "type": "uint256"
        }
      ],
      "name": "tips",
      "outputs": [
        {
          "internalType": "address",
          "name": "tipper",
          "type": "address"
        },
        {
          "internalType": "address",
          "name": "recipient",
          "type": "address"
        },
        {
          "internalType": "uint256",
          "name": "amount",
          "type": "uint256"
        },
        {
          "internalType": "string",
          "name": "message",
          "type": "string"
        },
        {
          "internalType": "uint256",
          "name": "timestamp",
          "type": "uint256"
        },
        {
          "internalType": "string",
          "name": "eventId",
          "type": "string"
        },
        {
          "internalType": "string",
          "name": "speakerId",
          "type": "string"
        },
        {
          "internalType": "bool",
          "name": "isWithdrawn",
          "type": "bool"
        }
      ],
      "stateMutability": "view",
      "type": "function"
    },
    {
      "inputs": [
        {
          "internalType": "address",
          "name": "newOwner",
          "type": "address"
        }
      ],
      "name": "transferOwnership",
      "outputs": [],
      "stateMutability": "nonpayable",
      "type": "function"
    },
    {
      "inputs": [],
      "name": "unpause",
      "outputs": [],
      "stateMutability": "nonpayable",
      "type": "function"
    },
    {
      "inputs": [
        {
          "internalType": "address",
          "name": "_newEmergencyRecoveryAddress",
          "type": "address"
        }
      ],
      "name": "updateEmergencyRecoveryAddress",
      "outputs": [],
      "stateMutability": "nonpayable",
      "type": "function"
    },
    {
      "inputs": [
        {
          "internalType": "address",
          "name": "_newRecipient",
          "type": "address"
        }
      ],
      "name": "updateFeeRecipient",
      "outputs": [],
      "stateMutability": "nonpayable",
      "type": "function"
    },
    {
      "inputs": [],
      "name": "usdcToken",
      "outputs": [
        {
          "internalType": "contract IERC20",
          "name": "",
          "type": "address"
        }
      ],
      "stateMutability": "view",
      "type": "function"
    },
    {
      "inputs": [
        {
          "internalType": "address",
          "name": "",
          "type": "address"
        }
      ],
      "name": "userTipCount",
      "outputs": [
        {
          "internalType": "uint256",
          "name": "",
          "type": "uint256"
        }
      ],
      "stateMutability": "view",
      "type": "function"
    },
    {
      "inputs": [],
      "name": "withdrawPlatformFees",
      "outputs": [],
      "stateMutability": "nonpayable",
      "type": "function"
    },
    {
      "inputs": [],
      "name": "withdrawTips",
      "outputs": [],
      "stateMutability": "nonpayable",
      "type": "function"
    },
    {
      "stateMutability": "payable",
      "type": "receive"
    }
  ],
  "bytecode": "0x60806040526101f46003556103e860045560c86005553480156200002257600080fd5b5060405162003654380380620036548339810160408190526200004591620002b8565b600160005533806200007257604051631e4fbdf760e01b8152600060048201526024015b60405180910390fd5b6200007d8162000249565b506001600160a01b038416620000d65760405162461bcd60e51b815260206004820152601560248201527f496e76616c69642066656520726563697069656e740000000000000000000000604482015260640162000069565b6001600160a01b0383166200012e5760405162461bcd60e51b815260206004820152601a60248201527f496e76616c6964205553444320746f6b656e2061646472657373000000000000604482015260640162000069565b6001600160a01b038216620001925760405162461bcd60e51b815260206004820152602360248201527f496e76616c69642072657075746174696f6e20636f6e7472616374206164647260448201526265737360e81b606482015260840162000069565b6001600160a01b038116620001f55760405162461bcd60e51b815260206004820152602260248201527f496e76616c696420656d657267656e6379207265636f76657279206164647265604482015261737360f01b606482015260840162000069565b600f80546001600160a01b039586166001600160a01b031991821617909155600280549486169482169490941790935560108054928516928416929092179091556011805491909316911617905562000315565b600180546001600160a01b038381166001600160a01b0319831681179093556040519116919082907f8be0079c531659141344cd1fd0a4f28419497f9722a3daafe3b4186f6b6457e090600090a35050565b80516001600160a01b0381168114620002b357600080fd5b919050565b60008060008060808587031215620002cf57600080fd5b620002da856200029b565b9350620002ea602086016200029b565b9250620002fa604086016200029b565b91506200030a606086016200029b565b905092959194509250565b61332f80620003256000396000f3fe6080604052600436106102765760003560e01c80638c67a0c21161014f578063bfacd9ed116100c1578063eafc6b491161007a578063eafc6b49146107ce578063f160d36914610806578063f2fde38b14610826578063f584d34914610846578063f5e7357c1461087e578063fb9157661461089e57600080fd5b8063bfacd9ed146106f4578063ca5c500714610725578063ce1b55e01461073b578063d0b7830b14610783578063d659a0b514610798578063e1f1c4a7146107b857600080fd5b80639e1102f6116101135780639e1102f61461062b578063a5c68c5914610640578063a8d2249c14610674578063aa1f3b0914610694578063b0510886146106b4578063b6d0c709146106d457600080fd5b80638c67a0c2146105975780638da5cb5b146105b75780638f8e480a146105d557806393e94963146105eb57806395ccea671461060b57600080fd5b80634623c81e116101e85780636adb4311116101ac5780636adb4311146104f85780636cf06e6814610518578063715018a614610538578063767f22e71461054d5780638456cb591461056257806387bc14251461057757600080fd5b80634623c81e14610455578063469048401461046c57806355f203b51461048c5780635b703f5c146104a15780635c975abb146104ce57600080fd5b806328bc00ce1161023a57806328bc00ce146103535780633aaa74b21461036a5780633b81f0b61461037f5780633f4ba83a146103ac5780634027f60a146103c1578063407110ae146103ee57600080fd5b8063018c3b951461028257806311eac855146102c25780631842d747146102fa5780631d1d4e291461032757806322dcd13e1461033d57600080fd5b3661027d57005b600080fd5b34801561028e57600080fd5b506102af61029d366004612ad9565b60096020526000908152604090205481565b6040519081526020015b60405180910390f35b3480156102ce57600080fd5b506002546102e2906001600160a01b031681565b6040516001600160a01b0390911681526020016102b9565b34801561030657600080fd5b5061031a610315366004612b97565b6108d4565b6040516102b99190612cde565b34801561033357600080fd5b506102af60055481565b34801561034957600080fd5b506102af60035481565b34801561035f57600080fd5b50610368610ca8565b005b34801561037657600080fd5b50610368610d9f565b34801561038b57600080fd5b506102af61039a366004612ad9565b600a6020526000908152604090205481565b3480156103b857600080fd5b50610368610f12565b3480156103cd57600080fd5b506103e16103dc366004612d40565b610f22565b6040516102b99190612d7d565b3480156103fa57600080fd5b50610438610409366004612d40565b8051602081830181018051600d8252928201919093012091528054600182015460029092015490919060ff1683565b6040805193845260208401929092521515908201526060016102b9565b34801561046157600080fd5b506102af6201518081565b34801561047857600080fd5b50600f546102e2906001600160a01b031681565b34801561049857600080fd5b506006546102af565b3480156104ad57600080fd5b506104c16104bc366004612dc1565b610f92565b6040516102b99190612dda565b3480156104da57600080fd5b50600154600160a01b900460ff1660405190151581526020016102b9565b34801561050457600080fd5b50610368610513366004612dc1565b611215565b34801561052457600080fd5b50610368610533366004612dc1565b611333565b34801561054457600080fd5b5061036861142e565b34801561055957600080fd5b50610368611440565b34801561056e57600080fd5b5061036861151e565b34801561058357600080fd5b506010546102e2906001600160a01b031681565b3480156105a357600080fd5b506011546102e2906001600160a01b031681565b3480156105c357600080fd5b506001546001600160a01b03166102e2565b3480156105e157600080fd5b506102af60045481565b3480156105f757600080fd5b50610368610606366004612dc1565b61152e565b34801561061757600080fd5b50610368610626366004612ded565b611639565b34801561063757600080fd5b506103686117b4565b34801561064c57600080fd5b5061066061065b366004612dc1565b611894565b6040516102b9989796959493929190612e17565b34801561068057600080fd5b5061036861068f366004612ad9565b611a93565b3480156106a057600080fd5b506103686106af366004612e91565b611b35565b3480156106c057600080fd5b506103e16106cf366004612d40565b6121c9565b3480156106e057600080fd5b5061031a6106ef366004612f34565b6121db565b34801561070057600080fd5b50600354600454600554604080519384526020840192909252908201526060016102b9565b34801561073157600080fd5b506102af600e5481565b34801561074757600080fd5b5061075b610756366004612d40565b6125a2565b60408051948552602085019390935290151591830191909152151560608201526080016102b9565b34801561078f57600080fd5b5061036861260d565b3480156107a457600080fd5b506102af6107b3366004612f34565b612771565b3480156107c457600080fd5b506102af61271081565b3480156107da57600080fd5b506102af6107e9366004612d40565b805160208183018101805160088252928201919093012091525481565b34801561081257600080fd5b50610368610821366004612ad9565b6127b1565b34801561083257600080fd5b50610368610841366004612ad9565b612865565b34801561085257600080fd5b506102af610861366004612d40565b805160208183018101805160078252928201919093012091525481565b34801561088a57600080fd5b506102af610899366004612f34565b6128a3565b3480156108aa57600080fd5b506102af6108b9366004612ad9565b6001600160a01b03166000908152600a602052604090205490565b60606000600b856040516108e89190612f79565b908152604080519182900360209081018320805480830285018301909352828452919083018282801561093a57602002820191906000526020600020905b815481526020019060010190808311610926575b5050835193945050821591508190506109535750808510155b15610993576040805160008082526020820190925290610989565b610976612a64565b81526020019060019003908161096e5790505b5092505050610ca1565b600061099f8683612fab565b905060008582116109b057816109b2565b855b905060008167ffffffffffffffff8111156109cf576109cf612af4565b604051908082528060200260200182016040528015610a0857816020015b6109f5612a64565b8152602001906001900390816109ed5790505b50905060005b82811015610c9957600686610a23838c612fbe565b81518110610a3357610a33612fd1565b602002602001015181548110610a4b57610a4b612fd1565b60009182526020918290206040805161010081018252600890930290910180546001600160a01b03908116845260018201541693830193909352600283015490820152600382018054919291606084019190610aa690612fe7565b80601f0160208091040260200160405190810160405280929190818152602001828054610ad290612fe7565b8015610b1f5780601f10610af457610100808354040283529160200191610b1f565b820191906000526020600020905b815481529060010190602001808311610b0257829003601f168201915b5050505050815260200160048201548152602001600582018054610b4290612fe7565b80601f0160208091040260200160405190810160405280929190818152602001828054610b6e90612fe7565b8015610bbb5780601f10610b9057610100808354040283529160200191610bbb565b820191906000526020600020905b815481529060010190602001808311610b9e57829003601f168201915b50505050508152602001600682018054610bd490612fe7565b80601f0160208091040260200160405190810160405280929190818152602001828054610c0090612fe7565b8015610c4d5780601f10610c2257610100808354040283529160200191610c4d565b820191906000526020600020905b815481529060010190602001808311610c3057829003601f168201915b50505091835250506007919091015460ff1615156020909101528251839083908110610c7b57610c7b612fd1565b60200260200101819052508080610c9190613021565b915050610a0e565b509450505050505b9392505050565b610cb06128ce565b6000600d604051610cd7906f0dac2f09acae6e6c2ceca98cadccee8d60831b815260100190565b908152604051908190036020019020600281015490915060ff1615610d175760405162461bcd60e51b8152600401610d0e9061303a565b60405180910390fd5b620151808160010154610d2a9190612fbe565b421015610d495760405162461bcd60e51b8152600401610d0e90613071565b600580548254825560028301805460ff1916600117905590546040517f657687839343da868c26c884bebe3735cdbcede472ea217487a6f2c4bedde7dd91610d939184919061309f565b60405180910390a15050565b610da76128fb565b610daf612925565b336000908152600a602052604090205480610e025760405162461bcd60e51b81526020600482015260136024820152724e6f207469707320746f20776974686472617760681b6044820152606401610d0e565b336000818152600a602052604080822091909155600254905163a9059cbb60e01b81526004810192909252602482018390526001600160a01b03169063a9059cbb906044016020604051808303816000875af1158015610e66573d6000803e3d6000fd5b505050506040513d601f19601f82011682018060405250810190610e8a91906130d6565b610eca5760405162461bcd60e51b815260206004820152601160248201527015da5d1a191c985dd85b0819985a5b1959607a1b6044820152606401610d0e565b6040805182815242602082015233917fa7263e057397f21b7886019af546ff891f9c7e3c6fe3b1e90c3c71c9aadb21d291015b60405180910390a250610f106001600055565b565b610f1a6128ce565b610f10612950565b6060600c82604051610f349190612f79565b9081526040805191829003602090810183208054808302850183019093528284529190830182828015610f8657602002820191906000526020600020905b815481526020019060010190808311610f72575b50505050509050919050565b610f9a612a64565b6006548210610fe05760405162461bcd60e51b8152602060048201526012602482015271151a5c08191bd95cc81b9bdd08195e1a5cdd60721b6044820152606401610d0e565b60068281548110610ff357610ff3612fd1565b60009182526020918290206040805161010081018252600890930290910180546001600160a01b0390811684526001820154169383019390935260028301549082015260038201805491929160608401919061104e90612fe7565b80601f016020809104026020016040519081016040528092919081815260200182805461107a90612fe7565b80156110c75780601f1061109c576101008083540402835291602001916110c7565b820191906000526020600020905b8154815290600101906020018083116110aa57829003601f168201915b50505050508152602001600482015481526020016005820180546110ea90612fe7565b80601f016020809104026020016040519081016040528092919081815260200182805461111690612fe7565b80156111635780601f1061113857610100808354040283529160200191611163565b820191906000526020600020905b81548152906001019060200180831161114657829003601f168201915b5050505050815260200160068201805461117c90612fe7565b80601f01602080910402602001604051908101604052809291908181526020018280546111a890612fe7565b80156111f55780601f106111ca576101008083540402835291602001916111f5565b820191906000526020600020905b8154815290600101906020018083116111d857829003601f168201915b50505091835250506007919091015460ff16151560209091015292915050565b61121d6128ce565b6000811161127d5760405162461bcd60e51b815260206004820152602760248201527f4d6178696d756d206d657373616765206c656e677468206d75737420626520706044820152666f73697469766560c81b6064820152608401610d0e565b6040805160608101825282815242602082015260008183015290516f0dac2f09acae6e6c2ceca98cadccee8d60831b8152600d9060100190815260408051602092819003830190208351815591830151600183015591909101516002909101805460ff19169115159190911790557fb38c183b75d6b10f398dce1b4746217abd6ddc4f11d3e43a91a4847333847db98161131a6201518042612fbe565b60405161132892919061309f565b60405180910390a150565b61133b6128ce565b6103e88111156113855760405162461bcd60e51b81526020600482015260156024820152744665652063616e6e6f74206578636565642031302560581b6044820152606401610d0e565b6040805160608101825282815242602082015260008183015290516d706c6174666f726d46656542707360901b8152600d90600e0190815260408051602092819003830190208351815591830151600183015591909101516002909101805460ff19169115159190911790557fb38c183b75d6b10f398dce1b4746217abd6ddc4f11d3e43a91a4847333847db9816114206201518042612fbe565b6040516113289291906130f8565b6114366128ce565b610f1060006129a5565b6114486128ce565b6000600d60405161146b906b1b5a5b951a5c105b5bdd5b9d60a21b8152600c0190565b908152604051908190036020019020600281015490915060ff16156114a25760405162461bcd60e51b8152600401610d0e9061303a565b6201518081600101546114b59190612fbe565b4210156114d45760405162461bcd60e51b8152600401610d0e90613071565b600480548254825560028301805460ff1916600117905590546040517f657687839343da868c26c884bebe3735cdbcede472ea217487a6f2c4bedde7dd91610d939184919061312d565b6115266128ce565b610f106129f7565b6115366128ce565b600081116115925760405162461bcd60e51b815260206004820152602360248201527f4d696e696d756d2074697020616d6f756e74206d75737420626520706f73697460448201526269766560e81b6064820152608401610d0e565b6040805160608101825282815242602082015260008183015290516b1b5a5b951a5c105b5bdd5b9d60a21b8152600d90600c0190815260408051602092819003830190208351815591830151600183015591909101516002909101805460ff19169115159190911790557fb38c183b75d6b10f398dce1b4746217abd6ddc4f11d3e43a91a4847333847db98161162b6201518042612fbe565b60405161132892919061312d565b6116416128ce565b611649612a3a565b6001600160a01b0382166116f5576011546040516000916001600160a01b03169083908381818185875af1925050503d80600081146116a4576040519150601f19603f3d011682016040523d82523d6000602084013e6116a9565b606091505b50509050806116f05760405162461bcd60e51b8152602060048201526013602482015272115512081d1c985b9cd9995c8819985a5b1959606a1b6044820152606401610d0e565b505050565b60115460405163a9059cbb60e01b81526001600160a01b039182166004820152602481018390529083169063a9059cbb906044016020604051808303816000875af1158015611748573d6000803e3d6000fd5b505050506040513d601f19601f8201168201806040525081019061176c91906130d6565b6117b05760405162461bcd60e51b8152602060048201526015602482015274151bdad95b881d1c985b9cd9995c8819985a5b1959605a1b6044820152606401610d0e565b5050565b6117bc6128ce565b6000600d6040516117e1906d706c6174666f726d46656542707360901b8152600e0190565b908152604051908190036020019020600281015490915060ff16156118185760405162461bcd60e51b8152600401610d0e9061303a565b62015180816001015461182b9190612fbe565b42101561184a5760405162461bcd60e51b8152600401610d0e90613071565b600380548254825560028301805460ff1916600117905590546040517f657687839343da868c26c884bebe3735cdbcede472ea217487a6f2c4bedde7dd91610d93918491906130f8565b600681815481106118a457600080fd5b600091825260209091206008909102018054600182015460028301546003840180546001600160a01b0394851696509290931693909290916118e590612fe7565b80601f016020809104026020016040519081016040528092919081815260200182805461191190612fe7565b801561195e5780601f106119335761010080835404028352916020019161195e565b820191906000526020600020905b81548152906001019060200180831161194157829003601f168201915b50505050509080600401549080600501805461197990612fe7565b80601f01602080910402602001604051908101604052809291908181526020018280546119a590612fe7565b80156119f25780601f106119c7576101008083540402835291602001916119f2565b820191906000526020600020905b8154815290600101906020018083116119d557829003601f168201915b505050505090806006018054611a0790612fe7565b80601f0160208091040260200160405190810160405280929190818152602001828054611a3390612fe7565b8015611a805780601f10611a5557610100808354040283529160200191611a80565b820191906000526020600020905b815481529060010190602001808311611a6357829003601f168201915b5050506007909301549192505060ff1688565b611a9b6128ce565b6001600160a01b038116611ae35760405162461bcd60e51b815260206004820152600f60248201526e496e76616c6964206164647265737360881b6044820152606401610d0e565b601180546001600160a01b038381166001600160a01b0319831681179093556040519116919082907f03a756e662066c37039aa5a0b2700e6b84a600e1e4e20f09ca344e225367cd6290600090a35050565b611b3d6128fb565b611b45612925565b600454841015611b8e5760405162461bcd60e51b8152602060048201526014602482015273151a5c08185b5bdd5b9d081d1bdbc81cdb585b1b60621b6044820152606401610d0e565b6001600160a01b038516611be05760405162461bcd60e51b8152602060048201526019602482015278496e76616c696420726563697069656e74206164647265737360381b6044820152606401610d0e565b336001600160a01b03861603611c2e5760405162461bcd60e51b815260206004820152601360248201527221b0b73737ba103a34b8103cb7bab939b2b63360691b6044820152606401610d0e565b6000825111611c735760405162461bcd60e51b8152602060048201526011602482015270115d995b9d081251081c995c5d5a5c9959607a1b6044820152606401610d0e565b6000815111611cba5760405162461bcd60e51b815260206004820152601360248201527214dc19585ad95c881251081c995c5d5a5c9959606a1b6044820152606401610d0e565b60055483511115611d005760405162461bcd60e51b815260206004820152601060248201526f4d65737361676520746f6f206c6f6e6760801b6044820152606401610d0e565b6002546040516323b872dd60e01b8152336004820152306024820152604481018690526001600160a01b03909116906323b872dd906064016020604051808303816000875af1158015611d57573d6000803e3d6000fd5b505050506040513d601f19601f82011682018060405250810190611d7b91906130d6565b611dbe5760405162461bcd60e51b81526020600482015260146024820152731554d110c81d1c985b9cd9995c8819985a5b195960621b6044820152606401610d0e565b600061271060035486611dd19190613160565b611ddb9190613177565b90506000611de98287612fab565b6006805460408051610100810182523381526001600160a01b038c8116602083019081529282018c8152606083018c815242608085015260a084018c905260c084018b9052600060e08501819052600187018855969096528251600886027ff652222313e28459528d920b65115c16c04f3efc82aaedc97be59f3f377c0d3f810180549285166001600160a01b031993841617815595517ff652222313e28459528d920b65115c16c04f3efc82aaedc97be59f3f377c0d408201805491909516921691909117909255517ff652222313e28459528d920b65115c16c04f3efc82aaedc97be59f3f377c0d4182015593519495509193919290917ff652222313e28459528d920b65115c16c04f3efc82aaedc97be59f3f377c0d4290910190611f1190826131e7565b506080820151600482015560a08201516005820190611f3090826131e7565b5060c08201516006820190611f4590826131e7565b5060e091909101516007918201805460ff1916911515919091179055604051889190611f72908890612f79565b90815260200160405180910390206000828254611f8f9190612fbe565b9250508190555086600885604051611fa79190612f79565b90815260200160405180910390206000828254611fc49190612fbe565b9091555050336000908152600960205260408120805491611fe483613021565b90915550506001600160a01b0388166000908152600a602052604081208054849290612011908490612fbe565b9091555050604051600b90612027908790612f79565b90815260405190819003602090810182208054600181018255600091825291902001829055600c9061205a908690612f79565b9081526040516020918190038201902080546001810182556000918252918120909101829055600e8054859290612092908490612fbe565b9091555050601054604051631bdb0dad60e31b8152336004820152600160248201526001600160a01b039091169063ded86d6890604401600060405180830381600087803b1580156120e357600080fd5b505af11580156120f7573d6000803e3d6000fd5b5050601054604051631bdb0dad60e31b81526001600160a01b038c8116600483015260056024830152909116925063ded86d689150604401600060405180830381600087803b15801561214957600080fd5b505af115801561215d573d6000803e3d6000fd5b50505050876001600160a01b0316336001600160a01b0316827f85bb5c4b6965c47abab82c8184b1b468b21ecc8702e2c857fc2fe79cc90264468a8a8a8a426040516121ad9594939291906132a7565b60405180910390a45050506121c26001600055565b5050505050565b6060600b82604051610f349190612f79565b60606000600b846040516121ef9190612f79565b908152604080519182900360209081018320805480830285018301909352828452919083018282801561224157602002820191906000526020600020905b81548152602001906001019080831161222d575b5050505050905060008151905080600003612291576040805160008082526020820190925290612287565b612274612a64565b81526020019060019003908161226c5790505b509250505061259c565b60008482116122a057816122a2565b845b905060008167ffffffffffffffff8111156122bf576122bf612af4565b6040519080825280602002602001820160405280156122f857816020015b6122e5612a64565b8152602001906001900390816122dd5790505b50905060005b828110156125955760068582612315600188612fab565b61231f9190612fab565b8151811061232f5761232f612fd1565b60200260200101518154811061234757612347612fd1565b60009182526020918290206040805161010081018252600890930290910180546001600160a01b039081168452600182015416938301939093526002830154908201526003820180549192916060840191906123a290612fe7565b80601f01602080910402602001604051908101604052809291908181526020018280546123ce90612fe7565b801561241b5780601f106123f05761010080835404028352916020019161241b565b820191906000526020600020905b8154815290600101906020018083116123fe57829003601f168201915b505050505081526020016004820154815260200160058201805461243e90612fe7565b80601f016020809104026020016040519081016040528092919081815260200182805461246a90612fe7565b80156124b75780601f1061248c576101008083540402835291602001916124b7565b820191906000526020600020905b81548152906001019060200180831161249a57829003601f168201915b505050505081526020016006820180546124d090612fe7565b80601f01602080910402602001604051908101604052809291908181526020018280546124fc90612fe7565b80156125495780601f1061251e57610100808354040283529160200191612549565b820191906000526020600020905b81548152906001019060200180831161252c57829003601f168201915b50505091835250506007919091015460ff161515602090910152825183908390811061257757612577612fd1565b6020026020010181905250808061258d90613021565b9150506122fe565b5093505050505b92915050565b6000806000806000600d866040516125ba9190612f79565b908152604051908190036020019020805460018201546002830154929350909160ff16801580156125fd57506201518084600101546125f99190612fbe565b4210155b9450945094509450509193509193565b6126156128ce565b61261d6128fb565b612625612925565b600e548061266b5760405162461bcd60e51b81526020600482015260136024820152724e6f206665657320746f20776974686472617760681b6044820152606401610d0e565b6000600e55600254600f5460405163a9059cbb60e01b81526001600160a01b0391821660048201526024810184905291169063a9059cbb906044016020604051808303816000875af11580156126c5573d6000803e3d6000fd5b505050506040513d601f19601f820116820180604052508101906126e991906130d6565b61272d5760405162461bcd60e51b8152602060048201526015602482015274119959481dda5d1a191c985dd85b0819985a5b1959605a1b6044820152606401610d0e565b600f54604080518381524260208201526001600160a01b03909216917fd34af39c64d5ed6bd12db9a9ba17a8ce5a6f1fa6dfd5036565f0b26696ee4b5f9101610efd565b8151602081840181018051600c82529282019185019190912091905280548290811061279c57600080fd5b90600052602060002001600091509150505481565b6127b96128ce565b6127c1612925565b6001600160a01b0381166128135760405162461bcd60e51b8152602060048201526019602482015278496e76616c696420726563697069656e74206164647265737360381b6044820152606401610d0e565b600f80546001600160a01b038381166001600160a01b0319831681179093556040519116919082907faaebcf1bfa00580e41d966056b48521fa9f202645c86d4ddf28113e617c1b1d390600090a35050565b61286d6128ce565b6001600160a01b03811661289757604051631e4fbdf760e01b815260006004820152602401610d0e565b6128a0816129a5565b50565b8151602081840181018051600b82529282019185019190912091905280548290811061279c57600080fd5b6001546001600160a01b03163314610f105760405163118cdaa760e01b8152336004820152602401610d0e565b60026000540361291e57604051633ee5aeb560e01b815260040160405180910390fd5b6002600055565b600154600160a01b900460ff1615610f105760405163d93c066560e01b815260040160405180910390fd5b612958612a3a565b6001805460ff60a01b191690557f5db9ee0a495bf2e6ff9c91a7834c1ba4fdd244a5e8aa4e537bd38aeae4b073aa335b6040516001600160a01b03909116815260200160405180910390a1565b600180546001600160a01b038381166001600160a01b0319831681179093556040519116919082907f8be0079c531659141344cd1fd0a4f28419497f9722a3daafe3b4186f6b6457e090600090a35050565b6129ff612925565b6001805460ff60a01b1916600160a01b1790557f62e78cea01bee320cd4e420270b5ea74000d11b0c9f74754ebdbfc544b05a2586129883390565b600154600160a01b900460ff16610f1057604051638dfc202b60e01b815260040160405180910390fd5b60405180610100016040528060006001600160a01b0316815260200160006001600160a01b0316815260200160008152602001606081526020016000815260200160608152602001606081526020016000151581525090565b80356001600160a01b0381168114612ad457600080fd5b919050565b600060208284031215612aeb57600080fd5b610ca182612abd565b634e487b7160e01b600052604160045260246000fd5b600082601f830112612b1b57600080fd5b813567ffffffffffffffff80821115612b3657612b36612af4565b604051601f8301601f19908116603f01168101908282118183101715612b5e57612b5e612af4565b81604052838152866020858801011115612b7757600080fd5b836020870160208301376000602085830101528094505050505092915050565b600080600060608486031215612bac57600080fd5b833567ffffffffffffffff811115612bc357600080fd5b612bcf86828701612b0a565b9660208601359650604090950135949350505050565b60005b83811015612c00578181015183820152602001612be8565b50506000910152565b60008151808452612c21816020860160208601612be5565b601f01601f19169290920160200192915050565b600061010060018060a01b0383511684526020830151612c6060208601826001600160a01b03169052565b50604083015160408501526060830151816060860152612c8282860182612c09565b9150506080830151608085015260a083015184820360a0860152612ca68282612c09565b91505060c083015184820360c0860152612cc08282612c09565b91505060e0830151612cd660e086018215159052565b509392505050565b6000602080830181845280855180835260408601915060408160051b870101925083870160005b82811015612d3357603f19888603018452612d21858351612c35565b94509285019290850190600101612d05565b5092979650505050505050565b600060208284031215612d5257600080fd5b813567ffffffffffffffff811115612d6957600080fd5b612d7584828501612b0a565b949350505050565b6020808252825182820181905260009190848201906040850190845b81811015612db557835183529284019291840191600101612d99565b50909695505050505050565b600060208284031215612dd357600080fd5b5035919050565b602081526000610ca16020830184612c35565b60008060408385031215612e0057600080fd5b612e0983612abd565b946020939093013593505050565b6001600160a01b038981168252881660208201526040810187905261010060608201819052600090612e4b83820189612c09565b905086608084015282810360a0840152612e658187612c09565b905082810360c0840152612e798186612c09565b91505082151560e08301529998505050505050505050565b600080600080600060a08688031215612ea957600080fd5b612eb286612abd565b945060208601359350604086013567ffffffffffffffff80821115612ed657600080fd5b612ee289838a01612b0a565b94506060880135915080821115612ef857600080fd5b612f0489838a01612b0a565b93506080880135915080821115612f1a57600080fd5b50612f2788828901612b0a565b9150509295509295909350565b60008060408385031215612f4757600080fd5b823567ffffffffffffffff811115612f5e57600080fd5b612f6a85828601612b0a565b95602094909401359450505050565b60008251612f8b818460208701612be5565b9190910192915050565b634e487b7160e01b600052601160045260246000fd5b8181038181111561259c5761259c612f95565b8082018082111561259c5761259c612f95565b634e487b7160e01b600052603260045260246000fd5b600181811c90821680612ffb57607f821691505b60208210810361301b57634e487b7160e01b600052602260045260246000fd5b50919050565b60006001820161303357613033612f95565b5060010190565b60208082526019908201527f50726f706f73616c20616c726561647920657865637574656400000000000000604082015260600190565b602080825260149082015273151a5b595b1bd8dac81b9bdd08195e1c1a5c995960621b604082015260600190565b60608082526010908201526f0dac2f09acae6e6c2ceca98cadccee8d60831b60808201526020810192909252604082015260a00190565b6000602082840312156130e857600080fd5b81518015158114610ca157600080fd5b6060808252600e908201526d706c6174666f726d46656542707360901b60808201526020810192909252604082015260a00190565b6060808252600c908201526b1b5a5b951a5c105b5bdd5b9d60a21b60808201526020810192909252604082015260a00190565b808202811582820484141761259c5761259c612f95565b60008261319457634e487b7160e01b600052601260045260246000fd5b500490565b601f8211156116f057600081815260208120601f850160051c810160208610156131c05750805b601f850160051c820191505b818110156131df578281556001016131cc565b505050505050565b815167ffffffffffffffff81111561320157613201612af4565b6132158161320f8454612fe7565b84613199565b602080601f83116001811461324a57600084156132325750858301515b600019600386901b1c1916600185901b1785556131df565b600085815260208120601f198616915b828110156132795788860151825594840194600190910190840161325a565b50858210156132975787850151600019600388901b60f8161c191681555b5050505050600190811b01905550565b85815260a0602082015260006132c060a0830187612c09565b82810360408401526132d28187612c09565b905082810360608401526132e68186612c09565b915050826080830152969550505050505056fea2646970667358221220bcfafc28a286de4aa86565bee2914651e404474284c60106c8b299aa3b95417464736f6c63430008140033",
  "linkReferences": {},
  "deployedLinkReferences": {}
}