{
  "_format": "hh-sol-artifact-1",
  "contractName": "EventContract",
  "sourceName": "contracts/EventContract.sol",
  "abi": [
    {
      "inputs": [],
      "stateMutability": "nonpayable",
      "type": "constructor"
    },
    {
      "inputs": [
        {
          "internalType": "address",
          "name": "owner",
          "type": "address"
        }
      ],
      "name": "OwnableInvalidOwner",
      "type": "error"
    },
    {
      "inputs": [
        {
          "internalType": "address",
          "name": "account",
          "type": "address"
        }
      ],
      "name": "OwnableUnauthorizedAccount",
      "type": "error"
    },
    {
      "anonymous": false,
      "inputs": [
        {
          "indexed": true,
          "internalType": "uint256",
          "name": "eventId",
          "type": "uint256"
        },
        {
          "indexed": false,
          "internalType": "string",
          "name": "name",
          "type": "string"
        },
        {
          "indexed": false,
          "internalType": "uint256",
          "name": "date",
          "type": "uint256"
        }
      ],
      "name": "EventCreated",
      "type": "event"
    },
    {
      "anonymous": false,
      "inputs": [
        {
          "indexed": true,
          "internalType": "address",
          "name": "previousOwner",
          "type": "address"
        },
        {
          "indexed": true,
          "internalType": "address",
          "name": "newOwner",
          "type": "address"
        }
      ],
      "name": "OwnershipTransferred",
      "type": "event"
    },
    {
      "anonymous": false,
      "inputs": [
        {
          "indexed": true,
          "internalType": "uint256",
          "name": "eventId",
          "type": "uint256"
        },
        {
          "indexed": true,
          "internalType": "address",
          "name": "speaker",
          "type": "address"
        }
      ],
      "name": "SpeakerAdded",
      "type": "event"
    },
    {
      "inputs": [
        {
          "internalType": "uint256",
          "name": "_eventId",
          "type": "uint256"
        },
        {
          "internalType": "address",
          "name": "_speaker",
          "type": "address"
        }
      ],
      "name": "addSpeaker",
      "outputs": [],
      "stateMutability": "nonpayable",
      "type": "function"
    },
    {
      "inputs": [
        {
          "internalType": "string",
          "name": "_name",
          "type": "string"
        },
        {
          "internalType": "string",
          "name": "_description",
          "type": "string"
        },
        {
          "internalType": "uint256",
          "name": "_date",
          "type": "uint256"
        },
        {
          "internalType": "string",
          "name": "_venue",
          "type": "string"
        }
      ],
      "name": "createEvent",
      "outputs": [],
      "stateMutability": "nonpayable",
      "type": "function"
    },
    {
      "inputs": [
        {
          "internalType": "uint256",
          "name": "",
          "type": "uint256"
        },
        {
          "internalType": "uint256",
          "name": "",
          "type": "uint256"
        }
      ],
      "name": "eventSpeakers",
      "outputs": [
        {
          "internalType": "address",
          "name": "",
          "type": "address"
        }
      ],
      "stateMutability": "view",
      "type": "function"
    },
    {
      "inputs": [
        {
          "internalType": "uint256",
          "name": "",
          "type": "uint256"
        }
      ],
      "name": "events",
      "outputs": [
        {
          "internalType": "uint256",
          "name": "id",
          "type": "uint256"
        },
        {
          "internalType": "string",
          "name": "name",
          "type": "string"
        },
        {
          "internalType": "string",
          "name": "description",
          "type": "string"
        },
        {
          "internalType": "uint256",
          "name": "date",
          "type": "uint256"
        },
        {
          "internalType": "string",
          "name": "venue",
          "type": "string"
        },
        {
          "internalType": "bool",
          "name": "isActive",
          "type": "bool"
        }
      ],
      "stateMutability": "view",
      "type": "function"
    },
    {
      "inputs": [],
      "name": "getAllEvents",
      "outputs": [
        {
          "components": [
            {
              "internalType": "uint256",
              "name": "id",
              "type": "uint256"
            },
            {
              "internalType": "string",
              "name": "name",
              "type": "string"
            },
            {
              "internalType": "string",
              "name": "description",
              "type": "string"
            },
            {
              "internalType": "uint256",
              "name": "date",
              "type": "uint256"
            },
            {
              "internalType": "string",
              "name": "venue",
              "type": "string"
            },
            {
              "internalType": "address[]",
              "name": "speakers",
              "type": "address[]"
            },
            {
              "internalType": "bool",
              "name": "isActive",
              "type": "bool"
            }
          ],
          "internalType": "struct EventContract.Event[]",
          "name": "",
          "type": "tuple[]"
        }
      ],
      "stateMutability": "view",
      "type": "function"
    },
    {
      "inputs": [
        {
          "internalType": "uint256",
          "name": "_eventId",
          "type": "uint256"
        }
      ],
      "name": "getEvent",
      "outputs": [
        {
          "components": [
            {
              "internalType": "uint256",
              "name": "id",
              "type": "uint256"
            },
            {
              "internalType": "string",
              "name": "name",
              "type": "string"
            },
            {
              "internalType": "string",
              "name": "description",
              "type": "string"
            },
            {
              "internalType": "uint256",
              "name": "date",
              "type": "uint256"
            },
            {
              "internalType": "string",
              "name": "venue",
              "type": "string"
            },
            {
              "internalType": "address[]",
              "name": "speakers",
              "type": "address[]"
            },
            {
              "internalType": "bool",
              "name": "isActive",
              "type": "bool"
            }
          ],
          "internalType": "struct EventContract.Event",
          "name": "",
          "type": "tuple"
        }
      ],
      "stateMutability": "view",
      "type": "function"
    },
    {
      "inputs": [
        {
          "internalType": "uint256",
          "name": "_eventId",
          "type": "uint256"
        }
      ],
      "name": "getSpeakers",
      "outputs": [
        {
          "internalType": "address[]",
          "name": "",
          "type": "address[]"
        }
      ],
      "stateMutability": "view",
      "type": "function"
    },
    {
      "inputs": [],
      "name": "owner",
      "outputs": [
        {
          "internalType": "address",
          "name": "",
          "type": "address"
        }
      ],
      "stateMutability": "view",
      "type": "function"
    },
    {
      "inputs": [],
      "name": "renounceOwnership",
      "outputs": [],
      "stateMutability": "nonpayable",
      "type": "function"
    },
    {
      "inputs": [
        {
          "internalType": "address",
          "name": "newOwner",
          "type": "address"
        }
      ],
      "name": "transferOwnership",
      "outputs": [],
      "stateMutability": "nonpayable",
      "type": "function"
    }
  ],
  "bytecode": "0x608060405234801561001057600080fd5b50338061003757604051631e4fbdf760e01b81526000600482015260240160405180910390fd5b61004081610046565b50610096565b600080546001600160a01b038381166001600160a01b0319831681178455604051919092169283917f8be0079c531659141344cd1fd0a4f28419497f9722a3daafe3b4186f6b6457e09190a35050565b6112c4806100a56000396000f3fe608060405234801561001057600080fd5b506004361061009e5760003560e01c80638da5cb5b116100665780638da5cb5b1461012e578063c27a500d14610153578063f2fde38b14610168578063f45df4611461017b578063ff3a0fb61461018e57600080fd5b80630b791430146100a35780631e2c476b146100d157806342f3e80d146100f15780636d1884e014610106578063715018a614610126575b600080fd5b6100b66100b1366004610d09565b6101a1565b6040516100c896959493929190610d68565b60405180910390f35b6100e46100df366004610d09565b610384565b6040516100c89190610e07565b6101046100ff366004610e3d565b61041b565b005b610119610114366004610d09565b6104b0565b6040516100c89190610ef8565b610104610782565b6000546001600160a01b03165b6040516001600160a01b0390911681526020016100c8565b61015b610796565b6040516100c89190610f0b565b610104610176366004610f6d565b610a33565b61013b610189366004610f88565b610a71565b61010461019c36600461104d565b610aa9565b600181815481106101b157600080fd5b600091825260209091206007909102018054600182018054919350906101d6906110df565b80601f0160208091040260200160405190810160405280929190818152602001828054610202906110df565b801561024f5780601f106102245761010080835404028352916020019161024f565b820191906000526020600020905b81548152906001019060200180831161023257829003601f168201915b505050505090806002018054610264906110df565b80601f0160208091040260200160405190810160405280929190818152602001828054610290906110df565b80156102dd5780601f106102b2576101008083540402835291602001916102dd565b820191906000526020600020905b8154815290600101906020018083116102c057829003601f168201915b5050505050908060030154908060040180546102f8906110df565b80601f0160208091040260200160405190810160405280929190818152602001828054610324906110df565b80156103715780601f1061034657610100808354040283529160200191610371565b820191906000526020600020905b81548152906001019060200180831161035457829003601f168201915b5050506006909301549192505060ff1686565b60015460609082106103b15760405162461bcd60e51b81526004016103a890611119565b60405180910390fd5b6000828152600260209081526040918290208054835181840281018401909452808452909183018282801561040f57602002820191906000526020600020905b81546001600160a01b031681526001909101906020018083116103f1575b50505050509050919050565b610423610c12565b60015482106104445760405162461bcd60e51b81526004016103a890611119565b6000828152600260209081526040808320805460018101825590845291832090910180546001600160a01b0319166001600160a01b0385169081179091559051909184917f61596756aa97c3d7d7c1ffc60d401371ef60ac1ff1e361242a29c73d70f99b2e9190a35050565b6104f26040518060e001604052806000815260200160608152602001606081526020016000815260200160608152602001606081526020016000151581525090565b60015482106105135760405162461bcd60e51b81526004016103a890611119565b6001828154811061052657610526611147565b90600052602060002090600702016040518060e001604052908160008201548152602001600182018054610559906110df565b80601f0160208091040260200160405190810160405280929190818152602001828054610585906110df565b80156105d25780601f106105a7576101008083540402835291602001916105d2565b820191906000526020600020905b8154815290600101906020018083116105b557829003601f168201915b505050505081526020016002820180546105eb906110df565b80601f0160208091040260200160405190810160405280929190818152602001828054610617906110df565b80156106645780601f1061063957610100808354040283529160200191610664565b820191906000526020600020905b81548152906001019060200180831161064757829003601f168201915b5050505050815260200160038201548152602001600482018054610687906110df565b80601f01602080910402602001604051908101604052809291908181526020018280546106b3906110df565b80156107005780601f106106d557610100808354040283529160200191610700565b820191906000526020600020905b8154815290600101906020018083116106e357829003601f168201915b505050505081526020016005820180548060200260200160405190810160405280929190818152602001828054801561076257602002820191906000526020600020905b81546001600160a01b03168152600190910190602001808311610744575b50505091835250506006919091015460ff16151560209091015292915050565b61078a610c12565b6107946000610c3f565b565b60606001805480602002602001604051908101604052809291908181526020016000905b82821015610a2a57838290600052602060002090600702016040518060e0016040529081600082015481526020016001820180546107f7906110df565b80601f0160208091040260200160405190810160405280929190818152602001828054610823906110df565b80156108705780601f1061084557610100808354040283529160200191610870565b820191906000526020600020905b81548152906001019060200180831161085357829003601f168201915b50505050508152602001600282018054610889906110df565b80601f01602080910402602001604051908101604052809291908181526020018280546108b5906110df565b80156109025780601f106108d757610100808354040283529160200191610902565b820191906000526020600020905b8154815290600101906020018083116108e557829003601f168201915b5050505050815260200160038201548152602001600482018054610925906110df565b80601f0160208091040260200160405190810160405280929190818152602001828054610951906110df565b801561099e5780601f106109735761010080835404028352916020019161099e565b820191906000526020600020905b81548152906001019060200180831161098157829003601f168201915b5050505050815260200160058201805480602002602001604051908101604052809291908181526020018280548015610a0057602002820191906000526020600020905b81546001600160a01b031681526001909101906020018083116109e2575b50505091835250506006919091015460ff16151560209182015290825260019290920191016107ba565b50505050905090565b610a3b610c12565b6001600160a01b038116610a6557604051631e4fbdf760e01b8152600060048201526024016103a8565b610a6e81610c3f565b50565b60026020528160005260406000208181548110610a8d57600080fd5b6000918252602090912001546001600160a01b03169150829050565b610ab1610c12565b600180546040805160e081018252828152602080820189815282840189905260608301889052608083018790528351600080825292810190945260a083019390935260c082018590528385018555939093528251600783027fb10e2d527612073b26eecdfd717e6a320cf44b4afac2b0732d9fcbe2b7fa0cf68101918255915192939290917fb10e2d527612073b26eecdfd717e6a320cf44b4afac2b0732d9fcbe2b7fa0cf70190610b6390826111ac565b5060408201516002820190610b7890826111ac565b506060820151600382015560808201516004820190610b9790826111ac565b5060a08201518051610bb3916005840191602090910190610c8f565b5060c091909101516006909101805460ff191691151591909117905560405181907fee37bb5143a14810f72e86fce895be08e16090409d2e18f79b308995e39b73d490610c03908890879061126c565b60405180910390a25050505050565b6000546001600160a01b031633146107945760405163118cdaa760e01b81523360048201526024016103a8565b600080546001600160a01b038381166001600160a01b0319831681178455604051919092169283917f8be0079c531659141344cd1fd0a4f28419497f9722a3daafe3b4186f6b6457e09190a35050565b828054828255906000526020600020908101928215610ce4579160200282015b82811115610ce457825182546001600160a01b0319166001600160a01b03909116178255602090920191600190910190610caf565b50610cf0929150610cf4565b5090565b5b80821115610cf05760008155600101610cf5565b600060208284031215610d1b57600080fd5b5035919050565b6000815180845260005b81811015610d4857602081850181015186830182015201610d2c565b506000602082860101526020601f19601f83011685010191505092915050565b86815260c060208201526000610d8160c0830188610d22565b8281036040840152610d938188610d22565b90508560608401528281036080840152610dad8186610d22565b91505082151560a0830152979650505050505050565b600081518084526020808501945080840160005b83811015610dfc5781516001600160a01b031687529582019590820190600101610dd7565b509495945050505050565b602081526000610e1a6020830184610dc3565b9392505050565b80356001600160a01b0381168114610e3857600080fd5b919050565b60008060408385031215610e5057600080fd5b82359150610e6060208401610e21565b90509250929050565b805182526000602082015160e06020850152610e8860e0850182610d22565b905060408301518482036040860152610ea18282610d22565b9150506060830151606085015260808301518482036080860152610ec58282610d22565b91505060a083015184820360a0860152610edf8282610dc3565b91505060c0830151151560c08501528091505092915050565b602081526000610e1a6020830184610e69565b6000602080830181845280855180835260408601915060408160051b870101925083870160005b82811015610f6057603f19888603018452610f4e858351610e69565b94509285019290850190600101610f32565b5092979650505050505050565b600060208284031215610f7f57600080fd5b610e1a82610e21565b60008060408385031215610f9b57600080fd5b50508035926020909101359150565b634e487b7160e01b600052604160045260246000fd5b600082601f830112610fd157600080fd5b813567ffffffffffffffff80821115610fec57610fec610faa565b604051601f8301601f19908116603f0116810190828211818310171561101457611014610faa565b8160405283815286602085880101111561102d57600080fd5b836020870160208301376000602085830101528094505050505092915050565b6000806000806080858703121561106357600080fd5b843567ffffffffffffffff8082111561107b57600080fd5b61108788838901610fc0565b9550602087013591508082111561109d57600080fd5b6110a988838901610fc0565b94506040870135935060608701359150808211156110c657600080fd5b506110d387828801610fc0565b91505092959194509250565b600181811c908216806110f357607f821691505b60208210810361111357634e487b7160e01b600052602260045260246000fd5b50919050565b602080825260149082015273115d995b9d08191bd95cc81b9bdd08195e1a5cdd60621b604082015260600190565b634e487b7160e01b600052603260045260246000fd5b601f8211156111a757600081815260208120601f850160051c810160208610156111845750805b601f850160051c820191505b818110156111a357828155600101611190565b5050505b505050565b815167ffffffffffffffff8111156111c6576111c6610faa565b6111da816111d484546110df565b8461115d565b602080601f83116001811461120f57600084156111f75750858301515b600019600386901b1c1916600185901b1785556111a3565b600085815260208120601f198616915b8281101561123e5788860151825594840194600190910190840161121f565b508582101561125c5787850151600019600388901b60f8161c191681555b5050505050600190811b01905550565b60408152600061127f6040830185610d22565b9050826020830152939250505056fea264697066735822122068b0a62fe0a380d9a83d77eefe5cb3bb5aa69f25bd0c448434c2b844802595dc64736f6c63430008140033",
  "linkReferences": {},
  "deployedLinkReferences": {}
}