{
  "_format": "hh-sol-artifact-1",
  "contractName": "MegaVibeTipping",
  "sourceName": "contracts/MegaVibeTipping.sol",
  "abi": [
    {
      "inputs": [
        {
          "internalType": "address",
          "name": "_feeRecipient",
          "type": "address"
        }
      ],
      "stateMutability": "nonpayable",
      "type": "constructor"
    },
    {
      "inputs": [
        {
          "internalType": "address",
          "name": "owner",
          "type": "address"
        }
      ],
      "name": "OwnableInvalidOwner",
      "type": "error"
    },
    {
      "inputs": [
        {
          "internalType": "address",
          "name": "account",
          "type": "address"
        }
      ],
      "name": "OwnableUnauthorizedAccount",
      "type": "error"
    },
    {
      "inputs": [],
      "name": "ReentrancyGuardReentrantCall",
      "type": "error"
    },
    {
      "anonymous": false,
      "inputs": [
        {
          "indexed": true,
          "internalType": "address",
          "name": "oldRecipient",
          "type": "address"
        },
        {
          "indexed": true,
          "internalType": "address",
          "name": "newRecipient",
          "type": "address"
        }
      ],
      "name": "FeeRecipientUpdated",
      "type": "event"
    },
    {
      "anonymous": false,
      "inputs": [
        {
          "indexed": true,
          "internalType": "address",
          "name": "previousOwner",
          "type": "address"
        },
        {
          "indexed": true,
          "internalType": "address",
          "name": "newOwner",
          "type": "address"
        }
      ],
      "name": "OwnershipTransferred",
      "type": "event"
    },
    {
      "anonymous": false,
      "inputs": [
        {
          "indexed": true,
          "internalType": "address",
          "name": "recipient",
          "type": "address"
        },
        {
          "indexed": false,
          "internalType": "uint256",
          "name": "amount",
          "type": "uint256"
        },
        {
          "indexed": false,
          "internalType": "uint256",
          "name": "timestamp",
          "type": "uint256"
        }
      ],
      "name": "PlatformFeeWithdrawn",
      "type": "event"
    },
    {
      "anonymous": false,
      "inputs": [
        {
          "indexed": true,
          "internalType": "uint256",
          "name": "tipId",
          "type": "uint256"
        },
        {
          "indexed": true,
          "internalType": "address",
          "name": "tipper",
          "type": "address"
        },
        {
          "indexed": true,
          "internalType": "address",
          "name": "recipient",
          "type": "address"
        },
        {
          "indexed": false,
          "internalType": "uint256",
          "name": "amount",
          "type": "uint256"
        },
        {
          "indexed": false,
          "internalType": "string",
          "name": "message",
          "type": "string"
        },
        {
          "indexed": false,
          "internalType": "string",
          "name": "eventId",
          "type": "string"
        },
        {
          "indexed": false,
          "internalType": "string",
          "name": "speakerId",
          "type": "string"
        },
        {
          "indexed": false,
          "internalType": "uint256",
          "name": "timestamp",
          "type": "uint256"
        }
      ],
      "name": "TipSent",
      "type": "event"
    },
    {
      "anonymous": false,
      "inputs": [
        {
          "indexed": true,
          "internalType": "address",
          "name": "speaker",
          "type": "address"
        },
        {
          "indexed": false,
          "internalType": "uint256",
          "name": "amount",
          "type": "uint256"
        },
        {
          "indexed": false,
          "internalType": "uint256",
          "name": "timestamp",
          "type": "uint256"
        }
      ],
      "name": "TipWithdrawn",
      "type": "event"
    },
    {
      "inputs": [],
      "name": "BASIS_POINTS",
      "outputs": [
        {
          "internalType": "uint256",
          "name": "",
          "type": "uint256"
        }
      ],
      "stateMutability": "view",
      "type": "function"
    },
    {
      "inputs": [],
      "name": "MAX_MESSAGE_LENGTH",
      "outputs": [
        {
          "internalType": "uint256",
          "name": "",
          "type": "uint256"
        }
      ],
      "stateMutability": "view",
      "type": "function"
    },
    {
      "inputs": [],
      "name": "MIN_TIP_AMOUNT",
      "outputs": [
        {
          "internalType": "uint256",
          "name": "",
          "type": "uint256"
        }
      ],
      "stateMutability": "view",
      "type": "function"
    },
    {
      "inputs": [],
      "name": "PLATFORM_FEE_BPS",
      "outputs": [
        {
          "internalType": "uint256",
          "name": "",
          "type": "uint256"
        }
      ],
      "stateMutability": "view",
      "type": "function"
    },
    {
      "inputs": [
        {
          "internalType": "string",
          "name": "",
          "type": "string"
        },
        {
          "internalType": "uint256",
          "name": "",
          "type": "uint256"
        }
      ],
      "name": "eventTipIds",
      "outputs": [
        {
          "internalType": "uint256",
          "name": "",
          "type": "uint256"
        }
      ],
      "stateMutability": "view",
      "type": "function"
    },
    {
      "inputs": [
        {
          "internalType": "string",
          "name": "",
          "type": "string"
        }
      ],
      "name": "eventTotals",
      "outputs": [
        {
          "internalType": "uint256",
          "name": "",
          "type": "uint256"
        }
      ],
      "stateMutability": "view",
      "type": "function"
    },
    {
      "inputs": [],
      "name": "feeRecipient",
      "outputs": [
        {
          "internalType": "address",
          "name": "",
          "type": "address"
        }
      ],
      "stateMutability": "view",
      "type": "function"
    },
    {
      "inputs": [
        {
          "internalType": "string",
          "name": "eventId",
          "type": "string"
        }
      ],
      "name": "getEventTips",
      "outputs": [
        {
          "internalType": "uint256[]",
          "name": "",
          "type": "uint256[]"
        }
      ],
      "stateMutability": "view",
      "type": "function"
    },
    {
      "inputs": [],
      "name": "getPlatformStats",
      "outputs": [
        {
          "internalType": "uint256",
          "name": "totalVolume",
          "type": "uint256"
        },
        {
          "internalType": "uint256",
          "name": "totalTips",
          "type": "uint256"
        },
        {
          "internalType": "uint256",
          "name": "platformFees",
          "type": "uint256"
        }
      ],
      "stateMutability": "view",
      "type": "function"
    },
    {
      "inputs": [
        {
          "internalType": "string",
          "name": "eventId",
          "type": "string"
        },
        {
          "internalType": "uint256",
          "name": "limit",
          "type": "uint256"
        }
      ],
      "name": "getRecentEventTips",
      "outputs": [
        {
          "components": [
            {
              "internalType": "address",
              "name": "tipper",
              "type": "address"
            },
            {
              "internalType": "address",
              "name": "recipient",
              "type": "address"
            },
            {
              "internalType": "uint256",
              "name": "amount",
              "type": "uint256"
            },
            {
              "internalType": "string",
              "name": "message",
              "type": "string"
            },
            {
              "internalType": "uint256",
              "name": "timestamp",
              "type": "uint256"
            },
            {
              "internalType": "string",
              "name": "eventId",
              "type": "string"
            },
            {
              "internalType": "string",
              "name": "speakerId",
              "type": "string"
            },
            {
              "internalType": "bool",
              "name": "isWithdrawn",
              "type": "bool"
            }
          ],
          "internalType": "struct MegaVibeTipping.Tip[]",
          "name": "",
          "type": "tuple[]"
        }
      ],
      "stateMutability": "view",
      "type": "function"
    },
    {
      "inputs": [
        {
          "internalType": "address",
          "name": "speaker",
          "type": "address"
        }
      ],
      "name": "getSpeakerBalance",
      "outputs": [
        {
          "internalType": "uint256",
          "name": "",
          "type": "uint256"
        }
      ],
      "stateMutability": "view",
      "type": "function"
    },
    {
      "inputs": [
        {
          "internalType": "string",
          "name": "speakerId",
          "type": "string"
        }
      ],
      "name": "getSpeakerTips",
      "outputs": [
        {
          "internalType": "uint256[]",
          "name": "",
          "type": "uint256[]"
        }
      ],
      "stateMutability": "view",
      "type": "function"
    },
    {
      "inputs": [
        {
          "internalType": "uint256",
          "name": "tipId",
          "type": "uint256"
        }
      ],
      "name": "getTip",
      "outputs": [
        {
          "components": [
            {
              "internalType": "address",
              "name": "tipper",
              "type": "address"
            },
            {
              "internalType": "address",
              "name": "recipient",
              "type": "address"
            },
            {
              "internalType": "uint256",
              "name": "amount",
              "type": "uint256"
            },
            {
              "internalType": "string",
              "name": "message",
              "type": "string"
            },
            {
              "internalType": "uint256",
              "name": "timestamp",
              "type": "uint256"
            },
            {
              "internalType": "string",
              "name": "eventId",
              "type": "string"
            },
            {
              "internalType": "string",
              "name": "speakerId",
              "type": "string"
            },
            {
              "internalType": "bool",
              "name": "isWithdrawn",
              "type": "bool"
            }
          ],
          "internalType": "struct MegaVibeTipping.Tip",
          "name": "",
          "type": "tuple"
        }
      ],
      "stateMutability": "view",
      "type": "function"
    },
    {
      "inputs": [],
      "name": "getTotalTips",
      "outputs": [
        {
          "internalType": "uint256",
          "name": "",
          "type": "uint256"
        }
      ],
      "stateMutability": "view",
      "type": "function"
    },
    {
      "inputs": [],
      "name": "owner",
      "outputs": [
        {
          "internalType": "address",
          "name": "",
          "type": "address"
        }
      ],
      "stateMutability": "view",
      "type": "function"
    },
    {
      "inputs": [],
      "name": "pause",
      "outputs": [],
      "stateMutability": "nonpayable",
      "type": "function"
    },
    {
      "inputs": [],
      "name": "platformFeeCollected",
      "outputs": [
        {
          "internalType": "uint256",
          "name": "",
          "type": "uint256"
        }
      ],
      "stateMutability": "view",
      "type": "function"
    },
    {
      "inputs": [],
      "name": "renounceOwnership",
      "outputs": [],
      "stateMutability": "nonpayable",
      "type": "function"
    },
    {
      "inputs": [
        {
          "internalType": "address",
          "name": "",
          "type": "address"
        }
      ],
      "name": "speakerBalances",
      "outputs": [
        {
          "internalType": "uint256",
          "name": "",
          "type": "uint256"
        }
      ],
      "stateMutability": "view",
      "type": "function"
    },
    {
      "inputs": [
        {
          "internalType": "string",
          "name": "",
          "type": "string"
        },
        {
          "internalType": "uint256",
          "name": "",
          "type": "uint256"
        }
      ],
      "name": "speakerTipIds",
      "outputs": [
        {
          "internalType": "uint256",
          "name": "",
          "type": "uint256"
        }
      ],
      "stateMutability": "view",
      "type": "function"
    },
    {
      "inputs": [
        {
          "internalType": "string",
          "name": "",
          "type": "string"
        }
      ],
      "name": "speakerTotals",
      "outputs": [
        {
          "internalType": "uint256",
          "name": "",
          "type": "uint256"
        }
      ],
      "stateMutability": "view",
      "type": "function"
    },
    {
      "inputs": [
        {
          "internalType": "address",
          "name": "recipient",
          "type": "address"
        },
        {
          "internalType": "string",
          "name": "message",
          "type": "string"
        },
        {
          "internalType": "string",
          "name": "eventId",
          "type": "string"
        },
        {
          "internalType": "string",
          "name": "speakerId",
          "type": "string"
        }
      ],
      "name": "tipSpeaker",
      "outputs": [],
      "stateMutability": "payable",
      "type": "function"
    },
    {
      "inputs": [
        {
          "internalType": "uint256",
          "name": "",
          "type": "uint256"
        }
      ],
      "name": "tips",
      "outputs": [
        {
          "internalType": "address",
          "name": "tipper",
          "type": "address"
        },
        {
          "internalType": "address",
          "name": "recipient",
          "type": "address"
        },
        {
          "internalType": "uint256",
          "name": "amount",
          "type": "uint256"
        },
        {
          "internalType": "string",
          "name": "message",
          "type": "string"
        },
        {
          "internalType": "uint256",
          "name": "timestamp",
          "type": "uint256"
        },
        {
          "internalType": "string",
          "name": "eventId",
          "type": "string"
        },
        {
          "internalType": "string",
          "name": "speakerId",
          "type": "string"
        },
        {
          "internalType": "bool",
          "name": "isWithdrawn",
          "type": "bool"
        }
      ],
      "stateMutability": "view",
      "type": "function"
    },
    {
      "inputs": [
        {
          "internalType": "address",
          "name": "newOwner",
          "type": "address"
        }
      ],
      "name": "transferOwnership",
      "outputs": [],
      "stateMutability": "nonpayable",
      "type": "function"
    },
    {
      "inputs": [
        {
          "internalType": "address",
          "name": "_newRecipient",
          "type": "address"
        }
      ],
      "name": "updateFeeRecipient",
      "outputs": [],
      "stateMutability": "nonpayable",
      "type": "function"
    },
    {
      "inputs": [
        {
          "internalType": "address",
          "name": "",
          "type": "address"
        }
      ],
      "name": "userTipCount",
      "outputs": [
        {
          "internalType": "uint256",
          "name": "",
          "type": "uint256"
        }
      ],
      "stateMutability": "view",
      "type": "function"
    },
    {
      "inputs": [],
      "name": "withdrawPlatformFees",
      "outputs": [],
      "stateMutability": "nonpayable",
      "type": "function"
    },
    {
      "inputs": [],
      "name": "withdrawTips",
      "outputs": [],
      "stateMutability": "nonpayable",
      "type": "function"
    },
    {
      "stateMutability": "payable",
      "type": "receive"
    }
  ],
  "bytecode": "0x60806040523480156200001157600080fd5b50604051620021cd380380620021cd83398101604081905262000034916200013d565b600160005533806200006157604051631e4fbdf760e01b8152600060048201526024015b60405180910390fd5b6200006c81620000eb565b506001600160a01b038116620000c55760405162461bcd60e51b815260206004820152601560248201527f496e76616c69642066656520726563697069656e740000000000000000000000604482015260640162000058565b600a80546001600160a01b0319166001600160a01b03929092169190911790556200016f565b600180546001600160a01b038381166001600160a01b0319831681179093556040519116919082907f8be0079c531659141344cd1fd0a4f28419497f9722a3daafe3b4186f6b6457e090600090a35050565b6000602082840312156200015057600080fd5b81516001600160a01b03811681146200016857600080fd5b9392505050565b61204e806200017f6000396000f3fe6080604052600436106101bb5760003560e01c80638da5cb5b116100ec578063e1f1c4a71161008a578063f2fde38b11610064578063f2fde38b14610566578063f584d34914610586578063f5e7357c146105be578063fb915766146105de57600080fd5b8063e1f1c4a7146104f8578063eafc6b491461050e578063f160d3691461054657600080fd5b8063b6d0c709116100c6578063b6d0c70914610480578063ca5c5007146104ad578063d0b7830b146104c3578063d659a0b5146104d857600080fd5b80638da5cb5b1461040e578063a5c68c591461042c578063b05108861461046057600080fd5b8063429895ac1161015957806355f203b51161013357806355f203b5146103a25780635b703f5c146103b7578063715018a6146103e45780638456cb59146103f957600080fd5b8063429895ac146103395780634690484014610354578063539aa77f1461038c57600080fd5b80632a027211116101955780632a027211146102b55780633aaa74b2146102ca5780633b81f0b6146102df5780634027f60a1461030c57600080fd5b8063018c3b951461023057806311b1f9ec14610270578063136d88831461028557600080fd5b3661022b5760405162461bcd60e51b815260206004820152603560248201527f446972656374206465706f73697473206e6f7420616c6c6f7765642e20557365604482015274103a34b829b832b0b5b2b910333ab731ba34b7b71760591b60648201526084015b60405180910390fd5b600080fd5b34801561023c57600080fd5b5061025d61024b366004611998565b60056020526000908152604090205481565b6040519081526020015b60405180910390f35b61028361027e366004611a5d565b610614565b005b34801561029157600080fd5b5061029a610b1f565b60408051938452602084019290925290820152606001610267565b3480156102c157600080fd5b5061025d60c881565b3480156102d657600080fd5b50610283610bc6565b3480156102eb57600080fd5b5061025d6102fa366004611998565b60066020526000908152604090205481565b34801561031857600080fd5b5061032c610327366004611af6565b610d05565b6040516102679190611b33565b34801561034557600080fd5b5061025d66038d7ea4c6800081565b34801561036057600080fd5b50600a54610374906001600160a01b031681565b6040516001600160a01b039091168152602001610267565b34801561039857600080fd5b5061025d6101f481565b3480156103ae57600080fd5b5060025461025d565b3480156103c357600080fd5b506103d76103d2366004611b77565b610d75565b6040516102679190611c89565b3480156103f057600080fd5b50610283610ff8565b34801561040557600080fd5b5061028361100a565b34801561041a57600080fd5b506001546001600160a01b0316610374565b34801561043857600080fd5b5061044c610447366004611b77565b611012565b604051610267989796959493929190611c9c565b34801561046c57600080fd5b5061032c61047b366004611af6565b611211565b34801561048c57600080fd5b506104a061049b366004611d16565b611223565b6040516102679190611d5b565b3480156104b957600080fd5b5061025d60095481565b3480156104cf57600080fd5b506102836115ea565b3480156104e457600080fd5b5061025d6104f3366004611d16565b611725565b34801561050457600080fd5b5061025d61271081565b34801561051a57600080fd5b5061025d610529366004611af6565b805160208183018101805160048252928201919093012091525481565b34801561055257600080fd5b50610283610561366004611998565b611765565b34801561057257600080fd5b50610283610581366004611998565b611811565b34801561059257600080fd5b5061025d6105a1366004611af6565b805160208183018101805160038252928201919093012091525481565b3480156105ca57600080fd5b5061025d6105d9366004611d16565b61184f565b3480156105ea57600080fd5b5061025d6105f9366004611998565b6001600160a01b031660009081526006602052604090205490565b61061c61187a565b66038d7ea4c6800034101561066a5760405162461bcd60e51b8152602060048201526014602482015273151a5c08185b5bdd5b9d081d1bdbc81cdb585b1b60621b6044820152606401610222565b6001600160a01b0384166106bc5760405162461bcd60e51b8152602060048201526019602482015278496e76616c696420726563697069656e74206164647265737360381b6044820152606401610222565b336001600160a01b0385160361070a5760405162461bcd60e51b815260206004820152601360248201527221b0b73737ba103a34b8103cb7bab939b2b63360691b6044820152606401610222565b600082511161074f5760405162461bcd60e51b8152602060048201526011602482015270115d995b9d081251081c995c5d5a5c9959607a1b6044820152606401610222565b60008151116107965760405162461bcd60e51b815260206004820152601360248201527214dc19585ad95c881251081c995c5d5a5c9959606a1b6044820152606401610222565b60c8835111156107db5760405162461bcd60e51b815260206004820152601060248201526f4d65737361676520746f6f206c6f6e6760801b6044820152606401610222565b60006127106107ec6101f434611dd3565b6107f69190611dea565b905060006108048234611e0c565b6002805460408051610100810182523381526001600160a01b038b81166020830190815234938301938452606083018c815242608085015260a084018c905260c084018b9052600060e08501819052600187018855969096528251600886027f405787fa12a823e0f2b7631cc41b3ba8828b3321ca811111fa75cd3aa3bb5ace810180549285166001600160a01b031993841617815592517f405787fa12a823e0f2b7631cc41b3ba8828b3321ca811111fa75cd3aa3bb5acf820180549190951692169190911790925592517f405787fa12a823e0f2b7631cc41b3ba8828b3321ca811111fa75cd3aa3bb5ad082015593519495509193919290917f405787fa12a823e0f2b7631cc41b3ba8828b3321ca811111fa75cd3aa3bb5ad19091019061092e9082611ea8565b506080820151600482015560a0820151600582019061094d9082611ea8565b5060c082015160068201906109629082611ea8565b5060e091909101516007909101805460ff19169115159190911790556040513490600390610991908890611f68565b908152602001604051809103902060008282546109ae9190611f84565b92505081905550346004856040516109c69190611f68565b908152602001604051809103902060008282546109e39190611f84565b9091555050336000908152600560205260408120805491610a0383611f97565b90915550506001600160a01b03871660009081526006602052604081208054849290610a30908490611f84565b9091555050604051600790610a46908790611f68565b90815260405190819003602090810182208054600181018255600091825291902001829055600890610a79908690611f68565b908152604051602091819003820190208054600181018255600091825291812090910182905560098054859290610ab1908490611f84565b92505081905550866001600160a01b0316336001600160a01b0316827f85bb5c4b6965c47abab82c8184b1b468b21ecc8702e2c857fc2fe79cc9026446348a8a8a42604051610b04959493929190611fb0565b60405180910390a4505050610b196001600055565b50505050565b600080600060095447610b329190611f84565b6002546009549194509250905060005b600254811015610bc05760028181548110610b5f57610b5f612002565b600091825260209091206007600890920201015460ff1615610bae5760028181548110610b8e57610b8e612002565b90600052602060002090600802016002015484610bab9190611f84565b93505b80610bb881611f97565b915050610b42565b50909192565b610bce61187a565b3360009081526006602052604090205480610c215760405162461bcd60e51b81526020600482015260136024820152724e6f207469707320746f20776974686472617760681b6044820152606401610222565b336000818152600660205260408082208290555190919083908381818185875af1925050503d8060008114610c72576040519150601f19603f3d011682016040523d82523d6000602084013e610c77565b606091505b5050905080610cbc5760405162461bcd60e51b815260206004820152601160248201527015da5d1a191c985dd85b0819985a5b1959607a1b6044820152606401610222565b6040805183815242602082015233917fa7263e057397f21b7886019af546ff891f9c7e3c6fe3b1e90c3c71c9aadb21d291015b60405180910390a25050610d036001600055565b565b6060600882604051610d179190611f68565b9081526040805191829003602090810183208054808302850183019093528284529190830182828015610d6957602002820191906000526020600020905b815481526020019060010190808311610d55575b50505050509050919050565b610d7d611923565b6002548210610dc35760405162461bcd60e51b8152602060048201526012602482015271151a5c08191bd95cc81b9bdd08195e1a5cdd60721b6044820152606401610222565b60028281548110610dd657610dd6612002565b60009182526020918290206040805161010081018252600890930290910180546001600160a01b03908116845260018201541693830193909352600283015490820152600382018054919291606084019190610e3190611e1f565b80601f0160208091040260200160405190810160405280929190818152602001828054610e5d90611e1f565b8015610eaa5780601f10610e7f57610100808354040283529160200191610eaa565b820191906000526020600020905b815481529060010190602001808311610e8d57829003601f168201915b5050505050815260200160048201548152602001600582018054610ecd90611e1f565b80601f0160208091040260200160405190810160405280929190818152602001828054610ef990611e1f565b8015610f465780601f10610f1b57610100808354040283529160200191610f46565b820191906000526020600020905b815481529060010190602001808311610f2957829003601f168201915b50505050508152602001600682018054610f5f90611e1f565b80601f0160208091040260200160405190810160405280929190818152602001828054610f8b90611e1f565b8015610fd85780601f10610fad57610100808354040283529160200191610fd8565b820191906000526020600020905b815481529060010190602001808311610fbb57829003601f168201915b50505091835250506007919091015460ff16151560209091015292915050565b6110006118a4565b610d0360006118d1565b610d036118a4565b6002818154811061102257600080fd5b600091825260209091206008909102018054600182015460028301546003840180546001600160a01b03948516965092909316939092909161106390611e1f565b80601f016020809104026020016040519081016040528092919081815260200182805461108f90611e1f565b80156110dc5780601f106110b1576101008083540402835291602001916110dc565b820191906000526020600020905b8154815290600101906020018083116110bf57829003601f168201915b5050505050908060040154908060050180546110f790611e1f565b80601f016020809104026020016040519081016040528092919081815260200182805461112390611e1f565b80156111705780601f1061114557610100808354040283529160200191611170565b820191906000526020600020905b81548152906001019060200180831161115357829003601f168201915b50505050509080600601805461118590611e1f565b80601f01602080910402602001604051908101604052809291908181526020018280546111b190611e1f565b80156111fe5780601f106111d3576101008083540402835291602001916111fe565b820191906000526020600020905b8154815290600101906020018083116111e157829003601f168201915b5050506007909301549192505060ff1688565b6060600782604051610d179190611f68565b606060006007846040516112379190611f68565b908152604080519182900360209081018320805480830285018301909352828452919083018282801561128957602002820191906000526020600020905b815481526020019060010190808311611275575b50505050509050600081519050806000036112d95760408051600080825260208201909252906112cf565b6112bc611923565b8152602001906001900390816112b45790505b50925050506115e4565b60008482116112e857816112ea565b845b905060008167ffffffffffffffff811115611307576113076119ba565b60405190808252806020026020018201604052801561134057816020015b61132d611923565b8152602001906001900390816113255790505b50905060005b828110156115dd576002858261135d600188611e0c565b6113679190611e0c565b8151811061137757611377612002565b60200260200101518154811061138f5761138f612002565b60009182526020918290206040805161010081018252600890930290910180546001600160a01b039081168452600182015416938301939093526002830154908201526003820180549192916060840191906113ea90611e1f565b80601f016020809104026020016040519081016040528092919081815260200182805461141690611e1f565b80156114635780601f1061143857610100808354040283529160200191611463565b820191906000526020600020905b81548152906001019060200180831161144657829003601f168201915b505050505081526020016004820154815260200160058201805461148690611e1f565b80601f01602080910402602001604051908101604052809291908181526020018280546114b290611e1f565b80156114ff5780601f106114d4576101008083540402835291602001916114ff565b820191906000526020600020905b8154815290600101906020018083116114e257829003601f168201915b5050505050815260200160068201805461151890611e1f565b80601f016020809104026020016040519081016040528092919081815260200182805461154490611e1f565b80156115915780601f1061156657610100808354040283529160200191611591565b820191906000526020600020905b81548152906001019060200180831161157457829003601f168201915b50505091835250506007919091015460ff16151560209091015282518390839081106115bf576115bf612002565b602002602001018190525080806115d590611f97565b915050611346565b5093505050505b92915050565b6115f26118a4565b6115fa61187a565b600954806116405760405162461bcd60e51b81526020600482015260136024820152724e6f206665657320746f20776974686472617760681b6044820152606401610222565b60006009819055600a546040516001600160a01b039091169083908381818185875af1925050503d8060008114611693576040519150601f19603f3d011682016040523d82523d6000602084013e611698565b606091505b50509050806116e15760405162461bcd60e51b8152602060048201526015602482015274119959481dda5d1a191c985dd85b0819985a5b1959605a1b6044820152606401610222565b600a54604080518481524260208201526001600160a01b03909216917fd34af39c64d5ed6bd12db9a9ba17a8ce5a6f1fa6dfd5036565f0b26696ee4b5f9101610cef565b8151602081840181018051600882529282019185019190912091905280548290811061175057600080fd5b90600052602060002001600091509150505481565b61176d6118a4565b6001600160a01b0381166117bf5760405162461bcd60e51b8152602060048201526019602482015278496e76616c696420726563697069656e74206164647265737360381b6044820152606401610222565b600a80546001600160a01b038381166001600160a01b0319831681179093556040519116919082907faaebcf1bfa00580e41d966056b48521fa9f202645c86d4ddf28113e617c1b1d390600090a35050565b6118196118a4565b6001600160a01b03811661184357604051631e4fbdf760e01b815260006004820152602401610222565b61184c816118d1565b50565b8151602081840181018051600782529282019185019190912091905280548290811061175057600080fd5b60026000540361189d57604051633ee5aeb560e01b815260040160405180910390fd5b6002600055565b6001546001600160a01b03163314610d035760405163118cdaa760e01b8152336004820152602401610222565b600180546001600160a01b038381166001600160a01b0319831681179093556040519116919082907f8be0079c531659141344cd1fd0a4f28419497f9722a3daafe3b4186f6b6457e090600090a35050565b60405180610100016040528060006001600160a01b0316815260200160006001600160a01b0316815260200160008152602001606081526020016000815260200160608152602001606081526020016000151581525090565b80356001600160a01b038116811461199357600080fd5b919050565b6000602082840312156119aa57600080fd5b6119b38261197c565b9392505050565b634e487b7160e01b600052604160045260246000fd5b600082601f8301126119e157600080fd5b813567ffffffffffffffff808211156119fc576119fc6119ba565b604051601f8301601f19908116603f01168101908282118183101715611a2457611a246119ba565b81604052838152866020858801011115611a3d57600080fd5b836020870160208301376000602085830101528094505050505092915050565b60008060008060808587031215611a7357600080fd5b611a7c8561197c565b9350602085013567ffffffffffffffff80821115611a9957600080fd5b611aa5888389016119d0565b94506040870135915080821115611abb57600080fd5b611ac7888389016119d0565b93506060870135915080821115611add57600080fd5b50611aea878288016119d0565b91505092959194509250565b600060208284031215611b0857600080fd5b813567ffffffffffffffff811115611b1f57600080fd5b611b2b848285016119d0565b949350505050565b6020808252825182820181905260009190848201906040850190845b81811015611b6b57835183529284019291840191600101611b4f565b50909695505050505050565b600060208284031215611b8957600080fd5b5035919050565b60005b83811015611bab578181015183820152602001611b93565b50506000910152565b60008151808452611bcc816020860160208601611b90565b601f01601f19169290920160200192915050565b600061010060018060a01b0383511684526020830151611c0b60208601826001600160a01b03169052565b50604083015160408501526060830151816060860152611c2d82860182611bb4565b9150506080830151608085015260a083015184820360a0860152611c518282611bb4565b91505060c083015184820360c0860152611c6b8282611bb4565b91505060e0830151611c8160e086018215159052565b509392505050565b6020815260006119b36020830184611be0565b6001600160a01b038981168252881660208201526040810187905261010060608201819052600090611cd083820189611bb4565b905086608084015282810360a0840152611cea8187611bb4565b905082810360c0840152611cfe8186611bb4565b91505082151560e08301529998505050505050505050565b60008060408385031215611d2957600080fd5b823567ffffffffffffffff811115611d4057600080fd5b611d4c858286016119d0565b95602094909401359450505050565b6000602080830181845280855180835260408601915060408160051b870101925083870160005b82811015611db057603f19888603018452611d9e858351611be0565b94509285019290850190600101611d82565b5092979650505050505050565b634e487b7160e01b600052601160045260246000fd5b80820281158282048414176115e4576115e4611dbd565b600082611e0757634e487b7160e01b600052601260045260246000fd5b500490565b818103818111156115e4576115e4611dbd565b600181811c90821680611e3357607f821691505b602082108103611e5357634e487b7160e01b600052602260045260246000fd5b50919050565b601f821115611ea357600081815260208120601f850160051c81016020861015611e805750805b601f850160051c820191505b81811015611e9f57828155600101611e8c565b5050505b505050565b815167ffffffffffffffff811115611ec257611ec26119ba565b611ed681611ed08454611e1f565b84611e59565b602080601f831160018114611f0b5760008415611ef35750858301515b600019600386901b1c1916600185901b178555611e9f565b600085815260208120601f198616915b82811015611f3a57888601518255948401946001909101908401611f1b565b5085821015611f585787850151600019600388901b60f8161c191681555b5050505050600190811b01905550565b60008251611f7a818460208701611b90565b9190910192915050565b808201808211156115e4576115e4611dbd565b600060018201611fa957611fa9611dbd565b5060010190565b85815260a060208201526000611fc960a0830187611bb4565b8281036040840152611fdb8187611bb4565b90508281036060840152611fef8186611bb4565b9150508260808301529695505050505050565b634e487b7160e01b600052603260045260246000fdfea264697066735822122025269649fe3b97f460d08a8ab23c3648d666b54a644375b8ba687eb368b9f7ff64736f6c63430008140033",
  "linkReferences": {},
  "deployedLinkReferences": {}
}