{
  "_format": "hh-sol-artifact-1",
  "contractName": "SimpleReputationStandalone",
  "sourceName": "contracts/SimpleReputationStandalone.sol",
  "abi": [
    {
      "inputs": [
        {
          "internalType": "address",
          "name": "initialOwner",
          "type": "address"
        }
      ],
      "stateMutability": "nonpayable",
      "type": "constructor"
    },
    {
      "anonymous": false,
      "inputs": [
        {
          "indexed": true,
          "internalType": "address",
          "name": "previousOwner",
          "type": "address"
        },
        {
          "indexed": true,
          "internalType": "address",
          "name": "newOwner",
          "type": "address"
        }
      ],
      "name": "OwnershipTransferred",
      "type": "event"
    },
    {
      "anonymous": false,
      "inputs": [
        {
          "indexed": false,
          "internalType": "address",
          "name": "account",
          "type": "address"
        }
      ],
      "name": "Paused",
      "type": "event"
    },
    {
      "anonymous": false,
      "inputs": [
        {
          "indexed": true,
          "internalType": "address",
          "name": "user",
          "type": "address"
        },
        {
          "indexed": false,
          "internalType": "uint256",
          "name": "newReputation",
          "type": "uint256"
        }
      ],
      "name": "ReputationUpdated",
      "type": "event"
    },
    {
      "anonymous": false,
      "inputs": [
        {
          "indexed": true,
          "internalType": "address",
          "name": "serviceAddress",
          "type": "address"
        }
      ],
      "name": "ServiceAddressUpdated",
      "type": "event"
    },
    {
      "anonymous": false,
      "inputs": [
        {
          "indexed": false,
          "internalType": "address",
          "name": "account",
          "type": "address"
        }
      ],
      "name": "Unpaused",
      "type": "event"
    },
    {
      "inputs": [
        {
          "internalType": "address",
          "name": "user",
          "type": "address"
        },
        {
          "internalType": "uint256",
          "name": "amount",
          "type": "uint256"
        }
      ],
      "name": "decreaseReputation",
      "outputs": [],
      "stateMutability": "nonpayable",
      "type": "function"
    },
    {
      "inputs": [
        {
          "internalType": "address[]",
          "name": "users",
          "type": "address[]"
        }
      ],
      "name": "getMultipleReputations",
      "outputs": [
        {
          "internalType": "uint256[]",
          "name": "",
          "type": "uint256[]"
        }
      ],
      "stateMutability": "view",
      "type": "function"
    },
    {
      "inputs": [
        {
          "internalType": "address",
          "name": "user",
          "type": "address"
        },
        {
          "internalType": "uint256",
          "name": "amount",
          "type": "uint256"
        }
      ],
      "name": "increaseReputation",
      "outputs": [],
      "stateMutability": "nonpayable",
      "type": "function"
    },
    {
      "inputs": [],
      "name": "owner",
      "outputs": [
        {
          "internalType": "address",
          "name": "",
          "type": "address"
        }
      ],
      "stateMutability": "view",
      "type": "function"
    },
    {
      "inputs": [],
      "name": "pause",
      "outputs": [],
      "stateMutability": "nonpayable",
      "type": "function"
    },
    {
      "inputs": [],
      "name": "paused",
      "outputs": [
        {
          "internalType": "bool",
          "name": "",
          "type": "bool"
        }
      ],
      "stateMutability": "view",
      "type": "function"
    },
    {
      "inputs": [
        {
          "internalType": "address",
          "name": "user",
          "type": "address"
        }
      ],
      "name": "reputation",
      "outputs": [
        {
          "internalType": "uint256",
          "name": "",
          "type": "uint256"
        }
      ],
      "stateMutability": "view",
      "type": "function"
    },
    {
      "inputs": [],
      "name": "serviceAddress",
      "outputs": [
        {
          "internalType": "address",
          "name": "",
          "type": "address"
        }
      ],
      "stateMutability": "view",
      "type": "function"
    },
    {
      "inputs": [
        {
          "internalType": "address",
          "name": "user",
          "type": "address"
        },
        {
          "internalType": "uint256",
          "name": "value",
          "type": "uint256"
        }
      ],
      "name": "setReputation",
      "outputs": [],
      "stateMutability": "nonpayable",
      "type": "function"
    },
    {
      "inputs": [
        {
          "internalType": "address",
          "name": "_serviceAddress",
          "type": "address"
        }
      ],
      "name": "setServiceAddress",
      "outputs": [],
      "stateMutability": "nonpayable",
      "type": "function"
    },
    {
      "inputs": [
        {
          "internalType": "address",
          "name": "newOwner",
          "type": "address"
        }
      ],
      "name": "transferOwnership",
      "outputs": [],
      "stateMutability": "nonpayable",
      "type": "function"
    },
    {
      "inputs": [],
      "name": "unpause",
      "outputs": [],
      "stateMutability": "nonpayable",
      "type": "function"
    }
  ],
  "bytecode": "0x608060405234801561001057600080fd5b50604051610cc3380380610cc383398101604081905261002f916100e8565b6001600160a01b0381166100895760405162461bcd60e51b815260206004820152601c60248201527f4f776e65722063616e6e6f74206265207a65726f206164647265737300000000604482015260640160405180910390fd5b61009281610098565b50610118565b600080546001600160a01b038381166001600160a01b0319831681178455604051919092169283917f8be0079c531659141344cd1fd0a4f28419497f9722a3daafe3b4186f6b6457e09190a35050565b6000602082840312156100fa57600080fd5b81516001600160a01b038116811461011157600080fd5b9392505050565b610b9c806101276000396000f3fe608060405234801561001057600080fd5b50600436106100b45760003560e01c8063b9f7945111610071578063b9f794511461013c578063c816074014610173578063ded86d6814610193578063ed9fa61b146101a6578063f2fde38b146101b9578063f6e39640146101cc57600080fd5b80633f4ba83a146100b95780635c975abb146100c35780638456cb59146100e55780638d5b87b6146100ed5780638da5cb5b14610118578063b120c16a14610129575b600080fd5b6100c16101df565b005b600054600160a01b900460ff1660405190151581526020015b60405180910390f35b6100c161021c565b600254610100906001600160a01b031681565b6040516001600160a01b0390911681526020016100dc565b6000546001600160a01b0316610100565b6100c1610137366004610920565b61024e565b61016561014a36600461094a565b6001600160a01b031660009081526001602052604090205490565b6040519081526020016100dc565b61018661018136600461096c565b610336565b6040516100dc91906109e1565b6100c16101a1366004610920565b61040f565b6100c16101b4366004610920565b610515565b6100c16101c736600461094a565b61065a565b6100c16101da36600461094a565b6106e6565b6000546001600160a01b031633146102125760405162461bcd60e51b815260040161020990610a25565b60405180910390fd5b61021a6107b0565b565b6000546001600160a01b031633146102465760405162461bcd60e51b815260040161020990610a25565b61021a61084f565b600054600160a01b900460ff16156102785760405162461bcd60e51b815260040161020990610a5c565b6000546001600160a01b031633148061029b57506002546001600160a01b031633145b6102b75760405162461bcd60e51b815260040161020990610a88565b6001600160a01b0382166102dd5760405162461bcd60e51b815260040161020990610ab7565b6001600160a01b03821660008181526001602052604090819020839055517ffc577563f1b9a0461e24abef1e1fcc0d33d3d881f20b5df6dda59de4aae2c8219061032a9084815260200190565b60405180910390a25050565b606060008267ffffffffffffffff81111561035357610353610ae5565b60405190808252806020026020018201604052801561037c578160200160208202803683370190505b50905060005b8381101561040557600160008686848181106103a0576103a0610afb565b90506020020160208101906103b5919061094a565b6001600160a01b03166001600160a01b03168152602001908152602001600020548282815181106103e8576103e8610afb565b6020908102919091010152806103fd81610b27565b915050610382565b5090505b92915050565b600054600160a01b900460ff16156104395760405162461bcd60e51b815260040161020990610a5c565b6000546001600160a01b031633148061045c57506002546001600160a01b031633145b6104785760405162461bcd60e51b815260040161020990610a88565b6001600160a01b03821661049e5760405162461bcd60e51b815260040161020990610ab7565b6001600160a01b038216600090815260016020526040812080548392906104c6908490610b40565b90915550506001600160a01b0382166000818152600160209081526040918290205491519182527ffc577563f1b9a0461e24abef1e1fcc0d33d3d881f20b5df6dda59de4aae2c821910161032a565b600054600160a01b900460ff161561053f5760405162461bcd60e51b815260040161020990610a5c565b6000546001600160a01b031633148061056257506002546001600160a01b031633145b61057e5760405162461bcd60e51b815260040161020990610a88565b6001600160a01b0382166105a45760405162461bcd60e51b815260040161020990610ab7565b6001600160a01b03821660009081526001602052604090205481116105f6576001600160a01b038216600090815260016020526040812080548392906105eb908490610b53565b909155506106109050565b6001600160a01b0382166000908152600160205260408120555b6001600160a01b0382166000818152600160209081526040918290205491519182527ffc577563f1b9a0461e24abef1e1fcc0d33d3d881f20b5df6dda59de4aae2c821910161032a565b6000546001600160a01b031633146106845760405162461bcd60e51b815260040161020990610a25565b6001600160a01b0381166106da5760405162461bcd60e51b815260206004820181905260248201527f4e6577206f776e65722063616e6e6f74206265207a65726f20616464726573736044820152606401610209565b6106e3816108b4565b50565b6000546001600160a01b031633146107105760405162461bcd60e51b815260040161020990610a25565b6001600160a01b0381166107665760405162461bcd60e51b815260206004820152601760248201527f496e76616c6964207365727669636520616464726573730000000000000000006044820152606401610209565b600280546001600160a01b0319166001600160a01b0383169081179091556040517f5801469edd707baff96d9f88069d26f2890226fedfb28b5e946a7e03361f070590600090a250565b600054600160a01b900460ff166108025760405162461bcd60e51b815260206004820152601660248201527510dbdb9d1c9858dd081a5cc81b9bdd081c185d5cd95960521b6044820152606401610209565b6000805460ff60a01b191690557f5db9ee0a495bf2e6ff9c91a7834c1ba4fdd244a5e8aa4e537bd38aeae4b073aa335b6040516001600160a01b03909116815260200160405180910390a1565b600054600160a01b900460ff16156108795760405162461bcd60e51b815260040161020990610a5c565b6000805460ff60a01b1916600160a01b1790557f62e78cea01bee320cd4e420270b5ea74000d11b0c9f74754ebdbfc544b05a2586108323390565b600080546001600160a01b038381166001600160a01b0319831681178455604051919092169283917f8be0079c531659141344cd1fd0a4f28419497f9722a3daafe3b4186f6b6457e09190a35050565b80356001600160a01b038116811461091b57600080fd5b919050565b6000806040838503121561093357600080fd5b61093c83610904565b946020939093013593505050565b60006020828403121561095c57600080fd5b61096582610904565b9392505050565b6000806020838503121561097f57600080fd5b823567ffffffffffffffff8082111561099757600080fd5b818501915085601f8301126109ab57600080fd5b8135818111156109ba57600080fd5b8660208260051b85010111156109cf57600080fd5b60209290920196919550909350505050565b6020808252825182820181905260009190848201906040850190845b81811015610a19578351835292840192918401916001016109fd565b50909695505050505050565b60208082526017908201527f43616c6c6572206973206e6f7420746865206f776e6572000000000000000000604082015260600190565b60208082526012908201527110dbdb9d1c9858dd081a5cc81c185d5cd95960721b604082015260600190565b60208082526015908201527410d85b1b195c881b9bdd08185d5d1a1bdc9a5e9959605a1b604082015260600190565b602080825260149082015273496e76616c69642075736572206164647265737360601b604082015260600190565b634e487b7160e01b600052604160045260246000fd5b634e487b7160e01b600052603260045260246000fd5b634e487b7160e01b600052601160045260246000fd5b600060018201610b3957610b39610b11565b5060010190565b8082018082111561040957610409610b11565b8181038181111561040957610409610b1156fea2646970667358221220a60b432c932edffc88ffb597a718a48f37a7eb0dbcdc77b33c9cd90c635dc1c564736f6c63430008140033",
  "linkReferences": {},
  "deployedLinkReferences": {}
}